:020000040000FA
:08000000803102288731F12F45
:100B0C00013420001B14080020001B1008002000DA
:100B1C001108013908001830210097000800200046
:100B2C002608F1002508F0008531E3250800013086
:100B3C0021009D009E019F019B019C0108006130DA
:100B4C00320099009B019D019F019E01080032001B
:100B5C009101920193019401950196010800FF30D7
:100B6C0020009E009D01911004309F0008008F30E2
:100B7C002500930003309200323091001F08FC399D
:100B8C0001389F000800FA010130F0007008FD07E1
:100B9C0005307D02031C0800FD01FD0A0800200041
:100BAC009C010B309A00DC3099001A08A600190839
:100BBC00A500111001309B00080020001B1DED2D1D
:100BCC001B1071089A00700899001B14080071081A
:100BDC009A007008990008007908031DFA2D22006C
:100BEC008C018E12F901F90A7903031DFF2D2200E5
:100BFC008C167A0803190800F9010800F300730831
:100C0C00F200F20DF20D21001D0872060339720676
:100C1C009D001D1421009D1421009D1C172E6400A5
:100C2C00122E1C08F1001B08F00008008531AD25C0
:100C3C00863186314C2686318531A5258631853124
:100C4C00912586318531BD25863185319D258631AD
:100C5C008531B52586318531D5250800200022083F
:100C6C00031D462E0E1A08001130F0003A30890B85
:100C7C003D2EF00B3D2E00322000A201A20A0800EE
:100C8C000E1E0800A201FA01FA0A080022008C01CB
:100C9C008D018E01113021008C00F0308D00DF3081
:100CAC008E00EF3023008E00F0308D0037308C003A
:100CBC0024008D018C018E0125008C018D018E018B
:100CCC00373026008C00F0308D00FF308E0008008D
:100CDC007908031D792E22008C018E12853187250F
:100CEC008631F901F90A7903031D9D2E85318D2575
:100CFC008631003A03197C2E200011108531952580
:100D0C0086310130F20072082000A407043024065A
:100D1C00031D9D2E031022008C1E0314031C992E00
:100D2C0022008C169B2E22008C122000A4017A0823
:100D3C000319080085318A25F901080086311C2623
:100D4C008631863134268631BF2E8531F2258631A7
:100D5C00D82E86316E268631D82E873133278631B0
:100D6C00D82E8631DF268631D82E873189278631D9
:100D7C00D82E7D08F700F8017808003A0319C72E21
:100D8C00D82E7708013A0319AB2E033A0319AF2E6C
:100D9C00013A0319B32E073A0319B72E013A031976
:100DAC00BB2ED82E7A080319A72E8531C92586317A
:100DBC00A72E7908031DE72E22008C018E12F90153
:100DCC00F90A7903031D2E2F103086310426863143
:100DDC007008F4007108F500750E0F39F400F50178
:100DEC007408F6007608FC007C080139F400F40E57
:100DFC00F40D22000C087406DF3974068C007C3666
:100E0C000139F400F40D0C087406FD3974068C00DD
:100E1C007C08F4000230F436890B112F7408013968
:100E2C00F500F50DF50D0C087506FB3975068C00F3
:100E3C007C08F4000330F436890B212F7408013937
:100E4C00F500F50EF50D0E087506DF3975068E00EA
:100E5C007A0803190800F90108007908031D3E2FD0
:100E6C0022008C018E128C16FB01FB0AF901F90A87
:100E7C007903031D842F5230F0002A30890B442F44
:100E8C00F00B442F0310FB0D10307B06031D502F6D
:100E9C00FB01FB0A7B080139F000F00EF00D22007B
:100EAC000C087006DF3970068C007B360139F000B7
:100EBC00F00D0C087006FD3970068C007B08F000F4
:100ECC000230F036890B672F70080139F100F10DF3
:100EDC00F10D0C087106FB3971068C007B08F000D3
:100EEC000330F036890B772F70080139F100F10EC1
:100EFC00F10D0E087106DF3971068E007A080319A0
:100F0C000800F90108007908031D932F22008C01B9
:100F1C008E12FB01FB0AF901F90A7903031DEC2F70
:100F2C0010308631042687317108F40074082000D3
:100F3C00A300D030890BA02F000001302000A302A9
:100F4C00230A0319AE2F5330890BAA2F0000A32FAD
:100F5C007B080139F400F40EF40D22000C08740621
:100F6C00DF3974068C007B360139F400F40D0C0863
:100F7C007406FD3974068C007B08F4000230F436DC
:100F8C00890BC52F74080139F500F50DF50D0C080A
:100F9C007506FB3975068C007B08F4000330F436BB
:100FAC00890BD52F74080139F500F50EF50D0E08D7
:100FBC007506DF3975068E007B35F4007408FB006E
:100FCC0010307B06031DEC2FFB01FB0A7A0803197A
:100FDC000800F901080085318625FD00F901FA01A8
:100FEC00FB01FC01A001A101A201A301A4012000AD
:040FFC008631A42E68
:020000040001F9
:08000E00ECFFF7FFFFFFFFFF0D
:00000001FF
