:020000040000FA
:040000008031212802
:100008007E1480310B1F1F282100111E1428200088
:10001800111E14287B088A007A080A0080311F28DC
:100028002100911E1F282000911E1F283F088A00CA
:100038003E080A0080317E10090080312328F00133
:10004800F101F201F301F401F501203084000030E0
:1000580085001830813125217E10200081310B293F
:10006800210091127130F7000030F80081312B2106
:10007800803121001112CB30F7000030F8008131B7
:10008800432180310A3023009F0090309D002430A6
:100098009E0019309B009C015330F7000130F80096
:1000A8008131372180314C30F7000130F80081313F
:1000B800312180315030F7000130F80081313D2185
:1000C800F001F501F4010830F9007908FC00F301AA
:1000D800F201F1012100911608007308203E860004
:1000E8008701810123001D1D84287308203E860096
:1000F8008701811420003D088A003C080A008031ED
:1001080023009D1C92287308203E86008701011554
:1001180020003B088A003A080A0080317308203E14
:100128008600870101080319A028200039088A00E1
:1001380038080A00803108008031E62008002200D3
:100148008C018D018E01173021008C00F0308D005C
:10015800FF308E00FF3023008E00F0308D002730F6
:100168008C0024008D018C018E0125008C018D01ED
:100178008E01373026008C00F0308D00FF308E0065
:1001880004303C00A40014303D00950008000830FD
:100198007C020318E3287408303E860087010108B2
:1001A80023009A000130F6007608F407083074023C
:1001B8000318F4010130F6007608FC070800210056
:1001C8001112080023001908F6007308283E86005B
:1001D8008701760881000130F6007608F3070830B9
:1001E80073020318F3010130F6007608F1070800DE
:1001F80081311D2180318031A3208031813114214A
:1002080080318131482180318031342008008031AB
:10021800FC20813123009E1C0E2962309A000E2991
:100228006230320099009B019D0103309F009E01BE
:100238000800320091019201930194019501960101
:100248000800640080010131890B262900347808F0
:100258002000BF007708BE00080078082000BB0017
:100268007708BA00080078082000BD007708BC00AD
:10027800080078082000B9007708B8000800780856
:10028800FB007708FA0008001630210097000800E4
:1002980023001D121D1608008031E6200800080002
:020000040001F9
:08000E00ECFFF3FFFFFFFFFF11
:00000001FF
