:020000040000FA
:08000000803102288731EF2F47
:1001D80008000134183021009700080064008001ED
:1001E8000131890BF3280034803024009400313029
:1001F80095009201080081313C2180318531AE257E
:1002080080310229013021009D009E019F019B0140
:100218009C0108006130320099009B019D019F01FB
:100228009E01080032009101920193019401950109
:1002380096010800F000240095137008910024002E
:10024800141828296400232911080800F200220044
:100258000E10720881311E21813122000E141130D6
:10026800F1003A30890B3629F10B362900320800A3
:100278008131162181318131DC21813181310E2199
:1002880081318031EE2081318031F8208131813116
:10029800062108007108F4007008F3007008840053
:1002A80071088500120003195E290130F00700303B
:1002B800F13D522973087002F0007408713BF10097
:1002C80008007408803AF50080307502031D6E2915
:1002D80001307302031808007309F5007409F60069
:1002E800F50A0319F60A7508F3007608F400080001
:1002F800F3007308F200F20DF20D21001D087206DA
:10030800033972069D001D1421009D1421009D1CB7
:100318008F2964008A291C08F1001B08F0000800D6
:100328002100CB006830FD007D08CA004B08FD00A5
:100338007D08CC00CD01CE01CF01D0012000670897
:10034800DF006608DE00CA30FD007D08E000CC3022
:100358008231092221004D084B07FD007D088600E7
:100368008701810108002000A300A101A201210842
:100378002307F9007908860087010108FA007A083E
:10038800A0002008031908002008F900FA017908DC
:10039800F0007A08F1007808FB007B08F20082314F
:1003A8007822813101302000A1070030A23DBB290D
:1003B80022008C018D018E01113021008C00B0309B
:1003C8008D00DA308E00FF3023008E00A0308D00C3
:1003D80037308C0024008D018C018E0125008C01A2
:1003E8008D018E01373026008C00F0308D00FF30F3
:1003F8008E000E303C00A00018303D009E001930E1
:10040800A2000C303C00A10008002000E3005F08B7
:10041800E5005E08E4002100A001A10120006408B5
:10042800840065088500120003192F2A6430E10052
:100438006108CE006008E2006208CF0063088331DB
:100448000D23823120004E082100A00720004F080C
:100458002100A13D122A210021082000DF002100EF
:1004680020082000DE00080021002608031D742A49
:10047800FE3081312A2182311130F7003A30890B60
:10048800432AF70B432A0032513081312A21823125
:100498007608F1007508F00081314E21823171082B
:1004A800F9007008F800FA01FB017B08803AF700B0
:1004B8007908803A7702031D632A78087A020318BC
:1004C800742A75087A07840076087B3D8500000841
:1004D80081312A2182310130FA070030FB3D592A47
:1004E8002100A601A60A08007208031D7208031D50
:1004F800812A70088031EC2008007208033E8600CB
:100508008701160001040319A42A7208033E860015
:100518008701403FF300413FF400720A86008701DB
:10052800403FF500413FF6007608803AF70074082E
:10053800803A7702031DA22A73087502031808007F
:100548007008F300720886008701720A840085012A
:1005580000080107F4007408860087017308810009
:10056800720A860087010130810741310318810A28
:1005780008002000AB006C1CC92A2B08FC007C0872
:10058800F80024088131B72182312000A61BD12A26
:100598002608AA002508A900D32AA901AA01A701AB
:1005A800A8012808803AFC002A08803A7C02031D2A
:1005B800DF2A290827020318F32A2030F000003028
:1005C800F10020002B08FC007C08F2008231782220
:1005D800823101302000A7070030A83DD52A20002D
:1005E8006C18FE2A2B08FC007C08F80024088131CE
:1005F800B721823120002408F0000030F100813159
:100608004E21200029087007A4002A08713DA50082
:1006180008002000DD004E0886008701403FD0001A
:10062800413FD10050088400510885001200253A46
:10063800031DBC2B4E08860087010130810741311C
:100648000318810A2100A201A3012000EC01ED0199
:10065800FF302100A400FF30A50020004E088600CE
:100668008701403FD000413FD10050088400510825
:1006780085001200643A0319502B4E088600870142
:10068800403FD000413FD100500884005108850008
:100698001200693A031D8A2B4E0886008701013033
:1006A800810741310318810A4F0886008701010834
:1006B8008400850102308107003FD000013FD1004E
:1006C8005008D5005108D600890D893B8909D70003
:1006D800D800D900DA00DB00DC005508B000560865
:1006E800B1005708B2005808B3005908B4005A08B6
:1006F800B5005B08B6005C08B7005D088631A42623
:1007080020003108CF003008CE0008004E088600CF
:100718008701403FD000413FD10050088400510874
:1007280085001200253A031DB12B4E08860087016B
:100738000130810741310318810A2530F00000306B
:10074800F1005D08D0005008F200823178220130B3
:100758002000CE000030CF0008004E088600870138
:100768000130810741310318810ACE01CF01080009
:100778004E0886008701403FD000413FD100500815
:100788008400510885000008D200D3015208F00007
:100798005308F1005D08D4005408F2008231782231
:1007A800833120004E0886008701013081074131DE
:1007B8000318810AAB2BF20128308600003087002D
:1007C800473FF000F01F092C2000A809A909AA0931
:1007D800AB09AC09AD09AE09AF09A80A031D072C7E
:1007E800A90A031D072CAA0A031D072CAB0A031D1F
:1007F800072CAC0A031D072CAD0A031D072CAE0AF3
:10080800031D072CAF0AF201F20A203086000030DF
:100818008700473FF000F01F302C2000A009A109F5
:10082800A209A309A409A509A609A709A00A031DE5
:10083800302CA10A031D302CA20A031D302CA30A58
:10084800031D302CA40A031D302CA50A031D302CCF
:10085800A60A031D302CA70A200020082104220420
:10086800230424042504260427040319882CF101F1
:10087800F10AA71B4C2CA035A10DA20DA30DA40DA8
:10088800A50DA60DA70D0130F0007008F1073D2C4D
:1008980027082F02031D6A2C26082E02031D6A2C26
:1008A80025082D02031D6A2C24082C02031D6A2C1E
:1008B80023082B02031D6A2C22082A02031D6A2C16
:1008C80021082902031D6A2C20082802031C7C2CFD
:1008D8002008A8022108A93B2208AA3B2308AB3B11
:1008E8002408AC3B2508AD3B2608AE3B2708AF3BA8
:1008F800A736A60CA50CA40CA30CA20CA10CA00C4A
:100908000130F102031D4C2C72080319A92CA80907
:10091800A909AA09AB09AC09AD09AE09AF09A80A2A
:10092800031DA92CA90A031DA92CAA0A031DA92C79
:10093800AB0A031DA92CAC0A031DA92CAD0A031D83
:10094800A92CAE0A031DA92CAF0A20002808A00074
:100958002908A1002A08A2002B08A3002C08A4003B
:100968002D08A5002E08A6002F08A7000800F201F0
:100978002030860000308700473FF000F01FE52C4C
:100988002000A009A109A209A309A409A509A6098B
:10099800A709A00A031DE32CA10A031DE32CA20A40
:1009A800031DE32CA30A031DE32CA40A031DE32C57
:1009B800A50A031DE32CA60A031DE32CA70AF201CE
:1009C800F20A2830860000308700473FF000F01F09
:1009D800102D2000A809A909AA09AB09AC09AD097D
:1009E800AE09AF09A80A031D0C2DA90A031D0C2D79
:1009F800AA0A031D0C2DAB0A031D0C2DAC0A031DFE
:100A08000C2DAD0A031D0C2DAE0A031D0C2DAF0ACB
:100A18000130F0007008F20673308600003087005D
:100A28000830F00000301E00F00B172D20002008C1
:100A3800210422042304240425042604270403197A
:100A48007B2DF101F10AA71B362DA035A10DA20DB2
:100A5800A30DA40DA50DA60DA70D0130F00070087B
:100A6800F107272DF335F40DF50DF60DF70DF80DFB
:100A7800F90DFA0D27082F02031D5C2D26082E02FA
:100A8800031D5C2D25082D02031D5C2D24082C0256
:100A9800031D5C2D23082B02031D5C2D22082A024E
:100AA800031D5C2D21082902031D5C2D2008280246
:100AB800031C6F2D2008A8022108A93B2208AA3B85
:100AC8002308AB3B2408AC3B2508AD3B2608AE3BCE
:100AD8002708AF3B7314A736A60CA50CA40CA30CCF
:100AE800A20CA10CA00C0130F102031D362D7208D6
:100AF80003199C2DF309F409F509F609F709F80912
:100B0800F909FA09F30A031D9C2DF40A031D9C2D0B
:100B1800F50A031D9C2DF60A031D9C2DF70A031DDB
:100B28009C2DF80A031D9C2DF90A031D9C2DFA0A19
:100B380073082000A0007408A1007508A2007608B8
:100B4800A3007708A4007808A5007908A6007A0809
:100B5800A7000800143081317C21853171082000FC
:100B6800EA006A082100DF005F082000EA00EB01C4
:100B78006A082100DD0020006B082100DE00343007
:100B88002000E6008830E70021005E082000E90028
:100B980021005D082000E800D130813194218531A1
:100BA800D130F5000030F60082313822853121003D
:100BB8005E08803A2000EA0080306A02031DE72DB3
:100BC800AF3021005D02031CFC2D21005E08803A35
:100BD8002000EA0080306A02031DF52DB53021009F
:100BE8005D020318FC2D22008C018E128C16080061
:100BF80021005E08803A2000EA0080306A02031D66
:100C0800082EB53021005D02031C1D2E21005E0850
:100C1800803A2000EA0080306A02031D162EBA309E
:100C280021005D0203181D2E22008C018E128C14E7
:100C3800080021005E08803A2000EA0080306A023D
:100C4800031D292EBA3021005D02031C3F2E21000E
:100C58005E08803A2000EA0080306A02031D372EC1
:100C6800C43021005D0203183F2E22008C018E1231
:100C78008C168C14080021005E08803A2000EA00D7
:100C880080306A02031D4B2EC43021005D02031C14
:100C9800602E21005E08803A2000EA0080306A0257
:100CA800031D592EC93021005D020318602E220051
:100CB8008C018E120C15080021005E08803A200075
:100CC800EA0080306A02031D6C2EC93021005D02E3
:100CD800031C822E21005E08803A2000EA00803042
:100CE8006A02031D7A2ECE3021005D020318822E7F
:100CF80022008C018E120C158C16080021005E084B
:100D0800803A2000EA0080306A02031D8E2ED93016
:100D180021005D02031C080021005E08803A2000C3
:100D2800EA0080306A02031D9C2EDD3021005D023E
:100D38000318080022008C018E120C158C14080070
:100D48002000BD003008C4003108C5003208C600C4
:100D58003308C7003408C8003508C9003608CA0077
:100D68003708CB004430860000308700473FB80082
:100D7800B81FC02E0130C12E00302000B900BA01C2
:100D88003908C2003A08C300420843040319EA2E8E
:100D9800C409C509C609C709C809C909CA09CB09C7
:100DA800C40A031DEA2EC50A031DEA2EC60A031D3E
:100DB800EA2EC70A031DEA2EC80A031DEA2EC90A2D
:100DC800031DEA2ECA0A031DEA2ECB0A2100A51B21
:100DD800F22EFD302000EC05FF30ED05210025083E
:100DE800803A2000B80080303802031DFE2E013002
:100DF800210024020318062F01302000BE00003015
:100E0800BF000E2F210025082000BF002100240864
:100E18002000BE00210023082000C1002100220874
:100E28002000C00042084304031D1C2F6C1D202F06
:100E3800FF30C007FF30C13D1F30CC000030CD006F
:100E48002100C701B42F2000440845044604470484
:100E5800480449044A044B04031D4C2F3F08803AB8
:100E6800B80080303802031D3B2F01303E020318C2
:100E78004C2F20004108803AB80080303802031D0A
:100E8800472F01304002031CC02F2000EC1CC02F4C
:100E9800FF302000CC07FF30CD3D0A30A000A10173
:100EA800A201A301A401A501A601A7014408A80065
:100EB8004508A9004608AA004708AB004808AC0046
:100EC8004908AD004A08AE004B08AF008331DF2364
:100ED800863120002108F4002008F30081316521C3
:100EE80086317308303E2000B8004C08A83E8600C2
:100EF800870138088100FF30BE07FF30BF3DFF3053
:100F0800C007FF30C13D0A30A000A101A201A30122
:100F1800A401A501A601A7014408A8004508A90045
:100F28004608AA004708AB004808AC004908AD00CD
:100F38004A08AE004B08AF008431BB24863120003C
:100F48002008C4002108C5002208C6002308C700DD
:100F58002408C8002508C9002608CA002708CB00AD
:100F680020004D08803AB80080303802031DBE2F9B
:100F780001304C020318272F200042084304031DA8
:100F8800C72F6C1DDD2FFF30CC07FF30CD3D420849
:100F98004304031DD12F2B30D22F2D30BB0000303E
:100FA800BC003B08B8004C08A83E860087013808FA
:100FB80081004C08A83EB8003808A4004108A600E3
:100FC8004008A5003D088231BD2220002508B10057
:100FD8002408B00008008031ED208731EF00EC01D3
:100FE800ED01EE01A030840000308500283080310A
:100FF800F22020008031FF2841346C346534783485
:1010080061346E3464347234613420344634793453
:1010180066346634653400344E346F3465346C3469
:101028006C34653420344334723461346E3465343E
:1010380000344A3475347334743469346E3420346B
:101048004334683461346E3400344A346534663469
:101058006634203447346534693473347334003467
:061068002534643400345D
:020000040001F9
:08000E00ECFFF7FFFFFFFFFF0D
:00000001FF
