:020000040000FA
:08000000803102288731E62F50
:1000C0000800013418302100970008006400800106
:1000D0000131890B67280034FE0012001E00FE0B60
:1000E0006D280034803024009C0031309D009A013E
:1000F00008008031BF2080318531742580317C2813
:10010000013021009D009E019F019B019C01080080
:100110006130320099009B019D019F019E01080002
:10012000320091019201930194019501960108001A
:100130001D348834103488340034883429348834A9
:100140000134F00024009D137008990024001C184D
:10015000AB286400A62819080800F20022000E103F
:1001600072088031A120803122000E141130F1007C
:100170003A30890BB928F10BB928003208008031D8
:100180009020803181315F21803180318820803121
:100190008031622080318031722080318031802036
:1001A00008007108F4007008F300700884007108FA
:1001B000850012000319E1280130F0070030F13DFD
:1001C000D52873087002F0007408713BF100080034
:1001D0007408803AF50080307502031DF128013063
:1001E0007302031808007309F5007409F600F50A94
:1001F0000319F60A7508F3007608F4000800F30006
:100200007308F200F20DF20D21001D087206033989
:1002100072069D001D1421009D1421009D1C1229B1
:1002200064000D291C08F1001B08F00008002100E3
:10023000D1006830FD007D08D0005108FD007D0828
:10024000D200D301D401D501D60120006708DF0018
:100250006608DE00D030FD007D08E000D23081313C
:100260008C21210053085107FD007D08860087017D
:10027000810108002000A300A101A2012108230799
:10028000F9007908860087010108FA007A08A000C1
:100290002008031908002008F900FA017908F00085
:1002A0007A08F1007808FB007B08F2008131F72121
:1002B000813101302000A1070030A23D3E292200FB
:1002C0008C018D018E01113021008C00B0308D0029
:1002D000DA308E00FF3023008E00A0308D003730E2
:1002E0008C0024008D018C018E0125008C018D0174
:1002F0008E01373026008C00F0308D00FF308E00EC
:100300000C303C009E001A303D009E001B30A200C5
:100310000E303C009D0008002000E3005F08E5006F
:100320005E08E4002100A001A1012000640884000F
:100330006508850012000319B2296430E1006108E4
:10034000CE006008E2006208CF0063088231D52247
:10035000813120004E082100A00720004F08210015
:10036000A13D9529210021082000DF00210020085F
:100370002000DE000800FE308031AD2081311130D8
:10038000F7003A30890BC229F70BC22900325130ED
:100390008031AD2081317608F1007508F0008031A0
:1003A000D12081317108F9007008F800FA01FB01D1
:1003B0007B08803AF7007908803A7702031DE2292A
:1003C00078087A020318F32975087A0784007608FA
:1003D0007B3D850000088031AD2081310130FA0776
:1003E0000030FB3DD8292100AB01AB0A08007208A0
:1003F000031D7208031D002A700880316020080068
:100400007208033E86008701160001040319232A9F
:100410007208033E86008701403FF300413FF4002D
:10042000720A86008701403FF500413FF6007608DA
:10043000803AF7007408803A7702031D212A730876
:100440007502031808007008F3007208860087011F
:10045000720A8400850100080107F4007408860010
:10046000870173088100720A8600870101308107C5
:1004700041310318810A080021002D08031D502A6C
:1004800020000E1A080011302000EA003A30890BD3
:10049000472AEA0B472A00002100AD01AD0A0800F7
:1004A00020000E1E08002100AD01AC01AC0A143082
:1004B0008031FF20823170082000EA007108EB00D3
:1004C0006B0E0F39EA00EB016A08EC006C082100A2
:1004D000AA0034302000E6008830E70021002A0816
:1004E0002000EA00EB016A08E8006B08E900D73059
:1004F000813117218231D730F5000030F60081318B
:10050000BB2108002000AB002100261C902A2000FF
:100510002B08FC007C08F800240881313A21823144
:100520002000A61B982A2608AA002508A9009A2AB6
:10053000A901AA01A701A8012808803AFC002A08FD
:10054000803A7C02031DA62A290827020318BA2A2A
:100550002030F0000030F10020002B08FC007C0867
:10056000F2008131F721823101302000A7070030ED
:10057000A83D9C2A21002618C62A20002B08FC0032
:100580007C08F800240881313A21823120002408B7
:10059000F0000030F1008031D120200029087007E0
:1005A000A4002A08713DA50008002000DD004E08C7
:1005B00086008701403FD000413FD10050088400B1
:1005C000510885001200253A031D822B4E08860033
:1005D00087010130810741310318810A2100A201FE
:1005E000A301A601A701FF30A400FF30A500200051
:1005F0004E0886008701403FD000413FD10050089F
:100600008400510885001200643A0319162B4E0825
:1006100086008701403FD000413FD1005008840050
:10062000510885001200693A031D502B4E088600C0
:1006300087010130810741310318810A4F08860084
:10064000870101088400850102308107003FD00046
:10065000013FD1005008D5005108D600890D893BD3
:100660008909D700D800D900DA00DB00DC00550882
:10067000B0005608B1005708B2005808B300590836
:10068000B4005A08B5005B08B6005C08B7005D0806
:100690008631972620003108CF003008CE000800B0
:1006A0004E0886008701403FD000413FD1005008EE
:1006B0008400510885001200253A031D772B4E084F
:1006C000860087010130810741310318810A2530F6
:1006D000F0000030F1005D08D0005008F2008131D8
:1006E000F72101302000CE000030CF0008004E0876
:1006F000860087010130810741310318810ACE014C
:10070000CF0108004E0886008701403FD000413FDE
:10071000D10050088400510885000008D200D301A0
:100720005208F0005308F1005D08D4005408F200AC
:100730008131F721823120004E0886008701013087
:10074000810741310318810A712BF201283086009C
:1007500000308700473FF000F01FCF2B2000A80992
:10076000A909AA09AB09AC09AD09AE09AF09A80AE4
:10077000031DCD2BA90A031DCD2BAA0A031DCD2BCA
:10078000AB0A031DCD2BAC0A031DCD2BAD0A031DF7
:10079000CD2BAE0A031DCD2BAF0AF201F20A203099
:1007A000860000308700473FF000F01FF62B200046
:1007B000A009A109A209A309A409A509A609A709D5
:1007C000A00A031DF62BA10A031DF62BA20A031D86
:1007D000F62BA30A031DF62BA40A031DF62BA50A6C
:1007E000031DF62BA60A031DF62BA70A20002008DE
:1007F00021042204230424042504260427040319C5
:100800004E2CF101F10AA71B122CA035A10DA20D4F
:10081000A30DA40DA50DA60DA70D0130F0007008C5
:10082000F107032C27082F02031D302C26082E0267
:10083000031D302C25082D02031D302C24082C020A
:10084000031D302C23082B02031D302C22082A0202
:10085000031D302C21082902031D302C20082802FA
:10086000031C422C2008A8022108A93B2208AA3B0D
:100870002308AB3B2408AC3B2508AD3B2608AE3B28
:100880002708AF3BA736A60CA50CA40CA30CA20C02
:10089000A10CA00C0130F102031D122C72080319E7
:1008A0006F2CA809A909AA09AB09AC09AD09AE09C1
:1008B000AF09A80A031D6F2CA90A031D6F2CAA0AF1
:1008C000031D6F2CAB0A031D6F2CAC0A031D6F2C8C
:1008D000AD0A031D6F2CAE0A031D6F2CAF0A20005A
:1008E0002808A0002908A1002A08A2002B08A300BC
:1008F0002C08A4002D08A5002E08A6002F08A7008C
:100900000800F2012030860000308700473FF000E9
:10091000F01FAB2C2000A009A109A209A309A4097A
:10092000A509A609A709A00A031DA92CA10A031D50
:10093000A92CA20A031DA92CA30A031DA92CA40AF1
:10094000031DA92CA50A031DA92CA60A031DA92C69
:10095000A70AF201F20A2830860000308700473FDC
:10096000F000F01FD62C2000A809A909AA09AB099C
:10097000AC09AD09AE09AF09A80A031DD22CA90A1A
:10098000031DD22CAA0A031DD22CAB0A031DD22CA4
:10099000AC0A031DD22CAD0A031DD22CAE0A031DD6
:1009A000D22CAF0A0130F0007008F20673308600D6
:1009B000003087000830F00000301E00F00BDD2C06
:1009C00020002008210422042304240425042604F2
:1009D00027040319412DF101F10AA71BFC2CA035B6
:1009E000A10DA20DA30DA40DA50DA60DA70D0130FF
:1009F000F0007008F107ED2CF335F40DF50DF60D50
:100A0000F70DF80DF90DFA0D27082F02031D222D01
:100A100026082E02031D222D25082D02031D222D3E
:100A200024082C02031D222D23082B02031D222D36
:100A300022082A02031D222D21082902031D222D2E
:100A400020082802031C352D2008A8022108A93BF4
:100A50002208AA3B2308AB3B2408AC3B2508AD3B4E
:100A60002608AE3B2708AF3B7314A736A60CA50C8F
:100A7000A40CA30CA20CA10CA00C0130F102031DCC
:100A8000FC2C72080319622DF309F409F509F60923
:100A9000F709F809F909FA09F30A031D622DF40AA6
:100AA000031D622DF50A031D622DF60A031D622D3A
:100AB000F70A031D622DF80A031D622DF90A031DB2
:100AC000622DFA0A73082000A0007408A1007508BE
:100AD000A2007608A3007708A4007808A50079088A
:100AE000A6007A08A700080082313C228531210047
:100AF0006D03031D882D2835E53E86008701403FA4
:100B0000F500413FF6008131BB2185312100ED0127
:100B100014308031FF20853171082000ED006D0810
:100B20002100AA002A082000ED00EE016D08210036
:100B3000E30020006E082100E4006408803A2000F1
:100B4000ED0080306D02031DA82DAF30210063023F
:100B5000031CC82D21006408803A2000ED0080307D
:100B60006D02031DB62DB530210063020318C82D98
:100B700022008C018E128C1621002835E53E86005D
:100B80008701403FF500413FF6008131BB2108005D
:100B900021006408803A2000ED0080306D02031DC2
:100BA000D42DB53021006302031CE42D210064081C
:100BB000803A2000ED0080306D02031DE22DBA3036
:100BC00021006302031C080021006408803A200011
:100BD000ED0080306D02031DF02DBA30210063025C
:100BE000031C002E21006408803A2000ED008030B4
:100BF0006D02031DFE2DC43021006302031C08009A
:100C000021006408803A2000ED0080306D02031D51
:100C10000C2EC43021006302031C382E210064080E
:100C2000803A2000ED0080306D02031D1A2EC9307D
:100C3000210063020318382E2100AB0122008C0131
:100C40008E120C15FF302100A807FF30A93DA91F07
:100C50002D2E0330A8000030A9002835E53E86007F
:100C60008701403FF500413FF6008131BB2108007C
:100C700021006408803A2000ED0080306D02031DE1
:100C8000442EC93021006302031C542E2100640845
:100C9000803A2000ED0080306D02031D522ECE30D0
:100CA00021006302031C080021006408803A200030
:100CB000ED0080306D02031D602ED93021006302EB
:100CC000031C080021006408803A2000ED008030F9
:100CD0006D02031D6E2EDD30210063020318080033
:100CE0002100AB0122008C018E128C1401302100F6
:100CF000A8070030A93D2908803A2000ED00803087
:100D00006D02031D862E043021002802031C8B2E49
:100D10002100A801A90121002835E53E86008701B0
:100D2000403FF500413FF6008131BB210800200023
:100D3000BD003008C4003108C5003208C6003308C1
:100D4000C7003408C8003508C9003608CA0037088B
:100D5000CB004430860000308700473FB800B81F02
:100D6000B32E0130B42E00302000B900BA0139088A
:100D7000C2003A08C300420843040319DD2EC40927
:100D8000C509C609C709C809C909CA09CB09C40ADE
:100D9000031DDD2EC50A031DDD2EC60A031DDD2E33
:100DA000C70A031DDD2EC80A031DDD2EC90A031D57
:100DB000DD2ECA0A031DDD2ECB0A2100A51BE42E61
:100DC000FD30A605FF30A7052508803A2000B800B1
:100DD00080303802031DEF2E013021002402031859
:100DE000F72E01302000BE000030BF00FF2E210092
:100DF00025082000BF00210024082000BE0021009B
:100E000023082000C100210022082000C000420861
:100E10004304031D0E2F2100261D132FFF30200039
:100E2000C007FF30C13D1F302000CC000030CD0096
:100E30002100CD01A82F20004408450446044704A2
:100E4000480449044A044B04031D402F3F08803ADC
:100E5000B80080303802031D2F2F01303E020318E6
:100E6000402F20004108803AB80080303802031D2E
:100E70003B2F01304002031CB42F2100A61CB42FCD
:100E8000FF302000CC07FF30CD3D0A30A000A1018B
:100E9000A201A301A401A501A601A7014408A8007D
:100EA0004508A9004608AA004708AB004808AC005E
:100EB0004908AD004A08AE004B08AF008331A523B6
:100EC000863120002108F4002008F3008031E8205A
:100ED00086317308303E2000B8004C08AE3E8600D4
:100EE000870138088100FF30BE07FF30BF3DFF306B
:100EF000C007FF30C13D0A30A000A101A201A3013B
:100F0000A401A501A601A7014408A8004508A9005D
:100F10004608AA004708AB004808AC004908AD00E5
:100F20004A08AE004B08AF0084318124863120008E
:100F30002008C4002108C5002208C6002308C700F5
:100F40002408C8002508C9002608CA002708CB00C5
:100F500020004D08803AB80080303802031DB22FBF
:100F600001304C0203181B2F200042084304031DCC
:100F7000BC2F2100261DD32FFF302000CC07FF30CF
:100F8000CD3D42084304031DC72F2B30C82F2D3001
:100F9000BB000030BC003B08B8004C08AE3E8600E9
:100FA00087013808810020004C08AE3EB8003808A0
:100FB000A4004108A6004008A5003D088231822215
:100FC00020002508B1002408B0000800803161200D
:100FD0008731EF009830840080308500E53086004E
:100FE00000308700093080316C208731A0308400C8
:100FF000003085002E308031662020008031792835
:1010000041346C346534783461346E346434723411
:1010100061342034463479346634663465340034BF
:101020004E346F3465346C346C346534203443345E
:10103000723461346E34653400344A347534733438
:10104000743469346E3420344334683461346E341B
:1010500000344A34653466346634203447346534A9
:0E10600069347334733400342534643400343E
:020000040001F9
:08000E00ECFFF7FFFFFFFFFF0D
:00000001FF
