:020000040000FA
:08000000803102288731FD2F39
:100F680016302100970008008731CF2787312200EB
:100F78000C15BB2F32009101920193019401950148
:100F8800960108006230320099009B019D010330F0
:100F98009F009E0108008731BE2787318731DB27F4
:100FA80087318731C62787318731B4270800220067
:100FB8008C018D018E01333021008C00F0308D00C2
:100FC800FF308E00FF3023008E00F0308D00373068
:100FD8008C0024008D018C018E0125008C018D016F
:100FE8008E01373026008C00F0308D00FF308E00E7
:080FF800080020008731B82F2A
:020000040001F9
:08000E00ECFFF3FFFFFFFFFF11
:00000001FF
