:020000040000FA
:08000000803102288731FD2F39
:100F5C001630210097000800320091019201930194
:100F6C0094019501960108006230320099009B01B2
:100F7C009D0103309F009E0108008731B227873105
:100F8C008731DB2787318731BA2787318731AE2705
:100F9C0008008731C3278731D52F22000C1520007C
:100FAC008E19D32F22000C11D52F22008C018D010C
:100FBC008E01333021008C00F0308D00FF308E001C
:100FCC00F73023008E00F0308D0037308C00240079
:100FDC008D018C018E0125008C018D018E01373025
:100FEC0026008C00F0308D00FF308E0008002000B1
:040FFC008731CF2F3B
:020000040001F9
:08000E00ECFFF3FFFFFFFFFF11
:00000001FF
