:020000040000FA
:08000000803102288731E62F50
:100CDA003D00A501080020001F1508000C303D004A
:100CEA00A50008001830210097000800240094018C
:100CFA002030950092010800FE0012001E00FE0B33
:100D0A00822E00348631F426863187313A2786319D
:100D1A008A2EFE344234DB348934013400340134FF
:100D2A00013021009D009E019F019B019C0108004A
:100D3A006130320099009B019D019F019E010800CC
:100D4A0032009101920193019401950196010800E4
:100D5A00FF3020009E009D01911004309F00080082
:100D6A008F3025009300920191011F08FC39013848
:100D7A009F000800F00024009513700891002400D9
:100D8A001418C92E6400C42E11080800FF30F0059B
:100D9A000330F1052500131ED72E0630F035F10D6C
:100DAA00890BD32E71089200700891000800F30095
:100DBA007308F200F20DF20D21001D0872060339C4
:100DCA0072069D001D1421009D1421009D1CEF2E0A
:100DDA006400EA2E1C08F1001B08F00008008631A6
:100DEA00A526863187316827863186319D26863148
:100DFA0086317726863186317B2686318631B5263D
:100E0A0086318631952686318631AD260800200046
:100E1A002308031D1E2F22008C018E128631732691
:100E2A0087318631702687312000A201A20AA301E8
:100E3A00A30A2303031D080000308631DC2687310C
:100E4A007008F4007108F5000630F536F40C890BC9
:100E5A002A2F74082000A0007508A1002108F100BB
:100E6A002008F0008631CB26080087310C2787310D
:100E7A0086317B26873120002D08FC002C08FB00D8
:100E8A0086317B268731FD017D08023CF80078080F
:100E9A00F1007D087B3EF9007908F2007D087B3E6F
:100EAA00873196278731FA007A08FD00A330F800C7
:100EBA005530890B5E2FF80B5E2F000002307D0241
:100ECA0003180800492F22008C018D018E0127305A
:100EDA0021008C0070308D00D6308E00F430230053
:100EEA008E00F0308D0025308C0024008D018C019D
:100EFA008E0125008C018D018E01373026008C0071
:100F0A00F0308D00FF308E0018303D00A000103008
:100F1A003C00A00019303D009F0011303C00A100A8
:100F2A000800F600F70171080319E42F7608031D7B
:100F3A00C52FCA2F7208031DAD2F77087607F30055
:100F4A0073088600870101088631BF268731C02FC2
:100F5A0077087607F300730886008701010886314F
:100F6A00BF268731F40077087207F50075088600F6
:100F7A008701740881000130F3007308F7076400E1
:100F8A00710877020318E42F9F2F7208031DE02FC0
:100F9A00E42F00308631BF268731F30077087207C5
:100FAA00F400740886008701730881000130F30099
:100FBA007308F707640071087702031CCE2F7708BD
:100FCA0008008E308400863085002C308600003080
:100FDA008700073086318126A001A101A201A30161
:100FEA00A401A501A601A701A801A901AA01AB01B3
:100FFA0020008631872E0034003400340034003457
:10100A00003400345F3400340034003407340034D0
:10101A000734003414347F3414347F3414342434C1
:10102A002A347F342A34123423341334083464348F
:10103A006234363449345634203450340034083457
:10104A0007340334003400341C342234413400346D
:10105A000034413422341C3400342A341C347F34A2
:10106A001C342A34083408343E3408340834003432
:10107A008034703430340034083408340834083486
:10108A0008340034003460346034003420341034BE
:10109A000834043402343E345134493445343E343D
:1010AA00003442347F344034003472344934493491
:1010BA00493446342134413449344D3433341834B4
:1010CA00143412347F3410342734453445344534CB
:1010DA0039343C344A344934493431344134213482
:1010EA0011340934073436344934493449343634EE
:1010FA0046344934493429341E3400340034143413
:10110A0000340034003440343434003400340034C1
:10111A000834143422344134143414341434143456
:10112A00143400344134223414340834023401347F
:10113A005934093406343E3441345D3459344E341A
:10114A007C341234113412347C347F3449344934B7
:10115A00493436343E3441344134413422347F34C4
:10116A004134413441343E347F344934493449347A
:10117A0041347F3409340934093401343E3441346A
:10118A004134513473347F340834083408347F349A
:10119A00003441347F344134003420344034413403
:1011AA003F3401347F3408341434223441347F34D8
:1011BA0040344034403440347F3402341C340234E6
:1011CA007F347F340434083410347F343E3441345D
:1011DA00413441343E347F34093409340934063405
:1011EA003E344134513421345E347F340934193465
:1011FA0029344634263449344934493432340334A0
:10120A0001347F34013403343F34403440344034B1
:10121A003F341F342034403420341F343F344034A8
:10122A00383440343F346334143408341434633467
:10123A00033404347834043403346134593449347B
:10124A004D34433400347F34413441344134023420
:10125A0004340834103420340034413441344134E5
:10126A007F340434023401340234043440344034C8
:10127A0040344034403400340334073408340034F2
:10128A00203454345434783440347F342834443449
:10129A0044343834383444344434443428343834C4
:1012AA004434443428347F34383454345434543431
:1012BA001834003408347E34093402341834A4341F
:1012CA00A4349C3478347F340834043404347834B5
:1012DA00003444347D3440340034203440344034C3
:1012EA003D3400347F34103428344434003400341C
:1012FA0041347F34403400347C3404347834043448
:10130A0078347C340834043404347834383444343B
:10131A00443444343834FC341834243424341834EF
:10132A001834243424341834FC347C340834043417
:10133A00043408344834543454345434243404348B
:10134A0004343F34443424343C344034403420346C
:10135A007C341C342034403420341C343C34403433
:10136A00303440343C34443428341034283444343F
:10137A004C349034903490347C344434643454344F
:10138A004C344434003408343634413400340034A4
:10139A0000347734003400340034413436340834AD
:1013AA0000340234013402340434023448346534DB
:1013BA006C346C346F34203457346F3472346C3478
:0413CA006434003453
:020000040001F9
:08000E00ECFFF7FFFFFFFFFF0D
:00000001FF
