:020000040000FA
:08000000803102288731E52F51
:100D66001830210097000800FE344B34FE3442341C
:100D760001342400940120309500920108002100DE
:100D86009D019E019F019B019C0108008731002760
:100D96008631873194278631CC2E62303200990015
:100DA6009B019D019F019E01080032009101920165
:100DB600930194019501960108007F3020009E0062
:100DC6009D01911004309F000800F0002400951347
:100DD6007008910024001418F22E6400ED2E1108FC
:100DE60008000F30250093000130920099309100E1
:100DF6001F08FC3901389F0008008631D826873144
:100E06008731182787318631D02687318631B32638
:100E160087318631BC2687318631F4268731863183
:100E2600C22687318631E026080022008C018D011A
:100E36008E01373021008C0070308D007F308E009F
:100E46007F3023008E00F0308D0036308C00240079
:100E56008D018C018E0125008C018D018E013730AC
:100E660026008C00F0308D00FF308E0017303C00DD
:100E7600A00019303D009F001830A7003C00A101DA
:100E86000800F600F70171080319922F7608031D72
:100E9600732F782F7208031D5B2F77087607F300F0
:100EA60073088600870101088631E82687316E2F90
:100EB60077087607F30073088600870101088631F4
:100EC600E8268731F40077087207F5007508860072
:100ED6008701740881000130F3007308F707640086
:100EE600710877020318922F4D2F7208031D8E2F5B
:100EF600922F00308631E8268731F3007708720793
:100F0600F400740886008701730881000130F3003D
:100F16007308F707640071087702031C7C2F7708B3
:100F260008008631BC26873120002A08AD00290832
:100F3600AC002808AF002708AE008631BC268731F2
:100F46002000B0013008023CF8007808F1003008B3
:100F56002C3EF9007908F20030082C3E87314427F0
:100F66008731FA007A082000B0005230F8002A30A3
:100F7600890BBB2FF80BBB2F023020003002031C5D
:100F8600A52FB0013008023CF8007808F1003008BF
:100F96002E3EF9007908F20030082E3E87314427AC
:100FA6008731FA007A082000B0005230F8002A3063
:100FB600890BDB2FF80BDB2F0230200030020318E1
:100FC6000800C52FB7308400863085001200A700C0
:100FD6001200A8001200A9001200AA001200AB001D
:100FE600FB01FC01FD01A001A101A201A301A401D5
:0A0FF600A501A60120008631C92ED6
:020000040001F9
:08000E00ECFFF7FFFFFFFFFF0D
:00000001FF
