:020000040000FA
:08000000803102288731F02F46
:100D320001342400140801390800183021009700FA
:100D420008002400940120309500920108008731A8
:100D5200122786318631D9268631AB2E0130210009
:100D62009D009E019F019B019C01080061303200A1
:100D720099009B019D019F019E0108003200910193
:100D8200920193019401950196010800FF30200021
:100D92009E009D01911004309F00080086319A2622
:100DA2008631003A031DCF2E71088631E4260800F1
:100DB2008631A2268631FF302000AE000730AF0018
:100DC2008631FC260800F00024009513700891007B
:100DD20024001418EE2E6400E92E110808008F304A
:100DE2002500930003309200323091001F08FC3935
:100DF20001389F0008000030F300F4000030F500D5
:100E0200F6008030F7000030F800A030F900003022
:100E1200FA0020002F08FC002E08FB00873158271B
:100E220008008631BF26873187312A2787318631EC
:100E3200B726873186319E2687318631A2268731B1
:100E42008631F02687318631AF2687318631C72633
:100E5200080022008C018D018E01353021008C00AA
:100E620070308D007F308E007F3023008E00F03096
:100E72008D0036308C0024008D018C018E012500FE
:100E82008C018D018E01373026008C00F0308D00F0
:100E9200FF308E0017303C00A00019303D009F004B
:100EA2000C3091001830A7003C00A1010800740822
:100EB200803A2000A90080302902031D622F803071
:100EC2007302031808007608803A2000A9008030D7
:100ED2002902031D6E2FA03075020318080077083F
:100EE20073072000A9007808743DAA002908FF3E74
:100EF200AB00FF302A3DAC002C08803AAD008030B8
:100F02002D02031D862F80302B02031C922F80306E
:100F12002000A90073082902F70074090318890A3E
:100F2200F800790875072000A9007A08763DAA0022
:100F32002908FF3EAB00FF302A3DAC002C08803A66
:100F4200AD0080302D02031DA82FA0302B02031C00
:100F5200B42FA0302000A90075082902F9007609F3
:100F62000318890AFA007A08F6007908F50076086B
:100F7200803A2000A90080302902031DC22F0130CF
:100F82007502031C08007808F4007708F30074085F
:100F9200803A2000A90080302902031DD22F01309F
:100FA2007302031CEB2F7C08F2007B08F1008631F0
:100FB200CF268731FF30F307FF30F43D7408803AC3
:100FC2002000A90080302902031DE92F013073029D
:100FD2000318D42FFF30F507FF30F63DB82F8631C6
:100FE2009926B000FD01A001A101A201A301A40163
:0E0FF200A501A601A701A80120008631A82EA6
:020000040001F9
:08000E00ECFFF7FFFFFFFFFF0D
:00000001FF
