:020000040000FA
:0400000080312B28F8
:100008007E1480312100101E10282000101E102898
:100018008631DF26803129280B1F29282100111D50
:100028001E282000111D1E284A088A0049080A00B7
:10003800803129282100911D29282000911D292877
:1000480048088A0047080A0080317E10090080317C
:100058002D28F001F101F201F301F401F50120303E
:100068008400003085002D308631C7268031A030CD
:1000780084000030850044308631C7267E10200079
:100088008231DC2A86317E268031923085313F25C7
:1000980080312000DD005D08DE00AB305E0603190C
:1000A8005B289C305E0603195B2800300800D801E5
:1000B80007308131C0218031DB302000DD005D0850
:1000C800D30081308531BD258031F6302000DD0038
:1000D8005D08D30083308531BD258031873020000D
:1000E800DD005D08D3008E308531BD2580312000CC
:1000F800D3019D308531BD2580312000D3019E304C
:100108008531BD25803160302000DD005D08D300D9
:100118008D308531BD2580310030843154248031C3
:10012800023084312B2480310130853183258031A0
:100138000030863100268031003A031959283230C0
:10014800863113268031003A03195928FF302000E0
:10015800D700FF30D80084317D248031003A03195C
:10016800592800302000D700D8008431A4248031D9
:10017800003A0319592811302000DD005D08D3002A
:100188008C308531BD258031200053085404031973
:100198005928D301D30A90308531BD2580312000FC
:1001A8005308540403195928D3019F308531BD25BC
:1001B8008031200053085404031959282830863107
:1001C80039268031003A031959281E3086312626EF
:1001D8008031003A0319592840302000DD005D08BD
:1001E800D300A2308531BD25803120005308540446
:1001F800031959280230833142238031003A031908
:1002080059280030833110238031003A03195928C6
:1002180001308431CB248031003A03195928200059
:10022800D301A4308531BD25803120005308540402
:1002380003195928D301A5308531BD258031200007
:100248005308540403195928D301A7308531BD2513
:10025800803120005308540403195928D301A930C8
:100268008531BD25803120005308540403195928CD
:10027800C930DD005D08D300A6308531BD25803149
:1002880020005308540403195928D301AA30853192
:10029800BD25803120005308540403195928003023
:1002A8008331D6238031003A0319592801300800D8
:1002B8002000DE008531D8258131FF302000DD00A7
:1002C8005D08D30083308531BD2581312000530876
:1002D800540403197229742901308D29003008004B
:1002E8008930DD005D08D3008E308531BD25813130
:1002F80020005308540403197229033083317423EE
:100308008131003A0319722920005E08031D702903
:1003180000308331D6238131003A03197229013024
:100328008431F2248131003A0319722986314C262E
:100338008131003A031972292000D801D80A033004
:100348008131C0218131003A031972292000D80176
:10035800D80A02308131C0218131003A031972294B
:100368002000D801D80A06308131C0218131003AF5
:1003780003197229013008002000DC008631882624
:1003880081312000D9005908DB005B0A031DCE2902
:100398000030080058080139D9005908D80007303A
:1003A8005C020318F32958080319E6290130D9001B
:1003B8005C0ADF29D935890BDE295908DA005A0881
:1003C800DB04002A0130D9005C0AEB29D935890BF6
:1003D800EA295908FF3ADA005A08DB05002A0730EB
:1003E8005C06031D002A58080319FF297F30D9002D
:1003F8005908DB00002ADB015B08D9005908D30043
:1004080080308531BD2581312000530854040319FB
:10041800CC29013008008631AA26823103181E2A09
:10042800412A87310F27080087310B2708008731B9
:100438000327080020003A08F6007608F600113075
:10044800203E86008701413F8A00403F0A008231F2
:10045800F700F8017808003A0319332A1B2A7708AD
:10046800013A03191B2A033A0319152A013A0319F9
:10047800182A073A03191B2A1B2A2000A011023048
:10048800203E86008701403F84008501810A0008DC
:100498008631EA26823101302000A3020030A43BD5
:1004A80023082404031D5A2A0630080003300800D4
:1004B800873146278231F60020002208860087010E
:1004C800760881000130F6007608A2070130A30201
:1004D8000030A43B230824040319762A8731172700
:1004E8000530080020157E2A8631F7260800863157
:1004F800FB2608003708F6007608F6000B30203E89
:1005080086008701413F8A00403F0A008231F70098
:10051800F8017808003A0319922A7B2A7708013AE9
:1005280003197B2A033A0319782A013A0319782A0E
:10053800073A03197B2A7B2A080022008C018D01C7
:100548008E01113021008C00F0308D00DF308E00DC
:10055800DD3023008E0050308D0011308C002400D7
:100568008D018C0102308E0025008C018D018E01D9
:10057800373026008C00F0308D00FF308E002700C9
:1005880099109810971457302000CD000730CE00EE
:100598008631D326210010160F303C00A0001830F9
:1005A8003D009F0019309D000D303C00A10008005F
:1005B8008631672682318B170B171B302000CD0040
:1005C8000730CE008631D3268231803146208231F1
:1005D800003A0319F12A22000C15003081315C2100
:1005E8008231003A0319FA2A22008C168531ED254A
:1005F8008231003A0319FA2A22008E16213020008F
:10060800DF007630890B062BDF0B062B0000FC3051
:1006180085313F258231FA2A2000DA00A33085315E
:100628003F2583312000D7005708D9000330D70071
:100638005708DA055A08D7000230D735FF3E031DA0
:10064800212B5735D8005808DA00E730D70057086B
:10065800D9055A08D7005708D9045908D7005708A8
:10066800D300A3308531BD258331200053085404BD
:10067800031D402B00300800013008002000DA007C
:10068800A33085313F2583312000D7005708D90092
:100698000330D7005708DA055A08D7000430D73591
:1006A800FF3E031D532B5735D8005808DA009F30FA
:1006B800D7005708D9055A08D7005708D904590848
:1006C800D7005708D300A3308531BD2583312000DA
:1006D80053085404031D722B003008000130080031
:1006E8002000DA00903085313F2583312000D70083
:1006F8005708D9000330D7005708DA055A08D70039
:100708000330D735FF3E031D852B5735D8005808D1
:10071800DA00CF30D7005708D9055A08D70057084C
:10072800D9045908D7005708D30090308531BD2522
:100738008331200053085404031DA42B0030080003
:100748000130080020002015B32B87310727080047
:10075800873143270330080087310327080037080B
:10076800F6007608F6000B30203E86008701413FF0
:100778008A00403F0A008331F700F8017808003A00
:100788000319C72BB02B7708013A0319B02B033A8A
:100798000319A92B013A0319A92B073A0319AC2B02
:1007A800B02B08002000D900AB3085313F258331BC
:1007B8002000D7005708D8000130D7005708D905BE
:1007C8005935D7005708D900FD30D7005708D80544
:1007D8005908D7005708D8045808D7005708D30035
:1007E800AB308531BD258331200053085404031DE7
:1007F800FF2B00300800013008002000A011023053
:10080800F6007608AA000E2C8731072708008731E2
:10081800032708003908F6007608F6000F30203E56
:1008280086008701413F8A00403F0A008431F70073
:10083800F8017808003A0319222C0B2C7708023AA1
:100848000319082C013A0319082C0B2C0800200066
:10085800DA008F3085313F2584312000D7005708D2
:10086800D9000330D7005708DA055A08D7000130F5
:10087800D735FF3E031D3C2C5735D8005808DA0001
:10088800F330D7005708D9055A08D7005708D904B4
:100898005908D7005708D3008F308531BD25080087
:1008A8002000DA008F3085313F2584312000D700C1
:1008B8005708D9000330D7005708DA055A08D70077
:1008C8000530D735FF3E031D652C5735D80058082D
:1008D800DA003F30D7005708D9055A08D70057081B
:1008E800D9045908D7005708D3008F308531BD2562
:1008F800080020005708D9005908DA005808D9001C
:100908005908DB005A08D9005908D30084308531CA
:10091800BD258431200053085404031D952C003054
:1009280008005B08D9005908D30085308531BD25FA
:1009380084312000530854040319932C0130080013
:1009480020005708D9005908DA005808D900590872
:10095800DB005A08D9005908D30086308531BD25F7
:100968008431200053085404031DBC2C00300800B7
:100978005B08D9005908D30087308531BD258431FB
:100988002000530854040319BA2C01300800200031
:10099800D800A33085313F2584312000D70057087F
:1009A800D9000730D7005708D805F830D7005708BE
:1009B800D9055808D7005708D9045908D700570847
:1009C800D300A3308531BD25843120005308540459
:1009D800031DF02C00300800013008002000D8006A
:1009E800AB3085313F2584312000D7005708D90026
:1009F8000130D7005708D805FE30D7005708D90569
:100A08005808D7005708D9045908D7005708D30001
:100A1800AB308531BD258431200053085404031DB3
:100A2800172D003008000130080087314027853134
:100A38002000A01D292D8631AA268531031C292DC9
:100A48000F30F90079082000A90020002908F900D2
:100A5800FA01F935FA0D63307907840085307A3D5B
:100A68008500013F8A00003F0A008531FB007B08B2
:100A78002000A90008002000D400873125278531EF
:100A880072308531A1258531200054088531A12592
:100A9800853187313427853173308531A1258531FA
:100AA8008631732685312000D3005308D50087315D
:100AB8002B27853187311F27200055080800E5348A
:100AC8000634A2340634B93406340F3402345C34A4
:100AD8000234D9340634A63403340F3407340B34C3
:100AE80007340734073403340734FF340634FB343F
:100AF8000634F7340634C034063401340434200094
:100B0800D8008F3085313F2585312000D700570820
:100B1800D9000330D7005708D805FC30D70057084C
:100B2800D9055808D7005708D9045908D7005708D5
:100B3800D3008F308531BD2508002000D000500833
:100B48008631CD2685312000D101D2012400161B23
:100B5800AA2D20005208CF005108CE00D10A03194F
:100B6800D20A00304F02053003194E02031808005C
:100B7800AD2D2000D600873125278531723085318B
:100B8800A1258531200056088531A1258531200011
:100B980053088531A125853187311F270130200071
:100BA800D3000030D40008002100E001E101F40185
:100BB800F501F201F301F001F1012000C501C601C0
:100BC800C301C401C101C201BF01C001BD01BE0111
:100BD8000800AF3085313F2585312000D600560802
:100BE800D7000130D6005608D7055703031DFE2D40
:100BF80001300800003008002000D8005808D7004D
:100C08005708D30089308531BD2586312000530827
:100C18005404031D112E0030080001300800200084
:100C2800D8005808D7005708D3008B308531BD2528
:100C38008631200053085404031D242E0030080078
:100C4800013008002000D8005808D7005708D30002
:100C5800A1308531BD258631200053085404031D79
:100C6800372E00300800013008002000D80058084E
:100C7800D7005708D300A0308531BD258631200024
:100C880053085404031D4A2E0030080001300800A0
:100C98002000D801D80A00308131C0218631003ABD
:100CA800031D582E0030080001300800200060089D
:100CB80061040319642E61088A0060080A008631FD
:100CC80027009910080086319A2686318231A122A0
:100CD80086318631912686318631F32608008731A0
:100CE8002E2786318631B2268631031C762E87312F
:100CF800312708002400951A08009401283095002F
:100D08009601033092000800803085313F2520008D
:100D1800D6005608D70057080800623032009900FC
:100D28009B019D0103309F009E0108003200910144
:100D38009201930194019501960108002000A015E5
:100D48000314210D8631EA26053008002400160E0A
:100D5800890C890C0139F600760C08002400140867
:100D680001392000CD004D0C08002000A0152135C8
:100D78008631EA26033008008731562720002010E4
:100D8800AA010E300800640080010131890BC82EC9
:100D980000342000CD004D082400910008002000F8
:100DA8004E08E1004D08E00008002000A01187313E
:100DB8004927043008002700991C080086315A2664
:100DC800080020002010AA010E300800F60076085E
:100DD8002400910008002400961616160800163004
:100DE8002100970008008731132709300800873150
:100DF80013270A3008008731172705300800873184
:100E08004C270030080087314F2701300800873110
:100E18004F270230080087314F270130080024008F
:100E280096161616080024009612161608002000BA
:100E3800CC01CC0A080087312227080024001615A7
:100E48000800873128270800240016140800863176
:100E5800EF26080024009615080024001108080051
:100E680087313727080024009614080087313D276A
:100E7800080020001111080020009111080020002E
:100E88009115080024001108080024009615080090
:100E980024001615080024009614080005300800E0
:080EA8000130080008000800F9
:020000040001F9
:08000E00ECFFF3FFFFFFFFFF11
:00000001FF
