:020000040000FA
:1000000080314728053008007E1480312100101E01
:1000100010282000101E1028973185278031452890
:100020000B1F45282100111E1F282000111E1F280C
:1000300022006F088A006E080A00803145282100DE
:10004000911E2C282000911E2C2822006D088A0069
:100050006C080A00803145282100111D3928200034
:10006000111D392821006F088A006E080A008031AE
:1000700045282100911D45282000911D452821007B
:100080006D088A006C080A0080317E1009008031FA
:100090004928973187278031EF005B308400883012
:1000A0008500CD3086000130870008308831092076
:1000B0008031F001F101F201F301F401F5015C304E
:1000C0008400003085001230883103208031E03018
:1000D000840000308500103088310320803160308A
:1000E0008400013085000A30883103208031A0303F
:1000F0008400013085002D3088310320803120308C
:100100008400023085004430883103207E102000B6
:100110008D315F2D2000C501C601C701C801C10195
:10012000C201C301C40105302400610203189A28EA
:1001300000300800213061020318642961080319A6
:1001400064292000CD01CE01A9280130CD0700305F
:10015000CE3D4E08803AAF0080302F02031DB428F8
:100160002400610820004D020318FF2820004D08DC
:10017000203E8600023087000B300102031CA528B8
:100180004D08303E8600023087000B300102031C10
:10019000A5284D08403E8600023087000B30010242
:1001A000031CA5284D08503E8600023087000B3006
:1001B0000102031CA5284D08203E8600023087005E
:1001C0000108AF002F08C5004D08303E8600023000
:1001D00087000108AF002F08C6004D08403E86008A
:1001E000023087000108AF002F08C7004D08503EBD
:1001F0008600023087000108AF002F08C8002000E9
:100200004508031998284608031998284708031930
:10021000982848080319982824006108FF3E200008
:10022000CD00FF3003180030CE001A29FF30CD0773
:10023000FF30CE3DCE1B64294D08203E86000230A3
:1002400087000B300102031C16294D08303E860042
:10025000023087000B300102031C16294D08403E76
:100260008600023087000B300102031C16294D085E
:10027000503E8600023087000B300102031C162915
:100280004D08203E8600023087000108AF002F088D
:10029000C1004D08303E8600023087000108AF00E3
:1002A0002F08C2004D08403E86000230870001083A
:1002B000AF002F08C3004D08503E86000230870073
:1002C0000108AF002F08C400200045084607A6001B
:1002D000A701A70D46084502A000A101031CA10328
:1002E0006430A2000030A3008A3103228031200054
:1002F0002108A9002008A8008F315627803120004E
:100300002708B2002608B10047084807A600A70141
:10031000A70D48084702A000A101031CA1036430F7
:10032000A2000030A3008A3103228031200021087E
:10033000A9002008A8008F31562780312000270807
:10034000B4002608B30041084207A600A701A70D84
:1003500042084102A000A101031CA1036430A200D5
:100360000030A3008A310322803120002108A90037
:100370002008A8008F315627803120002708B600BA
:100380002608B50043084407A600A701A70D4408A6
:100390004302A000A101031CA1036430A2000030AD
:1003A000A3008A310322803120002108A9002008FF
:1003B000A8008F315627803120002708B800260872
:1003C000B70031083502C9003208363BCA0033088D
:1003D0003702CB003408383BCC004908E8074A080C
:1003E000E93D4B08E6074C08E73D6908803AAF0055
:1003F00080302F02031DFE2932306802031C052ABB
:1004000001302000E4000030152A20006908803AFD
:10041000AF007F302F02031D0F2ACF306802031870
:10042000172AFF302000E400FF30E5001A2A2000E0
:10043000E401E5016708803AAF0080302F02031D18
:10044000232A32306602031C2A2A01302000E200EF
:1004500000303A2A20006708803AAF007F302F0230
:10046000031D342ACF30660203183C2AFF302000D7
:10047000E200FF30E3003F2A2000E201E3016408CC
:100480006504031DEA2A62086304031DEA2A4A0878
:10049000803AAF0080302F02031D502A01304902FC
:1004A00003185F2A20004909AF004A09B000AF0ACB
:1004B0000319B00A2F08B9003008BA00642A2000D6
:1004C0004A08BA004908B9003A08803AAF008030BB
:1004D0002F02031D6D2A14303902031898282000BA
:1004E0004C08803AAF0080302F02031D792A01307A
:1004F0004B020318882A20004B09AF004C09B000BA
:10050000AF0A0319B00A2F08BB003008BC008D2ABF
:1005100020004C08BC004B08BB003C08803AAF00F0
:1005200080302F02031D962A14303B0203189828AE
:10053000200049084A04031DA72A4B084C04031D48
:10054000A72A01302100EA070030EB3DB42A490810
:100550004A04031DAF2A4B084C040319B42A013086
:100560002100E8070030E93D21006B08803A2000B7
:10057000AF0080302F02031DC02A0A3021006A021A
:10058000031C982821006908803A2000AF008030C1
:100590002F02031DCE2A023021006802031C982876
:1005A000200049084A04031DDB2A4B084C04031DA4
:1005B000DB2A0130E42A49084A040319E82A4B08D7
:1005C0004C040319E82A02302100E6000030E7005D
:1005D000013008004A08803AAF0080302F02031D26
:1005E000F32A013049020318022B20004909AF0009
:1005F0004A09B000AF0A0319B00A2F08BD0030083D
:10060000BE00072B20004A08BE004908BD003E0876
:10061000803AAF0080302F02031D102B14303D02B2
:100620000318982820004C08803AAF0080302F0231
:10063000031D1C2B01304B0203182B2B20004B09F0
:10064000AF004C09B000AF0A0319B00A2F08BF0071
:100650003008C000302B20004C08C0004B08BF0001
:100660004008803AAF0080302F02031D392B143030
:100670003F0203189828200049084A04031D492B0B
:100680004B084C04031D492B01302100EA070030C0
:10069000EB3D21006B08803A2000AF0080302F0234
:1006A000031D552B0A3021006A02031C98282000E4
:1006B000E401E501E201E301E801E901E601E70106
:1006C0009828210066036704031D6D2B0530220066
:1006D000E8000030E90001300800023066066704D7
:1006E000031D792B06302200E8000030E9000130BC
:1006F00008002000640A031D862B650A031D862B53
:1007000062086304031D862B0330A52B6403650474
:10071000031D902B62086304031D902B0430A52B4E
:1007200064086504031D9A2B62036304031D9A2B5E
:100730000230A52B64086504031DAA2B620A031D61
:10074000AA2B630A031DAA2B01302200E800003007
:10075000E900F02C640A031DFB2B650A031DFB2B2B
:1007600062036304031DFB2B6908803AA0008030FC
:100770002002031DBD2B013068020318CC2B200082
:100780006809A0006909A100A00A0319A10A2008AC
:10079000A2002108A300D12B20006908A30068084B
:1007A000A2006708803AA00080302002031DDA2BE7
:1007B000013066020318E92B20006609A0006709D2
:1007C000A100A00A0319A10A2008A4002108A5007D
:1007D000EE2B20006708A5006608A4002508803AD3
:1007E000A0002308803A2002031DF82B22082402CF
:1007F000031C842B982B64036504031D4C2C620A94
:10080000031D4C2C630A031D4C2C6908803AA00080
:1008100080302002031D0E2C0130680203181D2CAD
:1008200020006809A0006909A100A00A0319A10A13
:100830002008A6002108A700222C20006908A70094
:100840006808A6006708803AA00080302002031DD7
:100850002B2C0130660203183A2C20006609A000F8
:100860006709A100A00A0319A10A2008A80021080D
:10087000A9003F2C20006708A9006608A8002908E5
:10088000803AA0002708803A2002031D492C260840
:100890002802031C8E2BA42B640A031D9F2C650ABF
:1008A000031D9F2C620A031D9F2C630A031D9F2CAE
:1008B0006908803AA00080302002031D612C0130BD
:1008C00068020318702C20006809A0006909A100C3
:1008D000A00A0319A10A2008AA002108AB00752C60
:1008E00020006908AB006808AA006708803AA000E9
:1008F00080302002031D7E2C0130660203188D2CEF
:1009000020006609A0006709A100A00A0319A10A36
:100910002008AC002108AD00922C20006708AD0033
:100920006608AC002D08803AA0002B08803A20020F
:10093000031D9C2C2A082C02031C842BA42B64036B
:100940006504031DEE2C62036304031DEE2C69088D
:10095000803AA00080302002031DB02C01306802D4
:100960000318BF2C20006809A0006909A100A00A93
:100970000319A10A2008AE002108AF00C42C2000F2
:100980006908AF006808AE006708803AA0008030B0
:100990002002031DCD2C013066020318DC2C200040
:1009A0006609A0006709A100A00A0319A10A20088E
:1009B000B0002108B100E12C20006708B1006608F2
:1009C000B0003108803AA0002F08803A2002031DB1
:1009D000EB2C2E083002031C8E2B982B00300800C5
:1009E0000130080088319920843192308A315B22AD
:1009F00084312000B0003008B100AB30310603195B
:100A0000072D9C3031060319072D00300800AB017B
:100A100007308F3107278431DB302000B0003008E9
:100A2000A60081308931CC218431F6302000B0001D
:100A30003008A60083308931CC21843187302000F2
:100A4000B0003008A6008E308931CC2184312000DE
:100A5000A6019D308931CC2184312000A6019E3031
:100A60008931CC21843160302000B0003008A600EC
:100A70008D308931CC21843100308B314123843158
:100A800002308B316A23843101308731DF27843192
:100A90000030893143218431003A0319052D323069
:100AA000893130218431003A0319052DFF302000AF
:100AB000AA00FF30AB008B311A238431003A0319AE
:100AC000052D00302000AA00AB008A31F3228431CA
:100AD000003A0319052D11302000B0003008A6009F
:100AE0008C308931CC218431200026082704031959
:100AF000052DA601A60A90308931CC218431200031
:100B0000260827040319052DA6019F308931CC2121
:100B100084312000260827040319052D2830893147
:100B20000A218431003A0319052D1E3089311D2117
:100B30008431003A0319052D40302000B000300800
:100B4000A600A2308931CC21843120002608270458
:100B50000319052D02308C314C248431003A0319DD
:100B6000052D00308C317E248431003A0319052D87
:100B700001308A31CC228431003A0319052D20003E
:100B8000A601A4308931CC21843120002608270415
:100B90000319052DA601A5308931CC21843120000F
:100BA000260827040319052DA601A7308931CC2179
:100BB00084312000260827040319052DA601A93039
:100BC0008931CC2184312000260827040319052D02
:100BD000C930B0003008A600A6308931CC2184315C
:100BE0002000260827040319052DA601AA30893103
:100BF000CC2184312000260827040319052D00305C
:100C00008B31BE238431003A0319052D01300800D1
:100C10002000D601D7018831F7208631003A031928
:100C2000172E8831902086314139031DCC2E2000AB
:100C3000CF01D0010800AE308A315B22863120001E
:100C4000D1005108D80058080319CC2E1130580291
:100C500003182E2E2030A6000130312EA030A60021
:100C60000030A7005808D100D201D135D20DD135BE
:100C7000D20D5108A8005208A900FC308E316E2612
:100C8000863120002708D7002608D600560A031D03
:100C9000512E570A031D512EFF30CF000030D000D7
:100CA00008005708803AD10080305102031D5A2EA7
:100CB00004305602031CCC2E2000D901DA015A0858
:100CC000803AD1005708803A5102031D692E560818
:100CD00059020318C02E20005908203E860001301A
:100CE00087000108D10024006008203E8600023001
:100CF00087002000510881005908013E203E8600EF
:100D0000013087000108D10024006008303E8600D1
:100D1000023087002000510881005908023E203E21
:100D20008600013087000108D10024006008403EA1
:100D30008600023087002000510881005908033ED8
:100D4000203E8600013087000108D10024006008A1
:100D5000503E86000230870020005108810001309B
:100D6000D10051082400E00701302000D1005108D3
:100D70002400E10704302000D9070030DA3D5F2E5F
:100D800080318A208631003A0319C92E83316123CC
:100D900086312400E001E10105302000D100DD3082
:100DA000890BD02ED10BD02E0032AF308A315B228E
:100DB00086312000D1005108D50055181B2E053072
:100DC0002000D100DD30890BE32ED10BE32E003261
:100DD000833161238631220069082000D40022007B
:100DE00068082000D3008931822120005408D000F7
:100DF0005308CF0008005B2F0130DE070030DF3DD5
:100E00005F08803ADB0080305B02083003195E0225
:100E1000031C0F2F07302000DE000030DF002130E0
:100E20002000DB007630890B132FDB0B132F000023
:100E3000782FFF30DE07FF30DF3DDF1F0F2FDE0191
:100E4000DF010F2FED010130E0070030E13D6108C7
:100E5000803ADB0080305B02031D302F04306002DB
:100E6000031C352F2000E001E10120006035CD3E5C
:100E7000860001308700403FA500413FA6008D312C
:100E80001E258631782FED01FF30E007FF30E13D70
:100E9000E11F4E2F0330E0000030E1006035CD3E11
:100EA000860001308700403FA500413FA6008D31FC
:100EB0001E258631782F863108268631200050087D
:100EC000003A0319642F782F4F08013A0319222F93
:100ED000033A0319432F013A0319FC2E073A031969
:100EE000192F013A0319782F033A0319782F782F15
:100EF0002000ED0108002000B100893182218731F6
:100F0000FF302000B0003008A60083308931CC21AA
:100F100087312000260827040319912F932F0130D1
:100F2000AC2F003008008930B0003008A6008E30A9
:100F30008931CC2187312000260827040319912FFD
:100F400003308C311A248731003A0319912F200085
:100F50003108031D8F2F00308B31BE238731003ABB
:100F60000319912F01308A31A5228731003A0319E4
:100F7000912F8831BA208731003A0319912F200030
:100F8000AB01AB0A03308F3107278731003A0319D1
:100F9000912F2000AB01AB0A02308F310727873138
:100FA000003A0319912F2000AB01AB0A06308F31B4
:100FB00007278731003A0319912F013008002000DC
:100FC000AB008F308A315B2287312000AA002A08CB
:100FD000AC000330AA002A08AB05FC30AA002A089E
:100FE000AC052B08AA002A08AC042C08AA002A0881
:100FF000A6008F308931CC210800883100200800FC
:10100000240016150800640080010131890B0428B2
:101010000034FE0012001E00FE0B0A280034973137
:10102000862723002010AA010E3008002300A015F7
:1010300021359731EA2703300800803024009C00D6
:1010400031309D009A010800240014080139200065
:10105000A000200C08002400160E890C890C013910
:10106000F600760C08002300A0150314210D97311B
:10107000EA2705300800013021009D009E019F01F4
:101080009B019C0108006130320099009B019D0189
:101090009F019E0108003200910192019301940189
:1010A000950196010800FF3020009E009D019110DF
:1010B00004309F0008003D349034303490342034A4
:1010C000903449349034200021082300D6002000B9
:1010D00020082300D5000800200021082200EB0092
:1010E000200020082200EA00080020002108230038
:1010F000D800200020082300D70008002000210885
:101100002200ED00200020082200EC000800200052
:1011100021082200EF00200020082200EE00080035
:1011200080308A315B222000A9002908AA002A0801
:1011300008002400951A08009401283095009601B3
:101140000330920008009731AE278831883124207F
:101150008831031CA6289731AB2708008F30250063
:10116000930001309200323091001F08FC390138A1
:101170009F0008002000AB01AB0A00308F31072729
:101180008831003A031DC6280030080001300800ED
:101190002000A00024009D132000200824009900B6
:1011A00024001C18D5286400D02819080800200045
:1011B0008E1DE12801302100E4000030E5000130FF
:1011C00008002100E401E50100300800FE3089310B
:1011D0005621883111302000A3003A30890BEE28C7
:1011E000A30BEE2800005130893156210800AF30A2
:1011F0008A315B2288312000A9002908AA00013029
:10120000A9002908AA052A03031D0829013008009E
:10121000003008002000AB002B08AA002A08A60016
:10122000A0308931CC218931200026082704031DF4
:101230001B2900300800013008002000AB002B08FB
:10124000AA002A08A600A1308931CC2189312000CA
:1012500026082704031D2E2900300800013008004D
:101260002000AB002B08AA002A08A6008B30893189
:10127000CC218931200026082704031D4129003094
:101280000800013008002000AB002B08AA002A0843
:10129000A60089308931CC21893120002608270415
:1012A000031D542900300800013008002000A2006E
:1012B00022000E10200022088831C8208931220027
:1012C0000E1411302000A1003A30890B6529A10BC2
:1012D00065290000080023001908F6007308BD3EC8
:1012E000860001308700760881000130F60076081C
:1012F000F307083073020318F3010130F600760893
:10130000F10708002400E001E1012000E801E90103
:10131000E601E701E401E501E201E3012100EA0160
:10132000EB01E801E901E601E7012200E801E9013A
:10133000080020002108A4002008A3002008840041
:101340002108850012000319AA290130A0070030E6
:10135000A13D9E2923082002A0002408213BA100D2
:10136000080088314B2089318C31E524893188315E
:10137000432089319731E227893188311D20893115
:101380008831AE20893188313B2089318831532022
:1013900089318D31A12508002000A9009731B72798
:1013A000893172308931E72189312000290889315A
:1013B000E7218931200026088931E72189318731E9
:1013C000FD2701302000A6000030A7000800200003
:1013D000A30023089731FA2789312000A401A50131
:1013E0002400161BF02920002508A2002408A100D3
:1013F000A40A0319A50A00302202053003192102AC
:1014000003180800F3292000A401A501201C0C2AC0
:101410002208A4072308A53D0130A235A30D890B9E
:101420000D2A0130A136A00C890B122A20082104B4
:10143000031D062A2508A1002408A0000800083082
:1014400020006E0203183A2A7408C53E8600013057
:101450008700010823009A000130F6007608F4079F
:10146000083074020318F4010130F60076082000F9
:10147000EE0708002100111208002000A300230835
:10148000A200A20DA20D21001D0820002206033992
:10149000220621009D001D1421009D1421009D1C89
:1014A000532A64004E2A1C082000A10021001B08BA
:1014B0002000A00008002000A7009731B7278A313C
:1014C00072308931E7218A31200027088931E721EC
:1014D0008A319731A8278A3173308931E7218A31DF
:1014E0008831A3208A312000A6002608A800973161
:1014F000B1278A318731FD2720002808080097315D
:101500009C278A312300A01D8F2A88312B208A3105
:10151000031C8F2A0F30F90079082300A90023004B
:101520002908F900FA01F935FA0D0030790784002D
:1015300090307A3D8500013F8A00003F0A008A31E1
:10154000FB007B082300A90008002000AB00AB30A3
:101550008A315B228A312000AA002A08AC000130BF
:10156000AA002A08AB05FE30AA002A08AC052B0801
:10157000AA002A08AC042C08AA002A08A600AB304E
:101580008931CC218A31200026082704031DCA2A6C
:1015900000300800013008002000AB00A3308A3181
:1015A0005B228A312000AA002A08AC000730AA007A
:1015B0002A08AB05F830AA002A08AC052B08AA00B7
:1015C0002A08AC042C08AA002A08A600A3308931F6
:1015D000CC218A31200026082704031DF12A00307F
:1015E00008000130080020002A08AC002C08AD00DB
:1015F0002B08AC002C08AE002D08AC002C08A6006F
:1016000086308931CC218A31200026082704031D29
:101610000B2B003008002E08AC002C08A6008730E9
:101620008931CC218A312000260827040319092B8F
:101630000130080020002A08AC002C08AD002B085F
:10164000AC002C08AE002D08AC002C08A60084309D
:101650008931CC218B31200026082704031D322B31
:10166000003008002E08AC002C08A6008530893117
:10167000CC218B312000260827040319302B0130A0
:1016800008002000AD008F308A315B228B312000B2
:10169000AA002A08AC000330AA002A08AD052D08CC
:1016A000AA000530AA35FF3E031D522B2A35AB0098
:1016B0002B08AD003F30AA002A08AC052D08AA006F
:1016C0002A08AC042C08AA002A08A6008F30893109
:1016D000CC2108002000AD008F308A315B228B3195
:1016E0002000AA002A08AC000330AA002A08AD0591
:1016F0002D08AA000130AA35FF3E031D7B2B2A3599
:10170000AB002B08AD00F330AA002A08AC052D0869
:10171000AA002A08AC042C08AA002A08A6008F30C8
:101720008931CC2108002300A0110230F600760890
:10173000AA00A02B9731CE2708009731D2270800A6
:101740003908F6007608F6000F30A03E860001301A
:101750008700413F8A00403F0A008B31F700F801C3
:101760007808003A0319B52B9D2B7708023A031924
:101770009A2B013A03199A2B9D2B08002000AC00EC
:10178000AB308A315B228B312000AA002A08AB00E3
:101790000130AA002A08AC052C35AA002A08AC00A2
:1017A000FD30AA002A08AB052C08AA002A08AB04C1
:1017B0002B08AA002A08A600AB308931CC218B3136
:1017C000200026082704031DE72B00300800013005
:1017D000080023002015F62B9731CE2708009731FB
:1017E0009927033008009731D22708003708F60000
:1017F0007608F6000B30A03E860001308700413F9E
:101800008A00403F0A008C31F700F8017808003A5E
:1018100003190B2CF32B7708013A0319F32B033A26
:101820000319EC2B013A0319EC2B073A0319EF2BA0
:10183000F32B08002000AD0090308A315B228C3100
:101840002000AA002A08AC000330AA002A08AD052F
:101850002D08AA000330AA35FF3E031D2B2C2A3584
:10186000AB002B08AD00CF30AA002A08AC052D082C
:10187000AA002A08AC042C08AA002A08A600903066
:101880008931CC218C31200026082704031D4A2CE5
:1018900000300800013008002000AD00A3308A317C
:1018A0005B228C312000AA002A08AC000330AA0079
:1018B0002A08AD052D08AA000430AA35FF3E031DF5
:1018C0005D2C2A35AB002B08AD009F30AA002A08FA
:1018D000AC052D08AA002A08AC042C08AA002A0886
:1018E000A600A3308931CC218C31200026082704A2
:1018F000031D7C2C00300800013008002000AD00E2
:10190000A3308A315B228C312000AA002A08AC0067
:101910000330AA002A08AD052D08AA000230AA3516
:10192000FF3E031D8F2C2A35AB002B08AD00E7309E
:10193000AA002A08AC052D08AA002A08AC042C0825
:10194000AA002A08A600A3308931CC218C312000BE
:1019500026082704031DAE2C0030080001300800C3
:101960007308603E860001308700810123001D1D41
:10197000C52C7308603E8600013087008114220068
:101980006B088A006A080A008C3123009D1CD32C46
:101990007308603E860001308700011558088A00F0
:1019A00057080A008C317308603E860001308700BA
:1019B00001080319E22C230056088A0055080A0082
:1019C0008C31080089316B21080022008C018D01C7
:1019D0008E01333021008C00B0308D009A308E00A3
:1019E000E43023008E008D0111308C0024008D0125
:1019F0008C018E0125008C018D018E01373026006F
:101A00008C00F0308D00FF308E0021001016143055
:101A10003C00A4000C309E000F30A0001A303D00A6
:101A20009E0018309F009D011B30A2001430A500BD
:101A30000D303C00A1000E309D000800FE308931C1
:101A400056218D3111302000A7003A30890B262D08
:101A5000A70B262D00005130893156218D312000F1
:101A60002608A1002508A000893199218D31200088
:101A70002108A9002008A800AA01AB012B08803A80
:101A8000A7002908803A2702031D482D28082A02AA
:101A900003185B2D200025082A07840026082B3D0B
:101AA00085000008893156218D3101302000AA07B8
:101AB0000030AB3D3E2D2000ED01ED0A08008931DC
:101AC000B1218D318B170B178831E6208D3188318C
:101AD000D7208D31003A0319742D8431F2248D31D1
:101AE000003087317B278D318D31E4258D318F3169
:101AF000A8278D3120005C085D040319742D8831FE
:101B0000D7208D31003A0319742D20006F03031D77
:101B1000972D6035CD3E860001308700403FA500FF
:101B2000413FA6008D311E258D312000EF01883107
:101B3000F7208D31003A0319742D8631FB268D3143
:101B4000742D21009112B0302000A0000C30A100B3
:101B500088317E208D31210011121F302000A0001D
:101B60000A30A100883187208D310A3023009F0080
:101B700090309D0024309E000C309B009C018430EE
:101B80002000A0001730A10088316C208D31BA30C0
:101B90002000A0001730A100883175208D318A30D7
:101BA0002000A0001730A10088316320F001F5016A
:101BB000F40108302000A2002208EE00F301F20137
:101BC000F10121009116080017308A313D228D3134
:101BD00020002008A4002108A5000630A536A40C8A
:101BE000890BEE2D2408A6002608EC006C08A40042
:101BF000A5012408A7002508A8002808803AA40009
:101C000080302402031D062EF0302702031C08003A
:101C100020002808803AA40080302402031D122EE0
:101C2000FF3027020318080020005C085D04031D34
:101C30001E2E0130DC000030DD000800DC01DD017B
:101C40008831E6202000EF01EF0AE001E101080001
:101C5000973196278E31F6002300220886008701EF
:101C6000760881000130F6007608A2070130A30251
:101C70000030A43B230824040319422E9731BE27C9
:101C80000530080020154A2E9731DE2708009731CD
:101C9000DA2708003708F6007608F6000B30A03E79
:101CA000860001308700413F8A00403F0A008E31A4
:101CB000F700F8017808003A03195F2E472E7708DD
:101CC000013A0319472E033A0319442E013A031926
:101CD000442E073A0319472E472E08002000AF0074
:101CE0009731B7278E3172308931E7218E3120004C
:101CF0002F088931E7218E312000B0013008AA0079
:101D0000AB0129082B02031D872E28082A0203187D
:101D1000AD2E9731A8278E3173308931E7218E316E
:101D20008831A3208E312000AA003008AB00AC011E
:101D30002B082607AD002C08273DAE002D08860095
:101D40002E0887002A0881009731B1278E31013093
:101D50002000AA002A08B0077E2E8731FD27200028
:101D60003008AA00AB012A08A6002B08A70008002B
:101D700088312B208E310318C72EEB2E9731C627C2
:101D800008009731CA2708009731D227080023009E
:101D90003A08F6007608F6001130A03E86000130C1
:101DA0008700413F8A00403F0A008E31F700F8016A
:101DB0007808003A0319DD2EC42E7708013A03197A
:101DC000C42E033A0319BE2E013A0319C12E073A55
:101DD0000319C42EC42E2300A0110230A03E860099
:101DE00001308700403F84008501810A0008973157
:101DF000EA278E3101302300A3020030A43B2308E0
:101E00002404031D052F06300800033008002000BD
:101E1000AF00883190208F312000AC002C08AE003C
:101E20002E0A031D152F003008002B080139AC00C5
:101E30002C08AB0007302F0203183A2F2B08031988
:101E40002D2F0130AC002F0A262FAC35890B252F02
:101E50002C08AD002D08AE04472F0130AC002F0A2E
:101E6000322FAC35890B312F2C08FF3AAD002D08ED
:101E7000AE05472F07302F06031D472F2B080319E8
:101E8000462F7F30AC002C08AE00472FAE012E0845
:101E9000AC002C08A60080308931CC218F31200085
:101EA000260827040319132F013008002000AC0175
:101EB000A71F612FA609A709A60A0319A70AAC0143
:101EC000AC0AA91F6C2FA809A909A80A0319A90A15
:101ED0000130AA002A08AC06AD01AE01260827048D
:101EE00003199B2FAB01AB0AA71B802F0130A6352E
:101EF000A70D890B772F0130AA002A08AB07742F92
:101F00000130AD35AE0D890B812F27082902031D45
:101F10008B2F26082802031C922F2608A8022708C8
:101F2000A93B2D140130A736A60C890B932F013045
:101F3000AB02031D802F2C080319A32FAD09AE0996
:101F4000AD0A0319AE0A2E08A7002D08A600080046
:101F500020005C08013EA60000305D3DA700210086
:101F60006408013E2000A80000302100653D2000EB
:101F7000A9006008013EAA000030613DAB005E0888
:101F8000013EAC0000305F3DAD000030B1000030DC
:101F9000B0000030AF000030AE002608A5002508D4
:101FA000AE002808A5002508AF002A08A5002508CE
:101FB000B0002C08A5002508B100B201B3012E30F5
:101FC000A0000030A100893199218F312000210823
:101FD0003302031DED2F20083202031808002300EE
:101FE0009E1CEF2F200032082E3E8600870101083C
:101FF00023009A0001302000B2070030B33DDF2FEC
:10200000EF3417343334083416340834B8340E340B
:1020100028340E34F4341734E9340B34C63417340E
:10202000CA341734CE341734D2341734D634173474
:10203000DA341734DE3417340F34083493340B3465
:1020400041346C346534783461346E3464347234C1
:10205000613420344634793466346634653400346F
:102060004E346F3465346C346C346534203443340E
:10207000723461346E34653400344A3475347334E8
:10208000743469346E3420344334683461346E34CB
:1020900000344A3465346634663420344734653459
:1020A000693473347334003474346F346734673490
:0620B0006C3465340034BD
:102F080008000800080001340130080089316B21ED
:102F18000800240096140800240016150800240050
:102F280096150800240011080800200091150800D3
:102F380020009111080020001111080097319F27E7
:102F480008002400961408009731A52708002400DB
:102F5800110808002400961508009731E627080094
:102F68002400161408009731B427080023001D1206
:102F78001D1608002400961216160800240096163E
:102F88001616080097318D270130080097318D27D4
:102F98000230080097318D270130080097319027BB
:102FA800003008009731BE27053008009731C22746
:102FB8000A3008009731C22709300800183021006C
:102FC800970008002400961616160800F6007608E2
:102FD80024009100080023002010AA010E300800E8
:102FE8002300A01197319327043008002000A00087
:082FF8002008240091000800EC
:020000040001F9
:08000E00ECFFF7FFFFFFFFFF0D
:00000001FF
