:020000040000FA
:1000000080314728053008007E1480312100101E01
:1000100010282000101E10289731212780314528F4
:100020000B1F45282100111E1F282000111E1F280C
:1000300021006F088A006E080A00803145282100DF
:10004000911E2C282000911E2C2822006F088A0067
:100050006E080A00803145282100111D3928200032
:10006000111D392821006B088A006A080A008031B6
:1000700045282100911D45282000911D452821007B
:1000800069088A0068080A0080317E100900803102
:1000900049288731FF278031EF008B30840097306B
:1000A000850060308600013087000830973139279D
:1000B0008031F001F101F201F301F401F5015C304E
:1000C0008400003085001230973133278031E030D2
:1000D0008400003085000C309731332780312200B6
:1000E000E801E901EA01EB01EC01ED01A030840037
:1000F000013085003530973133278031203084003E
:10010000023085004430973133277E1020008D3136
:10011000432D2000C501C601C701C801C101C201AC
:10012000C301C4010530240061020318992800307E
:10013000080021306102031863296108031963294B
:100140002000CD01CE01A8280130CD070030CE3DE2
:100150004E08803AAF0080302F02031DB3282400E0
:10016000610820004D020318FE2820004D08203EA3
:100170008600023087000B300102031CA4284D08C2
:10018000303E8600023087000B300102031CA42899
:100190004D08403E8600023087000B300102031CF0
:1001A000A4284D08503E8600023087000B30010223
:1001B000031CA4284D08203E860002308700010859
:1001C000AF002F08C5004D08303E86000230870082
:1001D0000108AF002F08C6004D08403E86000230DF
:1001E00087000108AF002F08C7004D08503E860069
:1001F000023087000108AF002F08C8002000450822
:1002000003199728460803199728470803199728C0
:1002100048080319972824006108FF3E2000CD00FC
:10022000FF3003180030CE001929FF30CD07FF3012
:10023000CE3DCE1B63294D08203E8600023087004C
:100240000B300102031C15294D08303E8600023098
:1002500087000B300102031C15294D08403E860023
:10026000023087000B300102031C15294D08503E57
:100270008600023087000B300102031C15294D084F
:10028000203E8600023087000108AF002F08C10021
:100290004D08303E8600023087000108AF002F086D
:1002A000C2004D08403E8600023087000108AF00C2
:1002B0002F08C3004D08503E860002308700010819
:1002C000AF002F08C400200045084607A600A7017C
:1002D000A70D46084502A000A101031CA10364303C
:1002E000A2000030A300893136218031200021088E
:1002F000A9002008A8008E3172268031200027082E
:10030000B2002608B10047084807A600A701A70DBC
:1003100048084702A000A101031CA1036430A20009
:100320000030A30089313621803120002108A90046
:100330002008A8008E317226803120002708B400E2
:100340002608B30041084207A600A701A70D4208EE
:100350004102A000A101031CA1036430A2000030EF
:10036000A30089313621803120002108A90020080E
:10037000A8008E317226803120002708B60026089A
:10038000B50043084407A600A701A70D440843028F
:10039000A000A101031CA1036430A2000030A3004F
:1003A00089313621803120002108A9002008A800C9
:1003B0008E317226803120002708B8002608B70049
:1003C00031083502C9003208363BCA00330837020B
:1003D000CB003408383BCC004908E8074A08E93D1F
:1003E0004B08E6074C08E73D6908803AAF008030CB
:1003F0002F02031DFD2932306802031C042A01303C
:100400002000E4000030142A20006908803AAF0080
:100410007F302F02031D0E2ACF3068020318162AE0
:10042000FF302000E400FF30E500192A2000E4013D
:10043000E5016708803AAF0080302F02031D222AB1
:1004400032306602031C292A01302000E20000300D
:10045000392A20006708803AAF007F302F02031D41
:10046000332ACF30660203183B2AFF302000E20017
:10047000FF30E3003E2A2000E201E3016408650446
:10048000031DE92A62086304031DE92A4A08803A29
:10049000AF0080302F02031D4F2A0130490203189C
:1004A0005E2A20004909AF004A09B000AF0A0319CB
:1004B000B00A2F08B9003008BA00632A20004A08A1
:1004C000BA004908B9003A08803AAF0080302F02DC
:1004D000031D6C2A143039020318972820004C0899
:1004E000803AAF0080302F02031D782A01304B0282
:1004F0000318872A20004B09AF004C09B000AF0A4F
:100500000319B00A2F08BB003008BC008C2A200059
:100510004C08BC004B08BB003C08803AAF00803060
:100520002F02031D952A14303B0203189728200040
:1005300049084A04031DA62A4B084C04031DA62A99
:1005400001302100E6070030E73DB32A49084A049C
:10055000031DAE2A4B084C040319B32A01302100B5
:10056000E4070030E53D21006708803A2000AF0035
:1005700080302F02031DBF2A0A3021006602031CAF
:10058000972821006508803A2000AF0080302F02B4
:10059000031DCD2A023021006402031C972820008D
:1005A00049084A04031DDA2A4B084C04031DDA2AC1
:1005B0000130E32A49084A040319E72A4B084C048E
:1005C0000319E72A02302100E2000030E300013085
:1005D00008004A08803AAF0080302F02031DF22A3B
:1005E000013049020318012B20004909AF004A09D4
:1005F000B000AF0A0319B00A2F08BD003008BE00D2
:10060000062B20004A08BE004908BD003E08803A7B
:10061000AF0080302F02031D0F2B14303D02031852
:10062000972820004C08803AAF0080302F02031D2D
:100630001B2B01304B0203182A2B20004B09AF0063
:100640004C09B000AF0A0319B00A2F08BF003008E8
:10065000C0002F2B20004C08C0004B08BF004008F2
:10066000803AAF0080302F02031D382B14303F0238
:1006700003189728200049084A04031D482B4B08FB
:100680004C04031D482B01302100E6070030E73DF4
:1006900021006708803A2000AF0080302F02031D40
:1006A000542B0A3021006602031C97282000E40125
:1006B000E501E201E301E801E901E601E70197282C
:1006C000210062036304031D6C2B05302200EC0043
:1006D0000030ED0001300800023062066304031DA3
:1006E000782B06302200EC000030ED0001300800CD
:1006F0002000640A031D852B650A031D852B6208F3
:100700006304031D852B0330A42B64036504031DC0
:100710008F2B62086304031D8F2B0430A42B640805
:100720006504031D992B62036304031D992B02309A
:10073000A42B64086504031DA92B620A031DA92BC1
:10074000630A031DA92B01302200EC000030ED00EC
:10075000EF2C640A031DFA2B650A031DFA2B6203B2
:100760006304031DFA2B6908803AA0008030200240
:10077000031DBC2B013068020318CB2B2000680935
:10078000A0006909A100A00A0319A10A2008A2007B
:100790002108A300D02B20006908A3006808A2004C
:1007A0006708803AA00080302002031DD92B013059
:1007B00066020318E82B20006609A0006709A10063
:1007C000A00A0319A10A2008A4002108A500ED2B06
:1007D00020006708A5006608A4002508803AA0004C
:1007E0002308803A2002031DF72B22082402031C51
:1007F000832B972B64036504031D4B2C620A031D96
:100800004B2C630A031D4B2C6908803AA0008030F2
:100810002002031D0D2C0130680203181C2C20003F
:100820006809A0006909A100A00A0319A10A20080B
:10083000A6002108A700212C20006908A70068084D
:10084000A6006708803AA00080302002031D2A2CF1
:10085000013066020318392C20006609A0006709E0
:10086000A100A00A0319A10A2008A8002108A900D4
:100870003E2C20006708A9006608A8002908803AD5
:10088000A0002708803A2002031D482C26082802D1
:10089000031C8D2BA32B640A031D9E2C650A031DCC
:1008A0009E2C620A031D9E2C630A031D9E2C690860
:1008B000803AA00080302002031D602C01306802C5
:1008C00003186F2C20006809A0006909A100A00A84
:1008D0000319A10A2008AA002108AB00742C2000EB
:1008E0006908AB006808AA006708803AA000803059
:1008F0002002031D7D2C0130660203188C2C200081
:100900006609A0006709A100A00A0319A10A20082E
:10091000AC002108AD00912C20006708AD006608EE
:10092000AC002D08803AA0002B08803A2002031D5D
:100930009B2C2A082C02031C832BA32B6403650425
:10094000031DED2C62036304031DED2C6908803A3E
:10095000A00080302002031DAF2C01306802031874
:10096000BE2C20006809A0006909A100A00A031993
:10097000A10A2008AE002108AF00C32C200069089E
:10098000AF006808AE006708803AA00080302002FF
:10099000031DCC2C013066020318DB2C20006609F5
:1009A000A0006709A100A00A0319A10A2008B0004D
:1009B0002108B100E02C20006708B1006608B000F3
:1009C0003108803AA0002F08803A2002031DEA2C4B
:1009D0002E083002031C8D2B972B003008000130AD
:1009E00008009731D227843192308931AC2184318B
:1009F0002000B0003008B100AB3031060319062DDD
:100A00009C3031060319062D00300800AB01073079
:100A10008E3123268431DB302000B0003008A60060
:100A200081308831FF208431F6302000B00030085A
:100A3000A60083308831FF20843187302000B00049
:100A40003008A6008E308831FF2084312000A601B6
:100A50009D308831FF2084312000A6019E308831EE
:100A6000FF20843160302000B0003008A6008D30B7
:100A70008831FF20843100308A3192228431023063
:100A80008A31BB228431013089318E21843100309A
:100A900088318B208431003A0319042D323088319B
:100AA00078208431003A0319042DFF302000AA0079
:100AB000FF30AB008A316B228431003A0319042DD8
:100AC00000302000AA00AB008A3144228431003A71
:100AD0000319042D11302000B0003008A6008C301E
:100AE0008831FF2084312000260827040319042DB3
:100AF000A601A60A90308831FF2084312000260804
:100B000027040319042DA6019F308831FF2084316A
:100B10002000260827040319042D2830883152208C
:100B20008431003A0319042D1E3088316520843148
:100B3000003A0319042D40302000B0003008A60010
:100B4000A2308831FF2084312000260827040319B1
:100B5000042D02308B319D238431003A0319042D7A
:100B600000308B31CF238431003A0319042D01303A
:100B70008A311D228431003A0319042D2000A60178
:100B8000A4308831FF20843120002608270403196F
:100B9000042DA601A5308831FF20843120002608CD
:100BA00027040319042DA601A7308831FF208431C2
:100BB0002000260827040319042DA601A930883136
:100BC000FF2084312000260827040319042DC93092
:100BD000B0003008A600A6308831FF208431200004
:100BE000260827040319042DA601AA308831FF2006
:100BF00084312000260827040319042D00308B318E
:100C00000F238431003A0319042D0130080020001D
:100C1000D601D70188313F208631003A0319162EBC
:100C20009731C92786314139031DCB2E2000CF01D2
:100C3000D0010800AE308931AC2186312000D100CE
:100C40005108D80058080319CB2E11305802031848
:100C50002D2E2030A6000130302EA030A60000300E
:100C6000A7005808D100D201D135D20DD135D20D0F
:100C70005108A8005208A900FC308D318A25863120
:100C800020002708D7002608D600560A031D502E3C
:100C9000570A031D502EFF30CF000030D00008004F
:100CA0005708803AD10080305102031D592E04307C
:100CB0005602031CCB2E2000D901DA015A08803AD3
:100CC000D1005708803A5102031D682E5608590278
:100CD0000318BF2E20005908203E860001308700EF
:100CE0000108D10024006008203E86000230870001
:100CF0002000510881005908013E203E8600013045
:100D000087000108D10024006008303E86000230D0
:100D100087002000510881005908023E203E8600CD
:100D2000013087000108D10024006008403E8600A1
:100D3000023087002000510881005908033E203E00
:100D40008600013087000108D10024006008503E71
:100D50008600023087002000510881000130D10058
:100D600051082400E00701302000D1005108240080
:100D7000E10704302000D9070030DA3D5E2E8031D3
:100D800089208631003A0319C82E833160238631C9
:100D90002400E001E10105302000D100DD30890BA5
:100DA000CF2ED10BCF2E0032AF308931AC2186311E
:100DB0002000D1005108D50055181A2E053020000A
:100DC000D100DD30890BE22ED10BE22E00328331CF
:100DD0006023863122006D082000D40022006C08B8
:100DE0002000D3008831B52020005408D0005308DB
:100DF000CF0008001730893170218631200020088B
:100E0000AC002108AD000630AD36AC0C890B042FC8
:100E10002C08AE002E08EC006C08AC00AD012C08CC
:100E2000AF002D08B0003008803AAC0080302C02B2
:100E3000031D1C2FE6302F02031C2A2F2000300830
:100E4000803AAC0080302C02031D282FF0302F0296
:100E5000031CE72F20003008803AAC0080302C02C1
:100E6000031D342FC8302F02031C602F20003008D0
:100E7000803AAC0080302C02031D402FD3302F026B
:100E80000318602F01302000DE070030DF3D5F08CF
:100E9000803AAC0080302C02083003195E02031C3B
:100EA000562F07302000DE000030DF002130200008
:100EB000AC007630890B5A2FAC0B5A2F0000E72F6D
:100EC00020003008803AAC0080302C02031D6A2FCD
:100ED000B4302F02031C8D2F20003008803AAC0064
:100EE00080302C02031D762FBF302F0203188D2F68
:100EF0002000ED01FF30E007FF30E13DE11F842FCE
:100F00000330E0000030E1006035603E86000130D3
:100F10008700403FA500413FE42F20003008803A81
:100F2000AC0080302C02031D972F96302F02031C3B
:100F3000AF2F20003008803AAC0080302C02031D17
:100F4000A32FA1302F020318AF2FFF302000DE07A0
:100F5000FF30DF3DDF1F562FDE01DF01562F20005F
:100F60003008803AAC0080302C02031DB92F1430B9
:100F70002F02031CE72F20003008803AAC0080309D
:100F80002C02031DC52F18302F020318E72F200055
:100F9000ED010130E0070030E13D6108803AAC002E
:100FA00080302C02031DD62F04306002031CDB2F7F
:100FB0002000E001E10120006035603E8600013044
:100FC0008700403FA500413FA6008C31352420001A
:100FD000EC0108002000A20022000E1020002208D0
:100FE00088311020873122000E1411302000A1001A
:100FF0003A30890BF92FA10BF92F000008000134BA
:10100000013008002000AB01AB0A00308E312326EE
:101010008831003A031D0E28003008000130080016
:101020002000A00024009D13200020082400990027
:1010300024001C181D286400182819080800200026
:101040008E1D292801302100E0000030E100013030
:1010500008002100E001E10100300800FE30873186
:10106000EA27883111302000A3003A30890B362856
:10107000A30B3628000051308731EA270800AF3033
:101080008931AC2188312000A9002908AA0001304B
:10109000A9002908AA052A03031D502801300800C9
:1010A000003008002000AB002B08AA002A08A60088
:1010B000A0308831FF208831200026082704031D36
:1010C000632800300800013008002000AB002B0826
:1010D000AA002A08A600A1308831FF20883120000C
:1010E00026082704031D7628003008000130080078
:1010F0002000AB002B08AA002A08A6008B308831FC
:10110000FF208831200026082704031D892800308D
:101110000800013008002000AB002B08AA002A08B4
:10112000A60089308831FF20883120002608270456
:10113000031D9C2800300800013008002300190816
:10114000F6007208C53E86000130870076088100EF
:101150000130F6007608F207083072020318F20137
:101160000130F6007608F00708002400E001E101F4
:101170002000E801E901E601E701E401E501E201FF
:10118000E3012100E601E701E401E501E201E301F9
:101190002200EC01ED01080020002108A400200835
:1011A000A300200884002108850012000319DD280F
:1011B0000130A0070030A13DD12823082002A00063
:1011C0002408213BA100080097317B2788318C310E
:1011D000B924883197317327883197310F278831A7
:1011E00097314D2788319731E727883197316B2721
:1011F00088319731832788318C317624080020008C
:10120000A9009631DE268831723089311A21883161
:101210002000290889311A218831200026088931C7
:101220001A2188319631E42601302000A6000030D2
:10123000A70008002000A300230897312D2789313B
:101240002000A401A5012400161B23292000250845
:10125000A2002408A100A40A0319A50A0030220252
:101260000530031921020318080026292000A401D3
:10127000A501201C3F292208A4072308A53D013011
:10128000A235A30D890B40290130A136A00C890B92
:10129000452920082104031D39292508A100240817
:1012A000A0000800083020006E0203186D297308A2
:1012B000CD3E860001308700010823009A000130EE
:1012C000F6007608F307083073020318F3010130C3
:1012D000F60076082000EE07080021001112080031
:1012E0002000A3002308A200A20DA20D21001D08CA
:1012F000200022060339220621009D001D14210032
:101300009D1421009D1C8629640081291C08200051
:10131000A10021001B082000A00008002000AB0055
:101320008F308931AC2189312000AA002A08AC0015
:101330000330AA002A08AB05FC30AA002A08AC0535
:101340002B08AA002A08AC042C08AA002A08A60028
:101350008F308831FF2008002000A7009631DE265C
:101360008931723089311A21893120002708893169
:101370001A2189319631CF268931733089311A216A
:1013800089319731DC2789312000A6002608A80082
:101390009631D82689319631E426200028080800A5
:1013A0009631C32689312300A01DE02997315B27A0
:1013B0008931031CE0290F30F90079082300A900C6
:1013C00023002908F900FA01F935FA0D00307907F0
:1013D000840090307A3D8500013F8A00003F0A007A
:1013E0008931FB007B082300A90008002000AB0026
:1013F000AB308931AC2189312000AA002A08AC0029
:101400000130AA002A08AB05FE30AA002A08AC0564
:101410002B08AA002A08AC042C08AA002A08A60057
:10142000AB308831FF208931200026082704031DB6
:101430001B2A00300800013008002000AB00A33058
:101440008931AC218A312000AA002A08AC0007307B
:10145000AA002A08AB05F830AA002A08AC052B0818
:10146000AA002A08AC042C08AA002A08A600A33067
:101470008831FF208A31200026082704031D422AD4
:10148000003008000130080020002A08AC002C08B9
:10149000AD002B08AC002C08AE002D08AC002C08C9
:1014A000A60086308831FF208A31200026082704D4
:1014B000031D5C2A003008002E08AC002C08A60092
:1014C00087308831FF208A3120002608270403193D
:1014D0005A2A0130080020002A08AC002C08AD0070
:1014E0002B08AC002C08AE002D08AC002C08A60080
:1014F00084308831FF208A31200026082704031D0C
:10150000832A003008002E08AC002C08A600853085
:101510008831FF208A312000260827040319812AF8
:10152000013008002000AD008F308931AC218A31B4
:101530002000AA002A08AC000330AA002A08AD0542
:101540002D08AA000530AA35FF3E031DA32A2A351F
:10155000AB002B08AD003F30AA002A08AC052D08CF
:10156000AA002A08AC042C08AA002A08A6008F307A
:101570008831FF2008002000AD008F308931AC2178
:101580008A312000AA002A08AC000330AA002A08E9
:10159000AD052D08AA000130AA35FF3E031DCC2A57
:1015A0002A35AB002B08AD00F330AA002A08AC05A1
:1015B0002D08AA002A08AC042C08AA002A08A600B4
:1015C0008F308831FF2008002300A0110230F60080
:1015D0007608AA00F12A9631FB2608009631FF26EC
:1015E00008003908F6007608F6000F30A03E8600A5
:1015F00001308700413F8A00403F0A008A31F700EE
:10160000F8017808003A0319062BEE2A7708023A07
:101610000319EB2A013A0319EB2AEE2A08002000ED
:10162000AC00AB308931AC218B312000AA002A08F4
:10163000AB000130AA002A08AC052C35AA002A0804
:10164000AC00FD30AA002A08AB052C08AA002A0825
:10165000AB042B08AA002A08A600AB308831FF2073
:101660008B31200026082704031D382B003008008A
:101670000130080023002015472B9631FB26080077
:101680009631C026033008009631FF26080037083F
:10169000F6007608F6000B30A03E86000130870089
:1016A000413F8A00403F0A008B31F700F80178087B
:1016B000003A03195C2B442B7708013A0319442B99
:1016C000033A03193D2B013A03193D2B073A03193D
:1016D000402B442B08002000AD0090308931AC2114
:1016E0008B312000AA002A08AC000330AA002A0887
:1016F000AD052D08AA000330AA35FF3E031D7C2B43
:101700002A35AB002B08AD00CF30AA002A08AC0563
:101710002D08AA002A08AC042C08AA002A08A60052
:1017200090308831FF208B31200026082704031DCC
:101730009B2B00300800013008002000AD00A330D2
:101740008931AC218B312000AA002A08AC0003307B
:10175000AA002A08AD052D08AA000430AA35FF3ECC
:10176000031DAE2B2A35AB002B08AD009F30AA001D
:101770002A08AC052D08AA002A08AC042C08AA00E7
:101780002A08A600A3308831FF208B3120002608CC
:101790002704031DCD2B0030080001300800200075
:1017A000AD00A3308931AC218B312000AA002A087A
:1017B000AC000330AA002A08AD052D08AA000230AB
:1017C000AA35FF3E031DE02B2A35AB002B08AD00E8
:1017D000E730AA002A08AC052D08AA002A08AC04A4
:1017E0002C08AA002A08A600A3308831FF208B31DC
:1017F000200026082704031DFF2B003008000130BD
:1018000008007208BD3E8600013087008101230078
:101810001D1D152C7208BD3E860001308700811405
:101820005A088A0059080A008C3123009D1C232C79
:101830007208BD3E860001308700011558088A00F5
:1018400057080A008C317208BD3E860001308700BF
:1018500001080319322C230056088A0055080A0093
:101860008C31080088319E200800FE308731EA273D
:101870008C3111302000A7003A30890B3D2CA70B8A
:101880003D2C000051308731EA278C31200026089A
:10189000A1002508A0008831CC208C31200021082F
:1018A000A9002008A800AA01AB012B08803AA700D4
:1018B0002908803A2702031D5F2C28082A020318F2
:1018C000722C200025082A07840026082B3D85005D
:1018D00000088731EA278C3101302000AA07003048
:1018E000AB3D552C2000ED01ED0A080021009112BE
:1018F00001302000A0000C30A1009731AE278C31C0
:101900002100111252302000A0000930A1009731AF
:10191000B7278C310A3023009F0080309D0024308F
:101920009E000C309B009C01AE302000A0001630C1
:10193000A10097319C278C31E7302000A0001630A1
:10194000A1009731A5278C31B1302000A0001630BE
:10195000A100973193272000EA01F401F301083038
:10196000A2002208EE00F201F101F001210091161F
:10197000080022008C018D018E01333021008C0083
:10198000B0308D009A308E00F43023008E0020306D
:101990008D0001308C0024008D018C018E0125000A
:1019A0008C018D018E01373026008C00F0308D00C7
:1019B000FF308E002700131212161112AF302000D4
:1019C000A0001630A1009731C027210010160C305E
:1019D0003C009E000F30A00019303D0094001A30EA
:1019E0009E0018309F001B30A2001430A500043068
:1019F0003C00A1000E309D0008009631BD268C31C0
:101A0000F600230022088600870176088100013055
:101A1000F6007608A2070130A3020030A43B230899
:101A200024040319172D9631EB26053008002015E4
:101A30001F2D97310B27080097310727080037081B
:101A4000F6007608F6000B30A03E860001308700D5
:101A5000413F8A00403F0A008D31F700F8017808C5
:101A6000003A0319342D1C2D7708013A03191C2D57
:101A7000033A0319192D013A0319192D073A0319CD
:101A80001C2D1C2D08008831E4208D318B170B177D
:101A900088312E208D3188311F208D31003A031975
:101AA000582D8431F1248D3100308F311C278D3138
:101AB00001302000DC000030DD008E31C4268D3185
:101AC00020005C085D0403195D2D88311F208D31D5
:101AD000003A03195D2D20006F03031D7D2D603535
:101AE000603E860001308700403FA500413FA600D0
:101AF0008C3135248D312000EF018631FA268D316D
:101B000088313F208D31003A03195D2D8F318027B8
:101B10008D315D2D2000AF009631DE268D31723083
:101B200089311A218D3120002F0889311A218D31F8
:101B30002000B0013008AA00AB0129082B02031DC8
:101B4000A32D28082A020318C92D9631CF268D31DE
:101B5000733089311A218D319731DC278D31200086
:101B6000AA003008AB00AC012B082607AD002C08FA
:101B7000273DAE002D0886002E0887002A08810028
:101B80009631D8268D3101302000AA002A08B007EE
:101B90009A2D9631E42620003008AA00AB012A08CD
:101BA000A6002B08A700080097315B278D3103188A
:101BB000E32D072E9631F32608009631F72608000C
:101BC0009631FF26080023003A08F6007608F60052
:101BD0001130A03E860001308700413F8A00403F1F
:101BE0000A008D31F700F8017808003A0319F92D41
:101BF000E02D7708013A0319E02D033A0319DA2D95
:101C0000013A0319DD2D073A0319E02DE02D2300D9
:101C1000A0110230A03E860001308700403F8400C2
:101C20008501810A0008973117278D310130230083
:101C3000A3020030A43B23082404031D212E0630F8
:101C40000800033008002000AF009731C9278E310B
:101C50002000AC002C08AE002E0A031D312E0030EF
:101C600008002B080139AC002C08AB0007302F020C
:101C70000318562E2B080319492E0130AC002F0AE9
:101C8000422EAC35890B412E2C08AD002D08AE0438
:101C9000632E0130AC002F0A4E2EAC35890B4D2E31
:101CA0002C08FF3AAD002D08AE05632E07302F0635
:101CB000031D632E2B080319622E7F30AC002C0805
:101CC000AE00632EAE012E08AC002C08A6008030BA
:101CD0008831FF208E3120002608270403192F2E7B
:101CE000013008002000AC01A71F7D2EA609A7091E
:101CF000A60A0319A70AAC01AC0AA91F882EA809D5
:101D0000A909A80A0319A90A0130AA002A08AC06E1
:101D1000AD01AE01260827040319B72EAB01AB0AAB
:101D2000A71B9C2E0130A635A70D890B932E0130E1
:101D3000AA002A08AB07902E0130AD35AE0D890BF5
:101D40009D2E27082902031DA72E26082802031C02
:101D5000AE2E2608A8022708A93B2D140130A7366D
:101D6000A60C890BAF2E0130AB02031D9C2E2C0854
:101D70000319BF2EAD09AE09AD0A0319AE0A2E082C
:101D8000A7002D08A600080020005C08013EA60060
:101D900000305D3DA70021006008013E2000A80042
:101DA00000302100613D2000A9006008013EAA002A
:101DB0000030613DAB005E08013EAC0000305F3D8D
:101DC000AD000030B1000030B0000030AF00003096
:101DD000AE002608A5002508AE002808A5002508A5
:101DE000AF002A08A5002508B0002C08A50025088A
:101DF000B100B201B3012E30A0000030A100883143
:101E0000CC208E31200021083302031D092F200829
:101E100032020318080023009E1C0B2F20003208FA
:101E20002E3E86008701010823009A000130200021
:101E3000B2070030B33DFB2E2000B1008831B52041
:101E40008F31FF302000B0003008A6008330883189
:101E5000FF208F312000260827040319322F342F4A
:101E600001304D2F003008008930B0003008A60046
:101E70008E308831FF208F31200026082704031977
:101E8000322F03308B316B238F31003A0319322FFD
:101E900020003108031D302F00308B310F238F318C
:101EA000003A0319322F01308931F6218F31003A7F
:101EB0000319322F883102208F31003A0319322F53
:101EC0002000AB01AB0A03308E3123268F31003A5C
:101ED0000319322F2000AB01AB0A02308E312326CA
:101EE0008F31003A0319322F2000AB01AB0A0630C4
:101EF0008E3123268F31003A0319322F013008002A
:101F0000E02F0130DE070030DF3D5F08803ADB0064
:101F100080305B02083003195E02031C942F0730E7
:101F20002000DE000030DF0021302000DB007630B2
:101F3000890B982FDB0B982F0000FD2FFF30DE0759
:101F4000FF30DF3DDF1F942FDE01DF01942FED0115
:101F50000130E0070030E13D6108803ADB0080306D
:101F60005B02031DB52F04306002031CBA2F200052
:101F7000E001E10120006035603E8600013087000D
:101F8000403FA500413FA6008C3135248F31FD2F05
:101F9000ED01FF30E007FF30E13DE11FD32F0330BB
:101FA000E0000030E1006035603E860001308700CF
:101FB000403FA500413FA6008C3135248F31FD2FD5
:101FC000863107268F3120005008003A0319E92F87
:101FD000FD2F4F08013A0319A72F033A0319C82F01
:101FE000013A0319812F073A03199E2F013A031969
:101FF000FD2F033A0319FD2FFD2F2000ED010800EE
:102000001C3417346334173446341734D4340D3445
:10201000FD340C34273417343A340B34F33416348B
:10202000F7341634FB341634FF34163403341734C3
:10203000073417340B3417343F341734E4340A347C
:1020400041346C346534783461346E3464347234C1
:10205000613420344634793466346634653400346F
:102060004E346F3465346C346C346534203443340E
:0A207000723461346E3465340034BC
:102D5C0008000800080088319E2008002400961402
:102D6C0008002400161508002400961508002400FD
:102D7C00110808002000911508002000911108008E
:102D8C002000111108009631C62608002400961464
:102D9C0008009631CC2608002400110808002400F5
:102DAC009615080097311327080024001614080004
:102DBC009631DB2608002400161508009631E12612
:102DCC00080023001D121D1608002400961216166A
:102DDC00080024009616161608009631B426013009
:102DEC0008009631B426023008009631B426013022
:102DFC0008009631B726003008009631EB260530D6
:102E0C0008009631EF260A3008009631EF2609307B
:102E1C00080018302100970008002400961616169A
:102E2C000800F6007608240091000800230020100A
:102E3C00AA010E3008002700131E08009731F32753
:102E4C0008002300A0119631BA2604300800200097
:102E5C00A0002008240091000800640080010131CA
:102E6C00890B342F0034FE0012001E00FE0B3A2F8B
:102E7C0000349631B02623002010AA010E30080031
:102E8C002300A01521359731172703300800803017
:102E9C0024009C0031309D009A0108002400140885
:102EAC0001392000A000200C08002400160E890C0B
:102EBC00890C0139F600760C08002300A0150314C8
:102ECC00210D9731172705300800013021009D0096
:102EDC009E019F019B019C0108006130320099000A
:102EEC009B019D019F019E010800320091019201FE
:102EFC0093019401950196010800FF3020009E007B
:102F0C009D01911004309F00080000349834303437
:102F1C009034203490340C34983420002108230051
:102F2C00D600200020082300D5000800200021082E
:102F3C002300DA00200020082300D900080020001C
:102F4C0021082300D800200020082300D700080007
:102F5C00200021082200EF00200020082200EE00B3
:102F6C000800200021082100EF002000200821008B
:102F7C00EE000800200021082100ED0020002008B0
:102F8C002100EC00080080308931AC212000A90020
:102F9C002908AA002A0808002400951A08009401A0
:102FAC002830950096010330920008009631D52602
:102FBC009731973154279731031CDF2F9631D22646
:102FCC0008008F30250093000130920032309100C0
:102FDC001F08FC3901389F00080021006C086D04A3
:102FEC000319FD2F6D088A006C080A009731270021
:102FFC00131208004A3475347334743469346E34E3
:10300C0020344334683461346E3400344A346534CB
:10301C00663466342034473465346934733473341D
:02302C0000346E
:020000040001F9
:08000E00ECFFF7FFFFFFFFFF0D
:00000001FF
