:020000040000FA
:0400000080312B28F8
:100008007E1480312100101E10282000101E102898
:1000180082316322803129280B1F29282100111DD4
:100028001E282000111D1E284A088A0049080A00B7
:10003800803129282100911D29282000911D292877
:1000480048088A0047080A0080317E10090080317C
:100058002D28F001F101F201F301F401F50120303E
:100068008400003085002D30823145228031A03057
:100078008400003085004430823145227E10200003
:100088008131132982312822803103185528782894
:1000980082318F22080082318B220800823183222C
:1000A800080020003A08F6007608F6001130203ED5
:1000B80086008701413F8A00403F0A008031F700EF
:1000C800F8017808003A03196A2852287708013A93
:1000D80003195228033A03194C28013A03194F28E7
:1000E800073A0319522852282000A0110230203E56
:1000F80086008701403F84008501810A000882311B
:100108006E22803101302000A3020030A43B230876
:100118002404031D912806300800033008008231AA
:10012800B1228031F6002000220886008701760877
:1001380081000130F6007608A2070130A3020030E2
:10014800A43B230824040319AD28823197220530E3
:1001580008002015B52882317722080082317B22D9
:1001680008003708F6007608F6000B30203E8600B7
:100178008701413F8A00403F0A008031F700F801BB
:100188007808003A0319C928B2287708013A0319F0
:10019800B228033A0319AF28013A0319AF28073ADE
:1001A8000319B228B228080022008C018D018E01A3
:1001B800113021008C00F0308D00DF308E00DC30F3
:1001C80023008E00F0308D0001308C0024008D015A
:1001D8008C018E0125008C018D018E01373026009F
:1001E8008C00F0308D00FF308E002700131212169D
:1001F8001112C2302000CD000230CE0082314B22D5
:100208002100101618303D00A00010303C00A0005E
:1002180019303D00A10011303C00A10008008131D7
:10022800F92181318B170B179B302000CD0002304C
:10023800CE0082314B22813121302000CF004F087F
:10024800D0005530CF004F08D100823105228131CE
:1002580082313022813103182C2982319F22813149
:100268002400161C392922008E16200050088231DD
:10027800512281315330890B3F2900002000510859
:1002880082315122813122000C15240016152C29A7
:100298002000201559298231872208008231AE2298
:1002A800033008008231832208003708F6007608F8
:1002B800F6000B30203E86008701413F8A00403F10
:1002C8000A008131F700F8017808003A03196D290E
:1002D80056297708013A03195629033A03194F2971
:1002E800013A03194F29073A0319522956290800D8
:1002F8002000A0110230F6007608AA008929823170
:10030800872208008231832208003908F60076081F
:10031800F6000F30203E86008701413F8A00403FAB
:100328000A008131F700F8017808003A03199D297D
:1003380086297708023A03198329013A0319832980
:10034800862908008231AB2281312000A01DB62900
:10035800823128228131031CB6290F30F90079082F
:100368002000A90020002908F900FA01F935FA0D42
:10037800CC307907840081307A3D8500013F8A00BE
:10038800003F0A008131FB007B082000A90008001B
:1003980069340234203402343734023446340034A9
:1003A800933400345D3402344C3401348F340234D5
:1003B8008B34023487340234833402347F34023479
:1003C8007B340234773402343E3402347C340134D2
:1003D8002000520853040319F62953088A005208CA
:1003E8000A00813127001312080082311822813156
:1003F8008031D820813182310F22813182317322BC
:1004080008002400951A08009401283095009601E8
:100418000330920008006230320099009B019D0170
:1004280003309F009E010800320091019201930160
:1004380094019501960108002000A0150314210DD0
:1004480082316E22053008002400160E890C890CB2
:100458000139F600760C0800240014080139200040
:10046800CD004D0C08002000A015213582316E22E8
:10047800033008008231C12220002010AA010E306A
:100488000800640080010131890B462A00342000ED
:100498004E08D3004D08D20008002000CE004E08B8
:1004A8008231572208002000CD004D082400910019
:1004B80008002000A0118231B4220430080027006F
:1004C800131E08008131EC21080020002010AA0129
:1004D8000E300800F6007608240091000800163057
:1004E80021009700080082319322093008008231E8
:1004F80093220A30080082319722053008008231A1
:10050800B722003008008231BA2201300800823157
:10051800BA22023008008231BA22013008002400D1
:1005280096161616080024009612161608002000C3
:10053800CC01CC0A08008231A2220800240016143B
:1005480008008231A82208002000111108002000AC
:1005580091110800200091150800240011080800D6
:100568002400961508002400161508002400961487
:0E0578000800053008000130080008000800E7
:020000040001F9
:08000E00ECFFF3FFFFFFFFFF11
:00000001FF
