:020000040000FA
:1000000080314728053008007E1480312100101E01
:1000100010282000101E10289631E4268031452833
:100020000B1F45282100111E1F282000111E1F280C
:1000300021006F088A006E080A00803145282100DF
:10004000911E2C282000911E2C2822006D088A0069
:100050006C080A00803145282100111D3928200034
:10006000111D392821006B088A006A080A008031B6
:1000700045282100911D45282000911D452821007B
:1000800069088A0068080A0080317E100900803102
:100090004928963171268031EF004E308400973028
:1000A0008500603086000130870008309631FC26DC
:1000B0008031F001F101F201F301F401F5015C304E
:1000C00084000030850012309631F6268031E03011
:1000D0008400003085000C309631F62680312200F5
:1000E000EE01EF01A0308400013085003A309631F6
:1000F000F62680312030840002308500443096316D
:10010000F6267E1020008D31362D2000C501C60157
:10011000C701C801C101C201C301C40105302400E7
:10012000610203189528003008002130610203188D
:100130005F29610803195F292000CD01CE01A428A1
:100140000130CD070030CE3D4E08803AAF00803000
:100150002F02031DAF282400610820004D02031860
:10016000FA2820004D08203E8600023087000B3020
:100170000102031CA0284D08303E86000230870093
:100180000B300102031CA0284D08403E86000230BF
:1001900087000B300102031CA0284D08503E86004A
:1001A000023087000B300102031CA0284D08203EBE
:1001B0008600023087000108AF002F08C5004D08F7
:1001C000303E8600023087000108AF002F08C600CD
:1001D0004D08403E8600023087000108AF002F081E
:1001E000C7004D08503E8600023087000108AF006E
:1001F0002F08C80020004508031993284608031952
:1002000093284708031993284808031993282400C2
:100210006108FF3E2000CD00FF3003180030CE0003
:100220001529FF30CD07FF30CE3DCE1B5F294D088D
:10023000203E8600023087000B300102031C11298A
:100240004D08303E8600023087000B300102031C4F
:1002500011294D08403E8600023087000B30010214
:10026000031C11294D08503E8600023087000B30D8
:100270000102031C11294D08203E86000230870030
:100280000108AF002F08C1004D08303E8600023043
:1002900087000108AF002F08C2004D08403E8600CD
:1002A000023087000108AF002F08C3004D08503E00
:1002B0008600023087000108AF002F08C40020002C
:1002C00045084607A600A701A70D46084502A0005D
:1002D000A101031CA1036430A2000030A3008931F6
:1002E0002721803120002108A9002008A8008E3194
:1002F0006526803120002708B2002608B100470893
:100300004807A600A701A70D48084702A000A101C1
:10031000031CA1036430A2000030A300893127210F
:10032000803120002108A9002008A8008E31652610
:10033000803120002708B4002608B3004108420796
:10034000A600A701A70D42084102A000A101031CBD
:10035000A1036430A2000030A3008931272180313D
:1003600020002108A9002008A8008E3165268031D0
:1003700020002708B6002608B50043084407A60059
:10038000A701A70D44084302A000A101031CA1037B
:100390006430A2000030A300893127218031200081
:1003A0002108A9002008A8008E3165268031200090
:1003B0002708B8002608B70031083502C9003208FE
:1003C000363BCA0033083702CB003408383BCC0038
:1003D0004908E8074A08E93D4B08E6074C08E73DAD
:1003E0006908803AAF0080302F02031DF9293230AE
:1003F0006802031C002A01302000E4000030102AAB
:1004000020006908803AAF007F302F02031D0A2ABE
:10041000CF3068020318122AFF302000E400FF30BA
:10042000E500152A2000E401E5016708803AAF00E5
:1004300080302F02031D1E2A32306602031C252A3B
:1004400001302000E2000030352A20006708803AA1
:10045000AF007F302F02031D2F2ACF306602031812
:10046000372AFF302000E200FF30E3003A2A200064
:10047000E201E30164086504031DE52A62086304E0
:10048000031DE52A4A08803AAF0080302F02031D81
:100490004B2A0130490203185A2A20004909AF00AB
:1004A0004A09B000AF0A0319B00A2F08B900300892
:1004B000BA005F2A20004A08BA004908B9003A0881
:1004C000803AAF0080302F02031D682A14303902B1
:1004D0000318932820004C08803AAF0080302F0288
:1004E000031D742A01304B020318832A20004B0994
:1004F000AF004C09B000AF0A0319B00A2F08BB00C7
:100500003008BC00882A20004C08BC004B08BB0007
:100510003C08803AAF0080302F02031D912A14302E
:100520003B0203189328200049084A04031DA22A0D
:100530004B084C04031DA22A01302100E6070030BD
:10054000E73DAF2A49084A04031DAA2A4B084C0478
:100550000319AF2A01302100E4070030E53D2100F6
:100560006708803A2000AF0080302F02031DBB2AAD
:100570000A3021006602031C932821006508803A96
:100580002000AF0080302F02031DC92A0230210055
:100590006402031C9328200049084A04031DD62A3C
:1005A0004B084C04031DD62A0130DF2A49084A04AF
:1005B0000319E32A4B084C040319E32A02302100F3
:1005C000E2000030E300013008004A08803AAF0042
:1005D00080302F02031DEE2A013049020318FD2A44
:1005E00020004909AF004A09B000AF0A0319B00A58
:1005F0002F08BD003008BE00022B20004A08BE00B4
:100600004908BD003E08803AAF0080302F02031D2C
:100610000B2B14303D020318932820004C08803A1D
:10062000AF0080302F02031D172B01304B0203183F
:10063000262B20004B09AF004C09B000AF0A03196C
:10064000B00A2F08BF003008C0002B2B20004C0838
:10065000C0004B08BF004008803AAF0080302F0236
:10066000031D342B14303F0203189328200049083F
:100670004A04031D442B4B084C04031D442B01303A
:100680002100E6070030E73D21006708803A20009E
:10069000AF0080302F02031D502B0A30210066026C
:1006A000031C93282000E401E501E201E301E801D5
:1006B000E901E601E7019328210062036304031DB9
:1006C000682B05302200EE000030EF0001300800FA
:1006D000023062066304031D742B06302200EE0014
:1006E0000030EF00013008002000640A031D812B58
:1006F000650A031D812B62086304031D812B0330EF
:10070000A02B64036504031D8B2B62086304031D87
:100710008B2B0430A02B64086504031D952B62030A
:100720006304031D952B0230A02B64086504031D90
:10073000A52B620A031DA52B630A031DA52B0130FF
:100740002200EE000030EF00EB2C640A031DF62BB4
:10075000650A031DF62B62036304031DF62B69086B
:10076000803AA00080302002031DB82B01306802BF
:100770000318C72B20006809A0006909A100A00A7E
:100780000319A10A2008A2002108A300CC2B2000F5
:100790006908A3006808A2006708803AA0008030BA
:1007A0002002031DD52B013066020318E42B200024
:1007B0006609A0006709A100A00A0319A10A200880
:1007C000A4002108A500E92B20006708A500660801
:1007D000A4002508803AA0002308803A2002031DC7
:1007E000F32B22082402031C7F2B932B6403650444
:1007F000031D472C620A031D472C630A031D472C67
:100800006908803AA00080302002031D092C0130C5
:1008100068020318182C20006809A0006909A100CB
:10082000A00A0319A10A2008A6002108A7001D2C70
:1008300020006908A7006808A6006708803AA000A1
:1008400080302002031D262C013066020318352C4F
:1008500020006609A0006709A100A00A0319A10AE7
:100860002008A8002108A9003A2C20006708A90048
:100870006608A8002908803AA0002708803A2002CC
:10088000031D442C26082802031C892B9F2B640A75
:10089000031D9A2C650A031D9A2C620A031D9A2CCB
:1008A000630A031D9A2C6908803AA0008030200258
:1008B000031D5C2C0130680203186B2C20006809B2
:1008C000A0006909A100A00A0319A10A2008AA0032
:1008D0002108AB00702C20006908AB006808AA0052
:1008E0006708803AA00080302002031D792C013077
:1008F00066020318882C20006609A0006709A10081
:10090000A00A0319A10A2008AC002108AD008D2C13
:1009100020006708AD006608AC002D08803AA000F2
:100920002B08803A2002031D972C2A082C02031C56
:100930007F2B9F2B64036504031DE92C6203630472
:10094000031DE92C6908803AA00080302002031DB5
:10095000AB2C013068020318BA2C20006809A000F3
:100960006909A100A00A0319A10A2008AE00210804
:10097000AF00BF2C20006908AF006808AE00670810
:10098000803AA00080302002031DC82C013066028E
:100990000318D72C20006609A0006709A100A00A4F
:1009A0000319A10A2008B0002108B100DC2C2000A6
:1009B0006708B1006608B0003108803AA0002F082F
:1009C000803A2002031DE62C2E083002031C892BDE
:1009D000932B0030080001300800973195278431AF
:1009E000923089319D2184312000B0003008B1005F
:1009F000AB3031060319022D9C3031060319022D4C
:100A000000300800AB0107308E3116268431DB3010
:100A10002000B0003008A60081308831F0208431F9
:100A2000F6302000B0003008A60083308831F02076
:100A3000843187302000B0003008A6008E30883125
:100A4000F02084312000A6019D308831F0208431CF
:100A50002000A6019E308831F020843160302000D3
:100A6000B0003008A6008D308831F020843100308D
:100A70008A318322843102308A31AC2284310130C0
:100A800089317F21843100308731ED278431003A6C
:100A90000319002D3230883139208431003A03198E
:100AA000002DFF302000AA00FF30AB008A315C220D
:100AB0008431003A0319002D00302000AA00AB0059
:100AC0008A3135228431003A0319002D113020007B
:100AD000B0003008A6008C308831F020843120002E
:100AE000260827040319002DA601A60A9030883194
:100AF000F02084312000260827040319002DA601C8
:100B00009F308831F0208431200026082704031903
:100B1000002D2830883113208431003A0319002D2C
:100B20001E30883126208431003A0319002D4030D0
:100B30002000B0003008A600A2308831F0208431B7
:100B40002000260827040319002D02308B318E2344
:100B50008431003A0319002D00308B31C0238431D9
:100B6000003A0319002D01308A310E228431003AF7
:100B70000319002D2000A601A4308831F020843113
:100B80002000260827040319002DA601A53088316E
:100B9000F02084312000260827040319002DA60127
:100BA000A7308831F020843120002608270403195B
:100BB000002DA601A9308831F020843120002608BC
:100BC00027040319002DC930B0003008A600A63054
:100BD0008831F02084312000260827040319002DD5
:100BE000A601AA308831F02084312000260827048D
:100BF0000319002D00308B3100238431003A031992
:100C0000002D013008001730893161218631200024
:100C10002008AC002108AD000630AD36AC0C890BC5
:100C20000D2E2C08AE002E08EC006C08AC00AD01B7
:100C30002C08AF002D08B0003008803AAC0080309E
:100C40002C02031D252EE6302F02031C372E200018
:100C50003008803AAC0080302C02031D312EF03079
:100C60002F020318372E88318F208631F72E20006F
:100C70003008803AAC0080302C02031D412EC83071
:100C80002F02031C672E20003008803AAC00803011
:100C90002C02031D4D2ED3302F020318672E8831EE
:100CA0008F20863101302000DE070030DF3D5F08F5
:100CB000803AAC0080302C02083003195E02031C1D
:100CC000F72E07302000DE000030DF00F72E200076
:100CD0003008803AAC0080302C02031D712EB430F5
:100CE0002F02031C972E20003008803AAC00803081
:100CF0002C02031D7D2EBF302F020318972E883142
:100D00008F2086312000ED01FF30E007FF30E13D0C
:100D1000E11F8E2E0330E0000030E1006035603EC0
:100D2000860001308700403FA500413FF42E20009F
:100D30003008803AAC0080302C02031DA12E963082
:100D40002F02031CBC2E20003008803AAC008030FB
:100D50002C02031DAD2EA1302F020318BC2E8831AA
:100D60008F208631FF302000DE07FF30DF3DDF1FA0
:100D7000F72EDE01DF01F72E20003008803AAC00AC
:100D800080302C02031DC62E14302F02031CF72EB8
:100D900020003008803AAC0080302C02031DD22E97
:100DA00018302F020318F72E88318F20863120004B
:100DB000ED010130E0070030E13D6108803AAC0010
:100DC00080302C02031DE62E04306002031CEB2E43
:100DD0002000E001E10120006035603E8600013026
:100DE0008700403FA500413FA6008C312824200009
:100DF000EC0108002000D601D7018831002086319F
:100E0000003A0319092F97318C2786314139031D88
:100E1000BE2F2000CF01D0010800AE3089319D21C6
:100E200086312000D1005108D80058080319BE2F80
:100E3000113058020318202F2030A6000130232F34
:100E4000A030A6000030A7005808D100D201D1354B
:100E5000D20DD135D20D5108A8005208A900FC309E
:100E60008D317D25863120002708D7002608D60041
:100E7000560A031D432F570A031D432FFF30CF008F
:100E80000030D00008005708803AD100803051026D
:100E9000031D4C2F04305602031CBE2F2000D90125
:100EA000DA015A08803AD1005708803A5102031DEE
:100EB0005B2F560859020318B22F20005908203E14
:100EC0008600013087000108D10024006008203E20
:100ED0008600023087002000510881005908013E39
:100EE000203E8600013087000108D1002400600800
:100EF000303E8600023087002000510881005908EA
:100F0000023E203E8600013087000108D100240007
:100F10006008403E860002308700200051088100B2
:100F20005908033E203E8600013087000108D100A9
:100F300024006008503E86000230870020005108DF
:100F400081000130D10051082400E0070130200069
:100F5000D10051082400E10704302000D9070030F7
:100F6000DA3D512F803185208631003A0319BB2F9D
:100F700083315C2386312400E001E101053020004B
:100F8000D100DD30890BC22FD10BC22F0032AF3020
:100F900089319D2186312000D1005108D500551896
:100FA0000D2F05302000D100DD30890BD52FD10B5E
:100FB000D52F003283315C23863122006F08200058
:100FC000D40022006E082000D3008831A620200023
:100FD0005408D0005308CF0008002000AB002B08B5
:100FE000AA002A08A60089308831F0208731200025
:100FF00026082704031DFE2F0030080001300800DA
:10100000AF3089319D2188312000A9002908AA002C
:101010000130A9002908AA052A03031D112801305F
:101020000800003008002000AB002B08AA002A08A6
:10103000A600A0308831F02088312000260827043F
:10104000031D242800300800013008002000AB00F8
:101050002B08AA002A08A600A1308831F020883188
:10106000200026082704031D37280030080001301F
:1010700008002000AB002B08AA002A08A6008B302D
:101080008831F0208831200026082704031D4A28D3
:1010900000300800013008002000A20022000E10DD
:1010A000200022089731D127883122000E141130F8
:1010B0002000A1003A30890B5B28A10B5B280000BF
:1010C000080023001908F6007208C53E86000130AA
:1010D0008700760881000130F6007608F2070830B4
:1010E00072020318F2010130F6007608F0070800DA
:1010F000FF302000A0050330A1052500131E86281F
:1011000006302000A035A10D890B8228200021087F
:101110002500920020002008250091000800503092
:101120002000A0000030A1008831782088310C30E8
:101130003D00A60011302000A2003A30890B9E2805
:10114000A20B9E2800003D00A60108002400E0013B
:10115000E1012000E801E901E601E701E401E50120
:10116000E201E3012100E601E701E401E501E2011A
:10117000E3012200EE01EF01080020002108A40095
:101180002008A3002008840021088500120003190C
:10119000CE280130A0070030A13DC228230820023C
:1011A000A0002408213BA100080097313E27883188
:1011B0008C31AC2488319731362788319631D2264C
:1011C00088319731102788319731AA278831973194
:1011D0002E2788319731462788318C3169240800C1
:1011E0002000A9009631A1268831723089310B2167
:1011F00088312000290889310B21883120002608F8
:1012000089310B2188319631A72601302000A600B4
:101210000030A70008002000A30023089631F02624
:1012200089312000A401A5012400161B14292000E7
:101230002508A2002408A100A40A0319A50A003069
:101240002202053003192102031808001729200083
:10125000A401A501201C30292208A4072308A53DCC
:101260000130A235A30D890B31290130A136A00C24
:10127000890B362920082104031D2A292508A100ED
:101280002408A0000800083020006E0203185E2920
:101290007308CD3E860001308700010823009A00C4
:1012A0000130F6007608F307083073020318F301E3
:1012B0000130F60076082000EE0708002100111228
:1012C00008002000A3002308A200A20DA20D210007
:1012D0001D08200022060339220621009D001D144E
:1012E00021009D1421009D1C7729640072291C088F
:1012F0002000A10021001B082000A0000800200001
:10130000AB008F3089319D2189312000AA002A0845
:10131000AC000330AA002A08AB05FC30AA002A085A
:10132000AC052B08AA002A08AC042C08AA002A083D
:10133000A6008F308831F02008002000A7009631E9
:10134000A1268931723089310B218931200027088B
:1013500089310B2189319631922689317330893157
:101360000B21893197319F2789312000A60026085B
:10137000A80096319B2689319631A726200028089F
:1013800008009631862689312300A01DD129973186
:101390001E278931031CD1290F30F9007908230059
:1013A000A90023002908F900FA01F935FA0D0030E7
:1013B0007907840090307A3D8500013F8A00003F24
:1013C0000A008931FB007B082300A90008002000E7
:1013D000AB00AB3089319D2189312000AA002A0859
:1013E000AC000130AA002A08AB05FE30AA002A088A
:1013F000AC052B08AA002A08AC042C08AA002A086D
:10140000A600AB308831F02089312000260827045F
:10141000031D0C2A00300800013008002000AB003A
:10142000A33089319D218A312000AA002A08AC000E
:101430000730AA002A08AB05F830AA002A08AC0534
:101440002B08AA002A08AC042C08AA002A08A60027
:10145000A3308831F0208A31200026082704031D9C
:10146000332A003008000130080020002A08AC00B0
:101470002C08AD002B08AC002C08AE002D08AC00E9
:101480002C08A60086308831F0208A3120002608FA
:101490002704031D4D2A003008002E08AC002C083C
:1014A000A60087308831F0208A31200026082704E2
:1014B00003194B2A0130080020002A08AC002C0830
:1014C000AD002B08AC002C08AE002D08AC002C0899
:1014D000A60084308831F0208A31200026082704B5
:1014E000031D742A003008002E08AC002C08A6004A
:1014F00085308831F0208A3120002608270403191E
:10150000722A013008002000AD008F3089319D2102
:101510008A312000AA002A08AC000330AA002A0859
:10152000AD052D08AA000530AA35FF3E031D942AFB
:101530002A35AB002B08AD003F30AA002A08AC05C5
:101540002D08AA002A08AC042C08AA002A08A60024
:101550008F308831F02008002000AD008F308931B5
:101560009D218A312000AA002A08AC000330AA007D
:101570002A08AD052D08AA000130AA35FF3E031D3B
:10158000BD2A2A35AB002B08AD00F330AA002A088B
:10159000AC052D08AA002A08AC042C08AA002A08C9
:1015A000A6008F308831F02008002300A0110230FF
:1015B000F6007608AA00E22A9631BE260800963187
:1015C000C22608003908F6007608F6000F30A03E63
:1015D000860001308700413F8A00403F0A008A317F
:1015E000F700F8017808003A0319F72ADF2A77088C
:1015F000023A0319DC2A013A0319DC2ADF2A08001F
:101600002000AC00AB3089319D218B312000AA0035
:101610002A08AB000130AA002A08AC052C35AA0024
:101620002A08AC00FD30AA002A08AB052C08AA0045
:101630002A08AB042B08AA002A08A600AB30883180
:10164000F0208B31200026082704031D292B0030B1
:1016500008000130080023002015382B9631BE26E3
:10166000080096318326033008009631C226080010
:101670003708F6007608F6000B30A03E86000130F1
:101680008700413F8A00403F0A008B31F700F80194
:101690007808003A03194D2B352B7708013A0319C6
:1016A000352B033A03192E2B013A03192E2B073A37
:1016B0000319312B352B08002000AD009030893103
:1016C0009D218B312000AA002A08AC000330AA001B
:1016D0002A08AD052D08AA000330AA35FF3E031DD8
:1016E0006D2B2A35AB002B08AD00CF30AA002A089D
:1016F000AC052D08AA002A08AC042C08AA002A0868
:10170000A60090308831F0208B3120002608270475
:10171000031D8C2B00300800013008002000AD00B4
:10172000A33089319D218B312000AA002A08AC000A
:101730000330AA002A08AD052D08AA000430AA35F6
:10174000FF3E031D9F2B2A35AB002B08AD009F30B9
:10175000AA002A08AC052D08AA002A08AC042C0807
:10176000AA002A08A600A3308831F0208B3120007F
:1017700026082704031DBE2B003008000130080096
:101780002000AD00A33089319D218B312000AA00BB
:101790002A08AC000330AA002A08AD052D08AA00CB
:1017A0000230AA35FF3E031DD12B2A35AB002B0892
:1017B000AD00E730AA002A08AC052D08AA002A08C7
:1017C000AC042C08AA002A08A600A3308831F02017
:1017D0008B31200026082704031DF02B0030080061
:1017E000013008007208BD3E86000130870081018B
:1017F00023001D1D072C7208BD3E860001308700A6
:10180000811422006B088A006A080A008C312300C8
:101810009D1C162C7208BD3E860001308700011504
:10182000220069088A0068080A008C317208BD3EEF
:1018300086000130870001080319252C23005B086E
:101840008A005A080A008C3108008831612008009B
:10185000FE3088314C208C3111302000A7003A3006
:10186000890B302CA70B302C0000513088314C20D4
:101870008C3120002608A1002508A0008831BD2059
:101880008C3120002108A9002008A800AA01AB0182
:101890002B08803AA7002908803A2702031D522C02
:1018A00028082A020318652C200025082A0784002E
:1018B00026082B3D8500000888314C208C310130F2
:1018C0002000AA070030AB3D482C2000ED01ED0AB6
:1018D000080021009112F2302000A0000B30A1007E
:1018E000973171278C312100111243302000A00064
:1018F0000930A10097317A278C310A3023009F00EC
:1019000080309D0024309E000C309B009C016E3086
:101910002000A0001630A10097315F278C31AA303B
:101920002000A0001630A100973168278C31743058
:101930002000A0001630A100973156272000EA01B0
:10194000F401F3010830A2002208EE00F201F101D7
:10195000F00121009116080022008C018D018E01FA
:10196000333021008C00B0308D009A308E00F4307E
:1019700023008E0020308D0001308C0024008D016A
:101980008C018E0125008C018D018E0137302600DF
:101990008C00F0308D00FF308E00270013121216DD
:1019A00011126F302000A0001630A100973183275C
:1019B000210010160C303C009E000F30A0001930A2
:1019C0003D0094001A309E0018309F001B30A2008A
:1019D0001430A50004303C00A1000E309D0008002A
:1019E000963180268C31F60023002208860087017C
:1019F000760881000130F6007608A2070130A302C4
:101A00000030A43B2308240403190A2D9631AE2686
:101A1000053008002015122D9631CE26080096318B
:101A2000CA2608003708F6007608F6000B30A03EFC
:101A3000860001308700413F8A00403F0A008D3117
:101A4000F700F8017808003A0319272D0F2D7708C1
:101A5000013A03190F2D033A03190C2D013A03190A
:101A60000C2D073A03190F2D0F2D08008831D520B2
:101A70008D318B170B179731EF278D319731E02779
:101A80008D31003A03194B2D8431ED248D31003016
:101A90008F3115278D3101302000DC000030DD0052
:101AA0008E31B7268D3120005C085D040319502D5E
:101AB0009731E0278D31003A0319502D20006F0334
:101AC000031D702D6035603E860001308700403F69
:101AD000A500413FA6008C3128248D312000EF0164
:101AE000863103268D31883100208D31003A03196B
:101AF000502D8F3179278D31502D2000AF00963138
:101B0000A1268D31723089310B218D3120002F08B3
:101B100089310B218D312000B0013008AA00AB01C2
:101B200029082B02031D962D28082A020318BC2D14
:101B3000963192268D31733089310B218D31973159
:101B40009F278D312000AA003008AB00AC012B0884
:101B50002607AD002C08273DAE002D0886002E0874
:101B600087002A08810096319B268D3101302000A4
:101B7000AA002A08B0078D2D9631A726200030082C
:101B8000AA00AB012A08A6002B08A700080097317D
:101B90001E278D310318D62DFA2D9631B626080052
:101BA0009631BA2608009631C226080023003A086A
:101BB000F6007608F6001130A03E8600013087005E
:101BC000413F8A00403F0A008D31F700F801780854
:101BD000003A0319EC2DD32D7708013A0319D32DC0
:101BE000033A0319CD2D013A0319D02D073A0319F1
:101BF000D32DD32D2300A0110230A03E860001304A
:101C00008700403F84008501810A00089631DA266A
:101C10008D3101302300A3020030A43B23082404AB
:101C2000031D142E06300800033008002000AF000A
:101C300097318C278E312000AC002C08AE002E0A84
:101C4000031D242E003008002B080139AC002C089D
:101C5000AB0007302F020318492E2B0803193C2E26
:101C60000130AC002F0A352EAC35890B342E2C08F0
:101C7000AD002D08AE04562E0130AC002F0A412EC7
:101C8000AC35890B402E2C08FF3AAD002D08AE056F
:101C9000562E07302F06031D562E2B080319552EDE
:101CA0007F30AC002C08AE00562EAE012E08AC00E2
:101CB0002C08A60080308831F0208E3120002608C4
:101CC00027040319222E013008002000AC01A71FB1
:101CD000702EA609A709A60A0319A70AAC01AC0A27
:101CE000A91F7B2EA809A909A80A0319A90A01306E
:101CF000AA002A08AC06AD01AE0126082704031984
:101D0000AA2EAB01AB0AA71B8F2E0130A635A70D5B
:101D1000890B862E0130AA002A08AB07832E0130DA
:101D2000AD35AE0D890B902E27082902031D9A2E82
:101D300026082802031CA12E2608A8022708A93B72
:101D40002D140130A736A60C890BA22E0130AB0250
:101D5000031D8F2E2C080319B22EAD09AE09AD0A52
:101D60000319AE0A2E08A7002D08A60008002000BF
:101D70005C08013EA60000305D3DA7002100600820
:101D8000013E2000A80000302100613D2000A90094
:101D90006008013EAA000030613DAB005E08013ED4
:101DA000AC0000305F3DAD002E3086000030870073
:101DB0000530A50000301E00A50BDB2E4130A5002C
:101DC0002508AE002608A5002508AF002808A500B4
:101DD0002508B0002A08A5002508B1002C08A50098
:101DE0002508B200B301B4012E30A0000030A100DC
:101DF0008831BD208E31200021083402031D022FBE
:101E0000200833020318080023009E1C042F200022
:101E100033082E3E86008701010823009A00013016
:101E20002000B3070030B43DF42E2000B10088310B
:101E3000A6208F31FF302000B0003008A60083308C
:101E40008831F0208F3120002608270403192B2F1A
:101E50002D2F0130462F003008008930B0003008A7
:101E6000A6008E308831F0208F312000260827040C
:101E700003192B2F03308B315C238F31003A031968
:101E80002B2F20003108031D292F00308B31002318
:101E90008F31003A03192B2F01308931E7218F311F
:101EA000003A03192B2F9731C3278F31003A0319BA
:101EB0002B2F2000AB01AB0A03308E3116268F3159
:101EC000003A03192B2F2000AB01AB0A02308E31F0
:101ED00016268F31003A03192B2F2000AB01AB0AD5
:101EE00006308E3116268F31003A03192B2F013020
:101EF0000800E02F88318F208F3101302000DE076D
:101F00000030DF3D5F08803ADB0080305B02083044
:101F100003195E02031CFD2F07302000DE00003095
:101F2000DF00FD2F88318F208F31FF302000DE074A
:101F3000FF30DF3DDF1FFD2FDE01DF01FD2F883188
:101F40008F208F312000ED010130E0070030E13DAE
:101F50006108803ADB0080305B02031DB12F043042
:101F60006002031CB62F2000E001E1012000603573
:101F7000603E860001308700403FA500413FA6003B
:101F80008C3128248F31FD2F88318F208F31200014
:101F9000ED01FF30E007FF30E13DE11FD32F0330BB
:101FA000E0000030E1006035603E860001308700CF
:101FB000403FA500413FA6008C3128248F31FD2FE2
:101FC0008631FA268F3120005008003A0319E92F94
:101FD000FD2F4F08013A03199F2F033A0319C42F0D
:101FE000013A03197A2F073A0319922F013A03197C
:101FF000FD2F033A0319FD2FFD2F2000ED010800EE
:10200000DF3416342634173409341734C7340D340A
:10201000F0340C34EA3416342B340B34B634163422
:10202000BA341634BE341634C2341634C6341634B8
:10203000CA341634CE34163402341734D5340A3444
:102CDC000800080008000134013008008831612028
:102CEC00080024009614080024001615080024007F
:102CFC009615080024001108080020009115080002
:102D0C00200091110800200011110800963189262D
:102D1C00080024009614080096318F260800240021
:102D2C00110808002400961508009631D6260800D4
:102D3C0024001614080096319E260800240016154F
:102D4C0008009631A426080023001D121D16080049
:102D5C002400961216160800240096161616080063
:102D6C00963177260130080096317726023008001C
:102D7C00963177260130080096317A26003008000B
:102D8C009631AE26053008009631B2260A3008007E
:102D9C009631B2260930080018302100970008003F
:102DAC002400961616160800F600760824009100EA
:102DBC00080023002010AA010E3008002700131E63
:102DCC0008009731B62708002300A01196317D2604
:102DDC00043008002000A000200824009100080006
:102DEC00640080010131890BF72E0034FE001200C3
:102DFC001E00FE0BFD2E0034963170262300201091
:102E0C00AA010E3008002300A01521359631DA26D0
:102E1C0003300800803024009C0031309D009A0162
:102E2C0008002400140801392000A000200C080020
:102E3C002400160E890C890C0139F600760C08005A
:102E4C002300A0150314210D9631DA260530080055
:102E5C00013021009D009E019F019B019C010800F7
:102E6C006130320099009B019D019F019E01080079
:102E7C003200910192019301940195019601080091
:102E8C00FF3020009E009D01911004309F0008002F
:102E9C001D349834103498340034983429349834D0
:102EAC00200021082300DB00200020082300DA008A
:102EBC000800200021082200EB002000200822003E
:102ECC00EA000800200021082200E9002000200868
:102EDC002200E8000800200021082200ED0020005C
:102EEC0020082200EC000800200021082100EF003F
:102EFC00200020082100EE000800200021082100FD
:102F0C00ED00200020082100EC0008008030893101
:102F1C009D212000A9002908AA002A0808002400E5
:102F2C00951A080094012830950096010330920000
:102F3C000800963198269731973117279731031C43
:102F4C00A22F9631952608008F3025009300033070
:102F5C009200323091001F08FC3901389F000800A4
:102F6C0021006C086D040319C02F6D088A006C08D1
:102F7C000A0097312700131208002000AB01AB0A9E
:102F8C0000308E3116269731003A031DCF2F0030BA
:102F9C000800013008002000A00024009D13200030
:102FAC0020082400990024001C18DE2F6400D92F5F
:102FBC001908080020008E1DEA2F01302100E000C6
:102FCC000030E100013008002100E001E101003097
:102FDC000800FE3088314C20973111302000A300BE
:102FEC003A30890BF72FA30BF72F000051308831A3
:102FFC004C20080041346C346534783461346E34C0
:10300C006434723461342034463479346634663432
:10301C00653400344E346F3465346C346C34653440
:10302C0020344334723461346E34653400344A34A1
:10303C0075347334743469346E34203443346834E6
:10304C0061346E3400344A3465346634663420346A
:0C305C0047346534693473347334003435
:020000040001F9
:08000E00ECFFF7FFFFFFFFFF0D
:00000001FF
