:020000040000FA
:1000000080312B28053008007E1480312100101E1D
:1000100010282000101E10288A31E422803129285F
:100020000B1F29282100111D1E282000111D1E282C
:1000300079088A0078080A00803129282100911D5A
:1000400029282000911D292877088A0076080A00AF
:1000500080317E10090080312D28F601F701F8016A
:10006000F901FA015D3084000030850011308B31D8
:1000700002238031A0308400013085001D308B3197
:1000800002238031203084000230850044308B31DF
:1000900002237E1020008E31BD2E2000C501C60136
:1000A000C701C801C101C201C301C4010530240058
:1000B000610203185D280030080021306102031836
:1000C00027296108031927292000CD01CE016C28BA
:1000D0000130CD070030CE3D4E08803AAF00803071
:1000E0002F02031D77282400610820004D02031809
:1000F000C22820004D08203E8600023087000B30C9
:100100000102031C68284D08303E8600023087003B
:100110000B300102031C68284D08403E8600023067
:1001200087000B300102031C68284D08503E8600F2
:10013000023087000B300102031C68284D08203E66
:100140008600023087000108AF002F08C5004D0867
:10015000303E8600023087000108AF002F08C6003D
:100160004D08403E8600023087000108AF002F088E
:10017000C7004D08503E8600023087000108AF00DE
:100180002F08C8002000450803195B2846080319FA
:100190005B28470803195B28480803195B282400DB
:1001A0006108FF3E2000CD00FF3003180030CE0074
:1001B000DD28FF30CD07FF30CE3DCE1B27294D086F
:1001C000203E8600023087000B300102031CD92834
:1001D0004D08303E8600023087000B300102031CC0
:1001E000D9284D08403E8600023087000B300102BE
:1001F000031CD9284D08503E8600023087000B3082
:100200000102031CD9284D08203E860002308700D9
:100210000108AF002F08C1004D08303E86000230B3
:1002200087000108AF002F08C2004D08403E86003D
:10023000023087000108AF002F08C3004D08503E70
:100240008600023087000108AF002F08C40020009C
:1002500045084607A600A701A70D46084502A000CD
:10026000A101031CA1036430A2000030A3008C3163
:100270002E24803120002108A9002008A800873101
:100280001027803120002708B2002608B100470857
:100290004807A600A701A70D48084702A000A10132
:1002A000031CA1036430A2000030A3008C312E2473
:1002B000803120002108A9002008A80087311027DC
:1002C000803120002708B4002608B3004108420707
:1002D000A600A701A70D42084102A000A101031C2E
:1002E000A1036430A2000030A3008C312E248031A1
:1002F00020002108A9002008A8008731102780319C
:1003000020002708B6002608B50043084407A600C9
:10031000A701A70D44084302A000A101031CA103EB
:100320006430A2000030A3008C312E2480312000E4
:100330002108A9002008A80087311027803120005B
:100340002708B8002608B70031083502C90032086E
:10035000363BCA0033083702CB003408383BCC00A8
:100360004908EB074A08EC3D4B08E9074C08EA3D11
:100370006C08803AAF0080302F02031DC129323053
:100380006B02031CC82901302000E7000030D82987
:1003900020006C08803AAF007F302F02031DD22965
:1003A000CF306B020318DA29FF302000E700FF305E
:1003B000E800DD292000E701E8016A08803AAF0083
:1003C00080302F02031DE62932306902031CED291B
:1003D00001302000E5000030FD2920006A08803A45
:1003E000AF007F302F02031DF729CF3069020318B9
:1003F000FF29FF302000E500FF30E600022A200040
:10040000E501E60167086804031DA52A650866047E
:10041000031DA52A4A08803AAF0080302F02031D31
:10042000132A013049020318222A20004909AF008B
:100430004A09B000AF0A0319B00A2F08B900300802
:10044000BA00272A20004A08BA004908B9003A0829
:10045000803AAF0080302F02031D302A1430390259
:1004600003185B2820004C08803AAF0080302F0230
:10047000031D3C2A01304B0203184B2A20004B0974
:10048000AF004C09B000AF0A0319B00A2F08BB0037
:100490003008BC00502A20004C08BC004B08BB00B0
:1004A0003C08803AAF0080302F02031D592A1430D7
:1004B0003B0203185B28200049084A04031D692AEF
:1004C0004B084C04031D692A0130E3070030E43D6A
:1004D000752A49084A04031D712A4B084C04031964
:1004E000752A0130E1070030E23D6408803AAF0030
:1004F00080302F02031D7E2A0A306302031C5B2812
:1005000020006208803AAF0080302F02031D8A2A43
:1005100002306102031C5B28200049084A04031DC5
:10052000972A4B084C04031D972A0130A02A49083A
:100530004A040319A32A4B084C040319A32A0230C6
:10054000DF000030E000013008004A08803AAF00C8
:1005500080302F02031DAE2A013049020318BD2A44
:1005600020004909AF004A09B000AF0A0319B00AD8
:100570002F08BD003008BE00C22A20004A08BE0075
:100580004908BD003E08803AAF0080302F02031DAD
:10059000CB2A14303D0203185B2820004C08803A17
:1005A000AF0080302F02031DD72A01304B02031801
:1005B000E62A20004B09AF004C09B000AF0A03192E
:1005C000B00A2F08BF003008C000EB2A20004C08FA
:1005D000C0004B08BF004008803AAF0080302F02B7
:1005E000031DF42A14303F0203185B282000490839
:1005F0004A04031D032B4B084C04031D032B01303D
:10060000E3070030E43D6408803AAF0080302F02F9
:10061000031D0C2B0A306302031C5B282000E7013A
:10062000E801E501E601EB01EC01E901EA015B28E3
:1006300020005F036004031D232B0530DD00003024
:10064000DE000130080002305F066004031D2E2B1F
:100650000630DD000030DE0001300800670A031DAF
:100660003A2B680A031D3A2B65086604031D3A2BD2
:100670000330592B67036804031D442B6508660487
:10068000031D442B0430592B67086804031D4E2BAF
:1006900065036604031D4E2B0230592B670868045E
:1006A000031D5E2B650A031D5E2B660A031D5E2B70
:1006B00001302000DD000030DE00A42C670A031D9D
:1006C000AF2B680A031DAF2B65036604031DAF2B18
:1006D0006C08803AA00080302002031D712B01308D
:1006E0006B020318802B20006B09A0006C09A1008D
:1006F000A00A0319A10A2008A2002108A300852B43
:1007000020006C08A3006B08A2006A08803AA000D1
:1007100080302002031D8E2B0130690203189D2BAF
:1007200020006909A0006A09A100A00A0319A10A12
:100730002008A4002108A500A22B20006A08A5001B
:100740006908A4002508803AA0002308803A200206
:10075000031DAC2B22082402031C382B4C2B6703EF
:100760006804031D002C650A031D002C660A031D86
:10077000002C6C08803AA00080302002031DC22BA0
:1007800001306B020318D12B20006B09A0006C090B
:10079000A100A00A0319A10A2008A6002108A700A9
:1007A000D62B20006C08A7006B08A6006A08803AC8
:1007B000A00080302002031DDF2B013069020318E6
:1007C000EE2B20006909A0006A09A100A00A031904
:1007D000A10A2008A8002108A900F32B20006A081C
:1007E000A9006908A8002908803AA0002708803AD3
:1007F0002002031DFD2B26082802031C422B582B28
:10080000670A031D532C680A031D532C650A031D38
:10081000532C660A031D532C6C08803AA0008030CC
:100820002002031D152C01306B020318242C20001C
:100830006B09A0006C09A100A00A0319A10A2008F5
:10084000AA002108AB00292C20006C08AB006B0823
:10085000AA006A08803AA00080302002031D322CD2
:10086000013069020318412C20006909A0006A09BF
:10087000A100A00A0319A10A2008AC002108AD00BC
:10088000462C20006A08AD006908AC002D08803AAB
:10089000A0002B08803A2002031D502C2A082C02AD
:1008A000031C382B582B67036804031DA22C650317
:1008B0006604031DA22C6C08803AA0008030200240
:1008C000031D642C01306B020318732C20006B098C
:1008D000A0006C09A100A00A0319A10A2008AE001B
:1008E0002108AF00782C20006C08AF006B08AE0028
:1008F0006A08803AA00080302002031D812C01305C
:1009000069020318902C20006909A0006A09A1005F
:10091000A00A0319A10A2008B0002108B100952CF3
:1009200020006A08B1006908B0003108803AA000D0
:100930002F08803A2002031D9F2C2E083002031C32
:10094000422B4C2B00300800013008008B3147232C
:10095000843192308C31682484312000B00030081A
:10096000B100AB3031060319BB2C9C3031060319A2
:10097000BB2C00300800AB0107308731622784317F
:10098000DB302000B0003008A60081308B31F72327
:100990008431F6302000B0003008A60083308B315F
:1009A000F723843187302000B0003008A6008E3055
:1009B0008B31F72384312000A6019D308B31F72342
:1009C00084312000A6019E308B31F72384316030C2
:1009D0002000B0003008A6008D308B31F723843121
:1009E00000308D314E25843102308D3177258431B0
:1009F00001308C314A24843100308B31CF23843153
:100A0000003A0319B92C32308B31BC238431003ABF
:100A10000319B92CFF302000AA00FF30AB008D3144
:100A200027258431003A0319B92C00302000AA0090
:100A3000AB008D3100258431003A0319B92C1130F7
:100A40002000B0003008A6008C308B31F7238431B1
:100A50002000260827040319B92CA601A60A903005
:100A60008B31F72384312000260827040319B92C81
:100A7000A6019F308B31F7238431200026082704FC
:100A80000319B92C28308B3196238431003A03198D
:100A9000B92C1E308B31A9238431003A0319B92CAB
:100AA00040302000B0003008A600A2308B31F72380
:100AB00084312000260827040319B92C02308E3116
:100AC00059268431003A0319B92C00308E318B2617
:100AD0008431003A0319B92C01308C31D924843186
:100AE000003A0319B92C2000A601A4308B31F7235A
:100AF00084312000260827040319B92CA601A5304B
:100B00008B31F72384312000260827040319B92CE0
:100B1000A601A7308B31F723843120002608270453
:100B20000319B92CA601A9308B31F7238431200099
:100B3000260827040319B92CC930B0003008A600D4
:100B4000A6308B31F72384312000260827040319AF
:100B5000B92CA601AA308B31F72384312000260856
:100B600027040319B92C00308D31CB258431003A8C
:100B70000319B92C013008002000D601D7018B31B0
:100B800083238531003A0319CB2D8B313E238531E8
:100B90004139031D802E2000CF01D0010800AE3066
:100BA0008C31682485312000D1005108D8005808C4
:100BB0000319802E113058020318E22D2030A600B0
:100BC0000130E52DA030A6000030A7005808D10064
:100BD000D201D135D20DD135D20D5108A80052081D
:100BE000A900FC308F31B627853120002708D700B7
:100BF0002608D600560A031D052E570A031D052E8A
:100C0000FF30CF000030D00008005708803AD100F4
:100C100080305102031D0E2E04305602031C802E1C
:100C20002000D901DA015A08803AD1005708803AE9
:100C30005102031D1D2E560859020318742E200060
:100C40005908203E8600013087000108D1002400A9
:100C50006008203E86000230870020005108810095
:100C60005908013E203E8600013087000108D1006E
:100C700024006008303E86000230870020005108C2
:100C800081005908023E203E86000130870001089D
:100C9000D10024006008403E86000230870020001A
:100CA000510881005908033E203E8600013087002C
:100CB0000108D10024006008503E86000230870001
:100CC0002000510881000130D10051082400E007C4
:100CD00001302000D10051082400E1070430200039
:100CE000D9070030DA3D132E80314D208531003A8E
:100CF00003197D2E8331182385312400E001E101A1
:100D00000A302000D100BC30890B842ED10B842EF8
:100D10000000AF308C31682485312000D1005108AB
:100D2000D5005518CF2D0A302000D100BC30890BDA
:100D3000972ED10B972E0000833118238531200088
:100D40005E08D4005D08D3008B31E22320005408F4
:100D5000D0005308CF0008002000B1008B31E223FF
:100D60008631FF302000B0003008A60083308B3180
:100D7000F72386312000260827040319C22EC42E2B
:100D80000130DD2E003008008930B0003008A600A8
:100D90008E308B31F7238631200026082704031973
:100DA000C22E03308E3127268631003A0319C22E17
:100DB00020003108031DC02E00308D31CB25863137
:100DC000003A0319C22E01308C31B2248631003A28
:100DD0000319C22E8B3175238631003A0319C22EB6
:100DE0002000AB01AB0A0330873162278631003A1D
:100DF0000319C22E2000AB01AB0A023087316227F3
:100E00008631003A0319C22E2000AB01AB0A06302E
:100E1000873162278631003A0319C22E013008005B
:100E20002000AC01A71F1B2FA609A709A60A0319BA
:100E3000A70AAC01AC0AA91F262FA809A909A80A6C
:100E40000319A90A0130AA002A08AC06AD01AE01B7
:100E5000260827040319552FAB01AB0AA71B3A2F0D
:100E60000130A635A70D890B312F0130AA002A08C1
:100E7000AB072E2F0130AD35AE0D890B3B2F270868
:100E80002902031D452F26082802031C4C2F260883
:100E9000A8022708A93B2D140130A736A60C890B00
:100EA0004D2F0130AB02031D3A2F2C0803195D2F83
:100EB000AD09AE09AD0A0319AE0A2E08A7002D0828
:100EC000A60008002000AF008B313E2387312000B0
:100ED000AC002C08AE002E0A031D702F0030080055
:100EE0002B080139AC002C08AB0007302F02031887
:100EF000952F2B080319882F0130AC002F0A812F62
:100F0000AC35890B802F2C08AD002D08AE04A22F24
:100F10000130AC002F0A8D2FAC35890B8C2F2C089B
:100F2000FF3AAD002D08AE05A22F07302F06031D96
:100F3000A22F2B080319A12F7F30AC002C08AE0084
:100F4000A22FAE012E08AC002C08A60080308B31F9
:100F5000F723873120002608270403196E2F01305C
:100F600008008B311D2387310318C02FE42F8A31ED
:100F7000B62208008A31BA2208008A31C22208004B
:100F800023003A08F0007008F0001130A03E8600FF
:100F900001308700413F8A00403F0A008731F1005D
:100FA000F2017208003A0319D62FBD2F7108013AD9
:100FB0000319BD2F033A0319B72F013A0319BA2FAA
:100FC000073A0319BD2FBD2F2300A0110230A03E08
:100FD000860001308700403F84008501810A0008B7
:100FE0008A31DA22873101302300A3020030A43B8A
:100FF00023082404031DFE2F0630080003300800D8
:1014E60008000800013008002400961408002400B3
:1014F6001615080024009615080024001108080097
:1015060020009115080020009111080020001111FB
:1015160008008A31892208002400961408008A31BE
:101526008F220800240011080800240096150800E0
:101536008A31D62208002400161408008A319E2219
:1015460008002400161508008A31A422080020008D
:10155600ED01ED0A08002400961216160800240074
:101566009616161608008A317722013008008A314D
:101576007722023008008A317722013008008A314A
:101586007A22003008008A31AE22053008008A31FE
:10159600B2220A3008008A31B22209300800163019
:1015A6002100970008002400961616160800F00081
:1015B600700824009100080023002010AA010E30B4
:1015C60008002700991C08008B31682308002300B7
:1015D600A0118A317D220430080020002108EF0086
:1015E6002008EE0008002000A0002008240091003A
:1015F600080022008E120C118C108C120800640058
:1016060080010131890B032B00348A3174222300B7
:101616002010AA010E3008002300A01521358A31BA
:10162600DA22033008002400140801392000A00043
:10163600200C08002400160E890C890C0139F000D4
:10164600700C08002300A0150314210D8A31DA223C
:101656000530080032009101920193019401950131
:10166600960108006230320099009B019D0103300B
:101676009F009E01080080308C3168242000A9005C
:101686002908AA002A0808002400951A08009401CF
:101696002830950096010330920008008A3198227E
:1016A6008B318B3116238B31031C542B8A319522B7
:1016B60008008B312D238B318E31F1268B318B3106
:1016C60035238B318A31D222080020006E086F0440
:1016D6000319722B6F088A006E080A008B312700E7
:1016E600991008002000AB01AB0A00308731622751
:1016F6008B31003A031D812B0030080001300800B1
:10170600AF308C3168248B312000A9002908AA004B
:101716000130A9002908AA052A03031D942B0130CC
:101726000800003008002000AB002B08AA002A0899
:10173600A600A0308B31F7238B3120002608270422
:10174600031DA72B00300800013008002000AB0065
:101756002B08AA002A08A600A1308B31F7238B316B
:10176600200026082704031DBA2B0030080001308C
:1017760008002000AB002B08AA002A08A6008B3020
:101786008B31F7238B31200026082704031DCD2B30
:1017960000300800013008002000AB002B08AA002A
:1017A6002A08A60089308B31F7238B3120002608C2
:1017B6002704031DE02B0030080001300800240038
:1017C600E001E1012000EB01EC01E901EA01E7019A
:1017D600E801E501E601E301E401E101E201DF01DF
:1017E600E001DD01DE0108002000A9008A31A12206
:1017F6008B3172308C3112248B31200029088C31C8
:1018060012248B31200026088C3112248B318A3128
:10181600A72201302000A6000030A7000800200003
:10182600A30023088A31F6228C312000A401A501E9
:101836002400161B1B2C20002508A2002408A1004A
:10184600A40A0319A50A0030220205300319210251
:10185600031808001E2C2000A401A501201C372C0B
:101866002208A4072308A53D0130A235A30D890B44
:10187600382C0130A136A00C890B3D2C2008210400
:10188600031D312C2508A1002408A0000800200013
:10189600AB008F308C3168248C312000AA002A08D6
:1018A600AC000330AA002A08AB05FC30AA002A08BF
:1018B600AC052B08AA002A08AC042C08AA002A08A2
:1018C600A6008F308B31F72308002000A7008A314D
:1018D600A1228C3172308C3112248C3120002708E1
:1018E6008C3112248C318A3192228C3173308C31B6
:1018F60012248C318B3151238C312000A60026080E
:10190600A8008A319B228C318A31A7222000280820
:1019160008008A3186228C312300A01D9C2C8B3135
:101926001D238C31031C9C2C0F30F30073082300FD
:10193600A90023002908F300F401F335F40D003063
:10194600730784009030743D8500013F8A00003F94
:101956000A008C31F50075082300A9000800200054
:10196600AB00AB308C3168248C312000AA002A08E9
:10197600AC000130AA002A08AB05FE30AA002A08EE
:10198600AC052B08AA002A08AC042C08AA002A08D1
:10199600A600AB308B31F7238C31200026082704B4
:1019A600031DD72C00300800013008002000AB00D2
:1019B600A3308C3168248C312000AA002A08AC00A0
:1019C6000730AA002A08AB05F830AA002A08AC0599
:1019D6002B08AA002A08AC042C08AA002A08A6008C
:1019E600A3308B31F7238C31200026082704031DF2
:1019F600FE2C003008000130080020002A08AC0048
:101A06002C08AD002B08AC002C08AE002D08AC004D
:101A16002C08A60086308B31F7238D31200026084E
:101A26002704031D182D003008002E08AC002C08D2
:101A3600A60087308B31F7238D3120002608270436
:101A46000319162D0130080020002A08AC002C08C6
:101A5600AD002B08AC002C08AE002D08AC002C08FD
:101A6600A60084308B31F7238D3120002608270409
:101A7600031D3F2D003008002E08AC002C08A600E0
:101A860085308B31F7238D31200026082704031972
:101A96003D2D013008002000AD008F308C316824C8
:101AA6008D312000AA002A08AC000330AA002A08BB
:101AB600AD052D08AA000530AA35FF3E031D5F2D92
:101AC6002A35AB002B08AD003F30AA002A08AC052A
:101AD6002D08AA002A08AC042C08AA002A08A60089
:101AE6008F308B31F72308002000AD008F308C310A
:101AF60068248D312000AA002A08AC000330AA0011
:101B06002A08AD052D08AA000130AA35FF3E031D9F
:101B1600882D2A35AB002B08AD00F330AA002A0821
:101B2600AC052D08AA002A08AC042C08AA002A082D
:101B3600A6008F308B31F72308002300A011023056
:101B4600F0007008AA00AD2D8A31BE2208008A3145
:101B5600C22208003908F0007008F0000F30A03EDD
:101B6600860001308700413F8A00403F0A008D31E0
:101B7600F100F2017208003A0319C22DAA2D71086C
:101B8600023A0319A72D013A0319A72DAA2D080019
:101B96002000AC00AB308C3168248D312000AA00C7
:101BA6002A08AB000130AA002A08AC052C35AA0089
:101BB6002A08AC00FD30AA002A08AB052C08AA00AA
:101BC6002A08AB042B08AA002A08A600AB308B31E2
:101BD600F7238D31200026082704031DF42D00303D
:101BE60008000130080023002015032E8A31BE228A
:101BF60008008A318322033008008A31C222080095
:101C06003708F0007008F0000B30A03E8600013067
:101C16008700413F8A00403F0A008E31F100F20101
:101C26007208003A0319182E002E7108013A03199A
:101C3600002E033A0319F92D013A0319F92D073A33
:101C46000319FC2D002E08002000AD0090308C31C9
:101C560068248E312000AA002A08AC000330AA00AE
:101C66002A08AD052D08AA000330AA35FF3E031D3C
:101C7600382E2A35AB002B08AD00CF30AA002A0833
:101C8600AC052D08AA002A08AC042C08AA002A08CC
:101C9600A60090308B31F7238E31200026082704CA
:101CA600031D572E00300800013008002000AD004B
:101CB600A3308C3168248E312000AA002A08AC009B
:101CC6000330AA002A08AD052D08AA000430AA355B
:101CD600FF3E031D6A2E2A35AB002B08AD009F3050
:101CE600AA002A08AC052D08AA002A08AC042C086C
:101CF600AA002A08A600A3308B31F7238E312000D4
:101D060026082704031D892E00300800013008002C
:101D16002000AD00A3308C3168248E312000AA004B
:101D26002A08AC000330AA002A08AD052D08AA002F
:101D36000230AA35FF3E031D9C2E2A35AB002B0828
:101D4600AD00E730AA002A08AC052D08AA002A082B
:101D5600AC042C08AA002A08A600A3308B31F7236E
:101D66008E31200026082704031DBB2E00300800F4
:101D7600013008008B315C238E318B170B17AA308C
:101D86002000A0000A30A1008A31F0228E31843171
:101D9600A6248E31003A0319D22E22000C150130EA
:101DA6008631AC268E318B3183238E31003A03196E
:101DB600E52E22008E168531BC258E315330890BD7
:101DC600E22E000020006D080319D62E22008C1486
:101DD6008F312C278E312000ED01D62E22008C016A
:101DE6008D018E01113021008C00F0308D00DF3026
:101DF6008E00DD3023008E0050308D0011308C00B7
:101E060024008D018C0102308E0025008C018D018D
:101E16008E01373026008C00F0308D00FF308E00AA
:101E2600270099109810971473302000A0000A30EC
:101E3600A1008A31F022210010160F303C00A000CC
:101E460018303D009F0019309D000D303C00A10068
:101E560008008B3183238F31003A03190800582F6D
:101E66008A31FC228F3122008E1602302000DC00DF
:101E76004530DB00A930890B3E2FDB0B3E2FDC0BF8
:101E86003E2F003208008A31FC228F3122000C15C9
:101E9600382F8A31FC228F3122008C14382F8A3158
:101EA600FC228F3122008C16382F8531BC258F31CC
:101EB60020005008003A0319612F6F2F4F08013A8E
:101EC60003194C2F033A0319522F013A0319332FE2
:101ED600073A0319462F6F2F08008A3180228F3167
:101EE600F000230022088600870170088100013077
:101EF600F0007008A2070130A3020030A43B2308BB
:101F0600240403198A2F8A31AE22053008002015D1
:101F1600922F8A31CE2208008A31CA220800370859
:101F2600F0007008F0000B30A03E860001308700FC
:101F3600413F8A00403F0A008F31F100F2017208EA
:101F4600003A0319A72F8F2F7108013A03198F2F13
:101F5600033A03198C2F013A03198C2F073A0319F8
:101F66008F2F8F2F08002000AF008A31A1228F31DA
:101F760072308C3112248F3120002F088C311224BC
:101F86008F312000B0013008AA00AB0129082B02CE
:101F9600031DCF2F28082A020318F52F8A31922213
:101FA6008F3173308C3112248F318B3151238F3125
:101FB6002000AA003008AB00AC012B082607AD00B4
:101FC6002C08273DAE002D0886002E0887002A081B
:101FD60081008A319B228F3101302000AA002A0815
:101FE600B007C62F8A31A72220003008AA00AB010D
:101FF6002A08A6002B08A7000800DF340A34253477
:102006000B340F340B34B134073470340F34EA34E4
:102016000A34F6340D34B6340A34BA340A34BE34CB
:102026000A34C2340A34C6340A34CA340A34CE34C2
:0A2036000A3408340B34A0340D34D2
:020000040001F9
:08000E00ECFFF3FFFFFFFFFF11
:00000001FF
