:020000040000FA
:1000000080312B28053008007E1480312100101E1D
:1000100010282000101E10288A31FE228031292845
:100020000B1F29282100111D1E282000111D1E282C
:1000300073088A0072080A00803129282100911D66
:1000400029282000911D292871088A0070080A00BB
:1000500080317E10090080312D28F001F101F2017C
:10006000F301F401F5015D308400003085001030AB
:100070008B311C238031A0308400013085001D307D
:100080008B311C23803120308400023085004430C5
:100090008B311C237E1020008C31A62C2000C50142
:1000A000C601C701C801C101C201C301C4010530B5
:1000B0002400610203185E2800300800213061022C
:1000C000031828296108031928292000CD01CE0131
:1000D0006D280130CD070030CE3D4E08803AAF008C
:1000E00080302F02031D78282400610820004D0273
:1000F0000318C32820004D08203E860002308700E8
:100100000B300102031C69284D08303E8600023086
:1001100087000B300102031C69284D08403E860011
:10012000023087000B300102031C69284D08503E45
:100130008600023087000B300102031C69284D083D
:10014000203E8600023087000108AF002F08C5005E
:100150004D08303E8600023087000108AF002F08AE
:10016000C6004D08403E8600023087000108AF00FF
:100170002F08C7004D08503E860002308700010856
:10018000AF002F08C8002000450803195C28460866
:1001900003195C28470803195C28480803195C28E0
:1001A00024006108FF3E2000CD00FF30031800301E
:1001B000CE00DE28FF30CD07FF30CE3DCE1B2829F4
:1001C0004D08203E8600023087000B300102031CE0
:1001D000DA284D08303E8600023087000B300102DD
:1001E000031CDA284D08403E8600023087000B30A1
:1001F0000102031CDA284D08503E860002308700B9
:100200000B300102031CDA284D08203E8600023024
:1002100087000108AF002F08C1004D08303E86005E
:10022000023087000108AF002F08C2004D08403E91
:100230008600023087000108AF002F08C3004D0878
:10024000503E8600023087000108AF002F08C4002E
:10025000200045084607A600A701A70D460845024D
:10026000A000A101031CA1036430A2000030A30080
:100270008C314824803120002108A9002008A800E2
:1002800087311127803120002708B2002608B100ED
:1002900047084807A600A701A70D48084702A00085
:1002A000A101031CA1036430A2000030A3008C3123
:1002B0004824803120002108A9002008A8008731A7
:1002C0001127803120002708B4002608B300410818
:1002D0004207A600A701A70D42084102A000A10104
:1002E000031CA1036430A2000030A3008C31482419
:1002F000803120002108A9002008A800873111279B
:10030000803120002708B6002608B50043084407BE
:10031000A600A701A70D44084302A000A101031CE9
:10032000A1036430A2000030A3008C314824803146
:1003300020002108A9002008A8008731112780315A
:1003400020002708B8002608B70031083502C90088
:100350003208363BCA0033083702CB003408383B3A
:10036000CC004908EB074A08EC3D4B08E9074C086C
:10037000EA3D6C08803AAF0080302F02031DC2298D
:1003800032306B02031CC92901302000E700003025
:10039000D92920006C08803AAF007F302F02031D5E
:1003A000D329CF306B020318DB29FF302000E70090
:1003B000FF30E800DE292000E701E8016A08803A02
:1003C000AF0080302F02031DE72932306902031C81
:1003D000EE2901302000E5000030FE2920006A08E7
:1003E000803AAF007F302F02031DF829CF30690219
:1003F0000318002AFF302000E500FF30E600032A42
:100400002000E501E60167086804031DA62A6508C7
:100410006604031DA62A4A08803AAF0080302F02E6
:10042000031D142A013049020318232A2000490918
:10043000AF004A09B000AF0A0319B00A2F08B9008B
:100440003008BA00282A20004A08BA004908B90032
:100450003A08803AAF0080302F02031D312A143051
:10046000390203185C2820004C08803AAF00803025
:100470002F02031D3D2A01304B0203184C2A200095
:100480004B09AF004C09B000AF0A0319B00A2F089E
:10049000BB003008BC00512A20004C08BC004B08AF
:1004A000BB003C08803AAF0080302F02031D5A2A5F
:1004B00014303B0203185C28200049084A04031D3D
:1004C0006A2A4B084C04031D6A2A0130E3070030F6
:1004D000E43D762A49084A04031D722A4B084C045D
:1004E0000319762A0130E1070030E23D6408803AC2
:1004F000AF0080302F02031D7F2A0A306302031CE5
:100500005C2820006208803AAF0080302F02031D73
:100510008B2A02306102031C5C28200049084A042F
:10052000031D982A4B084C04031D982A0130A12A68
:1005300049084A040319A42A4B084C040319A42AA5
:100540000230DF000030E000013008004A08803A45
:10055000AF0080302F02031DAF2A0130490203187B
:10056000BE2A20004909AF004A09B000AF0A0319AA
:10057000B00A2F08BD003008BE00C32A20004A0878
:10058000BE004908BD003E08803AAF0080302F020F
:10059000031DCC2A14303D0203185C2820004C08AF
:1005A000803AAF0080302F02031DD82A01304B0261
:1005B0000318E72A20004B09AF004C09B000AF0A2E
:1005C0000319B00A2F08BF003008C000EC2A200031
:1005D0004C08C0004B08BF004008803AAF00803094
:1005E0002F02031DF52A14303F0203185C28200057
:1005F00049084A04031D042B4B084C04031D042B1B
:100600000130E3070030E43D6408803AAF008030F9
:100610002F02031D0D2B0A306302031C5C282000EF
:10062000E701E801E501E601EB01EC01E901EA017E
:100630005C2820005F036004031D242B0530DD00CF
:100640000030DE000130080002305F066004031D48
:100650002F2B0630DD000030DE0001300800670A75
:10066000031D3B2B680A031D3B2B65086604031D15
:100670003B2B03305A2B67036804031D452B650889
:100680006604031D452B04305A2B67086804031DBC
:100690004F2B65036604031D4F2B02305A2B67084E
:1006A0006804031D5F2B650A031D5F2B660A031D8B
:1006B0005F2B01302000DD000030DE00A52C670A32
:1006C000031DB02B680A031DB02B65036604031DD0
:1006D000B02B6C08803AA00080302002031D722BE2
:1006E00001306B020318812B20006B09A0006C09FC
:1006F000A100A00A0319A10A2008A2002108A30052
:10070000862B20006C08A3006B08A2006A08803AC0
:10071000A00080302002031D8F2B013069020318D6
:100720009E2B20006909A0006A09A100A00A0319F4
:10073000A10A2008A4002108A500A32B20006A0814
:10074000A5006908A4002508803AA0002308803A83
:100750002002031DAD2B22082402031C392B4D2B34
:1007600067036804031D012C650A031D012C660A3A
:10077000031D012C6C08803AA00080302002031D6C
:10078000C32B01306B020318D22B20006B09A00091
:100790006C09A100A00A0319A10A2008A6002108DB
:1007A000A700D72B20006C08A7006B08A6006A08DA
:1007B000803AA00080302002031DE02B0130690246
:1007C0000318EF2B20006909A0006A09A100A00A04
:1007D0000319A10A2008A8002108A900F42B200071
:1007E0006A08A9006908A8002908803AA00027081B
:1007F000803A2002031DFE2B26082802031C432BEF
:10080000592B670A031D542C680A031D542C650AD2
:10081000031D542C660A031D542C6C08803AA0005A
:1008200080302002031D162C01306B020318252C8A
:1008300020006B09A0006C09A100A00A0319A10AFD
:100840002008AA002108AB002A2C20006C08AB006D
:100850006B08AA006A08803AA00080302002031DBD
:10086000332C013069020318422C20006909A000D2
:100870006A09A100A00A0319A10A2008AC002108F6
:10088000AD00472C20006A08AD006908AC002D08B7
:10089000803AA0002B08803A2002031D512C2A0820
:1008A0002C02031C392B592B67036804031DA32C4E
:1008B00065036604031DA32C6C08803AA0008030F9
:1008C0002002031D652C01306B020318742C2000DC
:1008D0006B09A0006C09A100A00A0319A10A200855
:1008E000AE002108AF00792C20006C08AF006B0827
:1008F000AE006A08803AA00080302002031D822CDE
:10090000013069020318912C20006909A0006A09CE
:10091000A100A00A0319A10A2008B0002108B10013
:10092000962C20006A08B1006908B0003108803AAE
:10093000A0002F08803A2002031DA02C2E083002B0
:10094000031C432B4D2B00300800013008008B3175
:100950006123843192308C31822484312000B000B4
:100960003008B100AB3031060319BC2C9C30310685
:100970000319BC2C00300800AB0107308731632716
:100980008431DB302000B0003008A60081308C318B
:1009900011248431F6302000B0003008A6008330E6
:1009A0008C311124843187302000B0003008A6003B
:1009B0008E308C31112484312000A6019D308C3181
:1009C000112484312000A6019E308C311124843101
:1009D00060302000B0003008A6008D308C3111242A
:1009E000843100308D318D25843102308D31B62532
:1009F000843101308C316424843100308B31E9231F
:100A00008431003A0319BA2C32308B31D623843129
:100A1000003A0319BA2CFF302000AA00FF30AB00C7
:100A20008D3166258431003A0319BA2C003020003C
:100A3000AA00AB008D313F258431003A0319BA2C4E
:100A400011302000B0003008A6008C308C31112409
:100A500084312000260827040319BA2CA601A60A0F
:100A600090308C311124843120002608270403198A
:100A7000BA2CA6019F308C31112484312000260825
:100A800027040319BA2C28308B31B0238431003A63
:100A90000319BA2C1E308B31C3238431003A031959
:100AA000BA2C40302000B0003008A600A2308C31B3
:100AB000112484312000260827040319BA2C02309F
:100AC0008E3198268431003A0319BA2C00308E31C9
:100AD000CA268431003A0319BA2C01308D31182509
:100AE0008431003A0319BA2C2000A601A4308C31BD
:100AF000112484312000260827040319BA2CA601EA
:100B0000A5308C31112484312000260827040319D4
:100B1000BA2CA601A7308C3111248431200026087C
:100B200027040319BA2CA601A9308C311124843171
:100B30002000260827040319BA2CC930B000300859
:100B4000A600A6308C311124843120002608270409
:100B50000319BA2CA601AA308C311124843120004B
:100B6000260827040319BA2C00308E310A26843156
:100B7000003A0319BA2C013008002000D601D70131
:100B80008B319D238531003A0319CC2D8B315823AD
:100B900085314139031D812E2000CF01D00108008D
:100BA000AE308C31822485312000D1005108D8002C
:100BB00058080319812E113058020318E32D2030F4
:100BC000A6000130E62DA030A6000030A70058088E
:100BD000D100D201D135D20DD135D20D5108A800A6
:100BE0005208A900FC308731B22785312000270840
:100BF000D7002608D600560A031D062E570A031DE5
:100C0000062EFF30CF000030D00008005708803A91
:100C1000D10080305102031D0F2E04305602031CF8
:100C2000812E2000D901DA015A08803AD1005708F4
:100C3000803A5102031D1E2E560859020318752EC4
:100C400020005908203E8600013087000108D100AD
:100C500024006008203E86000230870020005108F2
:100C600081005908013E203E8600013087000108BE
:100C7000D10024006008303E86000230870020004A
:100C8000510881005908023E203E8600013087004D
:100C90000108D10024006008403E86000230870031
:100CA0002000510881005908033E203E8600013093
:100CB00087000108D10024006008503E8600023001
:100CC00087002000510881000130D1005108240024
:100CD000E00701302000D10051082400E107043072
:100CE0002000D9070030DA3D142E80314E208531A6
:100CF000003A03197E2E8331192385312400E00147
:100D0000E1010A302000D100BC30890B852ED10BC7
:100D1000852E0000AF308C31822485312000D10037
:100D20005108D5005518D02D0A302000D100BC3014
:100D3000890B982ED10B982E000083311923853111
:100D400020005E08D4005D08D3008B31FC23200016
:100D50005408D0005308CF0008002000B1008B31A8
:100D6000FC238631FF302000B0003008A60083301D
:100D70008C31112486312000260827040319C32E44
:100D8000C52E0130DE2E003008008930B00030085A
:100D9000A6008E308C3111248631200026082704CD
:100DA0000319C32E03308E3166268631003A0319AB
:100DB000C32E20003108031DC12E00308E310A26BB
:100DC0008631003A0319C32E01308C31F12486316B
:100DD000003A0319C32E8B318F238631003A031951
:100DE000C32E2000AB01AB0A033087316327863165
:100DF000003A0319C32E2000AB01AB0A0230873141
:100E000063278631003A0319C32E2000AB01AB0AD9
:100E10000630873163278631003A0319C32E01302B
:100E200008002000AC01A71F1C2FA609A709A60ACD
:100E30000319A70AAC01AC0AA91F272FA809A90901
:100E4000A80A0319A90A0130AA002A08AC06AD01B4
:100E5000AE01260827040319562FAB01AB0AA71BC6
:100E60003B2F0130A635A70D890B322F0130AA0088
:100E70002A08AB072F2F0130AD35AE0D890B3C2F63
:100E800027082902031D462F26082802031C4D2F80
:100E90002608A8022708A93B2D140130A736A60C66
:100EA000890B4E2F0130AB02031D3B2F2C08031979
:100EB0005E2FAD09AE09AD0A0319AE0A2E08A700D0
:100EC0002D08A60008002000AF008B315823873181
:100ED0002000AC002C08AE002E0A031D712F00303C
:100EE00008002B080139AC002C08AB0007302F029A
:100EF0000318962F2B080319892F0130AC002F0AF5
:100F0000822FAC35890B812F2C08AD002D08AE0443
:100F1000A32F0130AC002F0A8E2FAC35890B8D2FFB
:100F20002C08FF3AAD002D08AE05A32F07302F0681
:100F3000031DA32F2B080319A22F7F30AC002C0810
:100F4000AE00A32FAE012E08AC002C08A600803006
:100F50008C311124873120002608270403196F2FB4
:100F6000013008002000AF008A31C322873172307F
:100F70008C312C24873120002F088C312C24873190
:100F80002000B0013008AA00AB0129082B02031D84
:100F9000CB2F28082A020318F12F8A31B422873177
:100FA00073308C312C2487318B316B2387312000B7
:100FB000AA003008AB00AC012B082607AD002C08B6
:100FC000273DAE002D0886002E0887002A088100E4
:100FD0008A31BD22873101302000AA002A08B007DB
:100FE000C22F8A31C92220003008AA00AB012A088A
:100FF000A6002B08A7000800240096161616080065
:101524000800080001300800F501F50A080024004D
:1015340096140800240016150800240096150800C7
:1015440024001108080020009115080020009111C2
:1015540008002000111108008A31AB220800240081
:10156400961408008A31B1220800240011080800EA
:101574002400961508008731FC270800240016145F
:1015840008008A31C02208002400161508008A3198
:10159400C622080024009612161608002400961687
:1015A400161608008A319922013008008A319922DE
:1015B400023008008A319922013008008A319C22C5
:1015C400003008008A31CC22053008008A31D0224C
:1015D4000A3008008A31D022093008001630210070
:1015E40097000800F6007608240091000800230004
:1015F4002010AA010E3008002700991C08008B3126
:10160400822308002300A0118A319F22043008009D
:1016140020002108EE002008ED0008002000A000B2
:10162400200824009100080022008E120C118C1056
:101634008C120800640080010131890B1D2B0034D9
:101644008A31932223002010AA010E3008002300BF
:10165400A01521358A31F42203300800240014082F
:1016640001392000A000200C08002400160E890C6B
:10167400890C0139F600760C08002300A015031428
:10168400210D8A31F42205300800320091019201C3
:10169400930194019501960108006230320099008B
:1016A4009B019D0103309F009E01080080308C3116
:1016B40082242000A9002908AA002A08080024007E
:1016C400951A080094012830950096010330920081
:1016D40008008A31BA228B318B3130238B31031CC1
:1016E4006E2B8A31B72208008B3147238B318F311F
:1016F40030278B318B314F238B318A31F022080014
:1017040020006D086E0403198C2B6E088A006D0886
:101714000A008B312700991008002000AB01AB0AA6
:101724000030873163278B31003A031D9B2B003037
:10173400080001300800AF308C3182248B31200046
:10174400A9002908AA000130A9002908AA052A032A
:10175400031DAE2B01300800003008002000AB0050
:101764002B08AA002A08A600A0308C3111248B3142
:10177400200026082704031DC12B00300800013077
:1017840008002000AB002B08AA002A08A600A130FC
:101794008C3111248B31200026082704031DD42BFF
:1017A40000300800013008002000AB002B08AA001C
:1017B4002A08A6008B308C3111248B312000260896
:1017C4002704031DE72B0030080001300800200027
:1017D400AB002B08AA002A08A60089308C311124FA
:1017E4008B31200026082704031DFA2B0030080043
:1017F400013008002400E001E1012000EB01EC01CC
:10180400E901EA01E701E801E501E601E301E40198
:10181400E101E201DF01E001DD01DE010800200059
:10182400A9008A31C3228C3172308C312C248C3142
:10183400200029088C312C248C31200026088C317E
:101844002C248C318A31C92201302000A6000030BA
:10185400A70008002000A30023088B3110238C313B
:101864002000A401A5012400161B352C2000250806
:10187400A2002408A100A40A0319A50A0030220228
:1018840005300319210203180800382C2000A40194
:10189400A501201C512C2208A4072308A53D0130D2
:1018A400A235A30D890B522C0130A136A00C890B53
:1018B400572C20082104031D4B2C2508A1002408C3
:1018C400A00008002000AB008F308C3182248C31C2
:1018D4002000AA002A08AC000330AA002A08AB059D
:1018E400FC30AA002A08AC052B08AA002A08AC047C
:1018F4002C08AA002A08A6008F308C311124080075
:101904002000A7008A31C3228C3172308C312C2400
:101914008C31200027088C312C248C318A31B4225C
:101924008C3173308C312C248C318B316B238C3182
:101934002000A6002608A8008A31BD228C318A31F5
:10194400C9222000280808008B3176238C318B179C
:101954000B1796302000A0000A30A1008B310A2317
:101964008C318431A7248C31003A0319BB2C22001A
:101974000C1501308631AD268C318B319D238C3191
:10198400003A0319BF2C22008E168E31FC268C31AE
:10199400BF2C8A31A8228C312300A01DDB2C8B3173
:1019A40037238C31031CDB2C0F30F900790823001A
:1019B400A90023002908F900FA01F935FA0D0030CD
:1019C4007907840090307A3D8500013F8A00003F0A
:1019D4000A008C31FB007B082300A90008002000CA
:1019E400AB00AB308C3182248C312000AA002A0851
:1019F400AC000130AA002A08AB05FE30AA002A0870
:101A0400AC052B08AA002A08AC042C08AA002A0852
:101A1400A600AB308C3111248C3120002608270419
:101A2400031D162D00300800013008002000AB0013
:101A3400A3308C3182248D312000AA002A08AC0006
:101A44000730AA002A08AB05F830AA002A08AC051A
:101A54002B08AA002A08AC042C08AA002A08A6000D
:101A6400A3308C3111248D31200026082704031D56
:101A74003D2D003008000130080020002A08AC0089
:101A84002C08AD002B08AC002C08AE002D08AC00CF
:101A94002C08A60086308C3111248D3120002608B4
:101AA4002704031D572D003008002E08AC002C0815
:101AB400A60087308C3111248D312000260827049C
:101AC4000319552D0130080020002A08AC002C0809
:101AD400AD002B08AC002C08AE002D08AC002C087F
:101AE400A60084308C3111248D312000260827046F
:101AF400031D7E2D003008002E08AC002C08A60023
:101B040085308C3111248D312000260827040319D7
:101B14007C2D013008002000AD008F308C318224F0
:101B24008D312000AA002A08AC000330AA002A083C
:101B3400AD052D08AA000530AA35FF3E031D9E2DD4
:101B44002A35AB002B08AD003F30AA002A08AC05AB
:101B54002D08AA002A08AC042C08AA002A08A6000A
:101B64008F308C31112408002000AD008F308C316F
:101B740082248D312000AA002A08AC000330AA0078
:101B84002A08AD052D08AA000130AA35FF3E031D21
:101B9400C72D2A35AB002B08AD00F330AA002A0864
:101BA400AC052D08AA002A08AC042C08AA002A08AF
:101BB400A6008F308C31112408002300A0110230BC
:101BC400F6007608AA00EC2D8A31DC2208008A315E
:101BD400E02208003908F6007608F6000F30A03E2F
:101BE400860001308700413F8A00403F0A008D3162
:101BF400F700F8017808003A0319012EE92D770857
:101C0400023A0319E62D013A0319E62DE92D0800DD
:101C14002000AC00AB308C3182248E312000AA002D
:101C24002A08AB000130AA002A08AC052C35AA000A
:101C34002A08AC00FD30AA002A08AB052C08AA002B
:101C44002A08AB042B08AA002A08A600AB308C3162
:101C540011248E31200026082704031D332E003062
:101C640008000130080023002015422E8A31DC22AE
:101C740008008A31A522033008008A31E0220800D6
:101C84003708F6007608F6000B30A03E86000130D7
:101C94008700413F8A00403F0A008E31F700F80177
:101CA4007808003A0319572E3F2E7708013A031992
:101CB4003F2E033A0319382E013A0319382E073AF6
:101CC40003193B2E3F2E08002000AD0090308C31CC
:101CD40082248E312000AA002A08AC000330AA0016
:101CE4002A08AD052D08AA000330AA35FF3E031DBE
:101CF400772E2A35AB002B08AD00CF30AA002A0876
:101D0400AC052D08AA002A08AC042C08AA002A084D
:101D1400A60090308C3111248E312000260827042F
:101D2400031D962E00300800013008002000AD008D
:101D3400A3308C3182248E312000AA002A08AC0002
:101D44000330AA002A08AD052D08AA000430AA35DC
:101D5400FF3E031DA92E2A35AB002B08AD009F3092
:101D6400AA002A08AC052D08AA002A08AC042C08ED
:101D7400AA002A08A600A3308C3111248E31200039
:101D840026082704031DC82E00300800013008006F
:101D94002000AD00A3308C3182248E312000AA00B3
:101DA4002A08AC000330AA002A08AD052D08AA00B1
:101DB4000230AA35FF3E031DDB2E2A35AB002B086B
:101DC400AD00E730AA002A08AC052D08AA002A08AD
:101DD400AC042C08AA002A08A600A3308C311124D4
:101DE4008E31200026082704031DFA2E0030080037
:101DF40001300800182F22008E1602302000DC006B
:101E04004530DB00A930890B052FDB0B052FDC0BDC
:101E1400052F00328B311623080022000C15FF2EEB
:101E240022008C14FF2E22008C16FF2E8531BD2536
:101E34008E3120005008003A0319212F2F2F4F080C
:101E4400013A0319122F033A0319152F013A031902
:101E5400FD2E073A03190F2F2F2F080022008C01A3
:101E64008D018E01113021008C00F0308D00DF30A7
:101E74008E00DD3023008E0050308D0011308C0038
:101E840024008D018C0102308E0025008C018D010F
:101E94008E01373026008C00F0308D00FF308E002C
:101EA400270099109810971492302000A0000A304F
:101EB400A1008B310A23210010160F303C00A00032
:101EC40018303D009F0019309D000D303C00A100EA
:101ED40008008A31A2228F31F600230022088600EE
:101EE4008701760881000130F6007608A2070130E8
:101EF400A3020030A43B230824040319852F8A314C
:101F0400CC220530080020158D2F8A31EC220800E0
:101F14008A31E82208003708F6007608F6000B300C
:101F2400A03E860001308700413F8A00403F0A00FE
:101F34008F31F700F8017808003A0319A22F8A2F8D
:101F44007708013A03198A2F033A0319872F013AB4
:101F54000319872F073A03198A2F8A2F08008B3118
:101F640037238F310318C02FE42F8A31D42208007D
:101F74008A31D82208008A31E022080023003A0876
:101F8400F6007608F6001130A03E86000130870086
:101F9400413F8A00403F0A008F31F700F80178087A
:101FA400003A0319D62FBD2F7708013A0319BD2F24
:101FB400033A0319B72F013A0319BA2F073A031941
:101FC400BD2FBD2F2300A0110230A03E860001309A
:101FD4008700403F84008501810A00088A31F42289
:101FE4008F3101302300A3020030A43B23082404D2
:101FF400031DFE2F0630080003300800F9340A34AC
:102004003F340B3429340B34B1340F346B340F3474
:1020140004340B3435340E34D4340A34D8340A340A
:10202400DC340A34E0340A34E4340A34E8340A345C
:0C203400EC340A3422340B34DF340D3459
:020000040001F9
:08000E00ECFFF3FFFFFFFFFF11
:00000001FF
