:020000040000FA
:0400000080312B28F8
:100008007E1480312100101E10282000101E102898
:1000180082315322803129280B1F29282100111DE4
:100028001E282000111D1E284A088A0049080A00B7
:10003800803129282100911D29282000911D292877
:1000480048088A0047080A0080317E10090080317C
:100058002D28F001F101F201F301F401F501F60197
:1000680020308400003085002C30823141228031DC
:10007800A0308400003085004430823141227E1057
:100088002000813114298231242280310318562816
:10009800792882317F22080082317B220800823150
:1000A8007322080020003A08F8007808F700113099
:1000B800203E86008701413F8A00403F0A00803188
:1000C800F900FA017A08003A03196B2853287908CD
:1000D800013A03195328033A03194D28013A031921
:1000E8005028073A0319532853282000A01102303A
:1000F800203E86008701403F84008501810A000870
:1001080082315E22803101302000A3020030A43BFE
:1001180023082404031D9228063008000330080031
:1001280082319B228031F700200022088600870157
:10013800770881000130F7007708A2070130A30291
:100148000030A43B230824040319AE2882318722F7
:10015800053008002015B628823167220800823150
:100168006B2208003708F7007708F7000B30203EAD
:1001780086008701413F8A00403F0A008031F8002D
:10018800F9017908003A0319CA28B3287808013A0E
:100198000319B328033A0319B028013A0319B02800
:1001A800073A0319B328B328080022008C018D01EF
:1001B8008E01113021008C00F0308D00DF308E0070
:1001C800DC3023008E00F0308D0001308C002400DC
:1001D8008D018C018E0125008C018D018E01373037
:1001E80026008C00F0308D00FF308E00270013129F
:1001F80012161112AC302000CC000230CD00823132
:1002080047222100101618303D00A00010303C0095
:10021800A00019303D00A10011303C00A1000800E9
:100228008131F52181318B170B178B302000CC00E1
:100238000230CD0082314722813182310122813161
:100248002400951E292922008C1644302000CE0057
:100258004E08CF0020004B080319342922008C14C3
:1002680082312C22813103182E2924001614161CE1
:100278003F2922008E1620004F08240091002200FA
:100288000C15240016152E29200020155529823119
:1002980077220800823198220330080082317322C5
:1002A80008003708F7007708F7000B30203E860073
:1002B8008701413F8A00403F0A008131F800F90177
:1002C8007908003A0319692952297808013A03196B
:1002D8005229033A03194B29013A03194B29073AC2
:1002E80003194E29522908002000A0110230F700F6
:1002F8007708AA0085298231772208008231732283
:1003080008003908F7007708F7000F30203E86000C
:100318008701413F8A00403F0A008131F800F90116
:100328007908003A0319992982297808023A0319A9
:100338007F29013A03197F298229080082319522F1
:1003480081312000A01DB229823124228131031C71
:10035800B2290F30FB007B082000A90020002908E3
:10036800FB00FC01FB35FC0DC8307B0784008130A5
:100378007C3D8500013F8A00003F0A008131FD0075
:100388007D082000A9000800593402341C340234C6
:100398003334023447340034943400344D34023456
:1003A800483401347F3402347B34023477340234E5
:1003B800733402346F3402346B34023467340234D9
:1003C8003A340234783401342000500851040319B7
:1003D800F22951088A0050080A00813127001312B7
:1003E80008008231142281318031D9208131823153
:1003F8000B2281318231632208002400951A0800FB
:10040800940128309500960103309200080062306C
:10041800320099009B019D0103309F009E01080056
:10042800320091019201930194019501960108000F
:100438002000A0150314210D82315E22053008002A
:100448002400160E890C890C0139F700770C080076
:100458002400140801392000CC004C0C08002000AE
:10046800A015213582315E22033008008231AB228B
:1004780020002010AA010E3008006400800101311C
:10048800890B422A003420004D08D1004C08D000C6
:1004980008002000A01182319E22043008002700A5
:1004A800131E08008131E821080020002010AA014D
:1004B8000E300800F7007708240091000800163075
:1004C8002100970008008231832209300800823118
:1004D80083220A30080082318722053008008231E1
:1004E800A122003008008231A422013008008231A4
:1004F800A422023008008231A4220130080024001E
:1005080096161616080024009612161608002000E3
:10051800CB01CB0A08008231922208002000111179
:1005280008002000911108002000911508002400FF
:100538001108080024009615080024001615080064
:10054800240096140800053008000130080008004F
:02055800080099
:020000040001F9
:08000E00ECFFF3FFFFFFFFFF11
:00000001FF
