:020000040000FA
:1000000080312D28053008007E1480312100101E1B
:1000100010282000101E10288831662080312B28DF
:100020000B1F2B282100111D1F282000111D1F2828
:1000300021006E088A006D080A0080312B282100FB
:10004000911D2B282000911D2B2821006C088A006F
:100050006B080A0080317E10090080312F2888311A
:1000600069208031FA00883168208031EB0044300B
:1000700084008930850060308600013087000830B8
:100080008831EB208031F601F701F801F9015D308C
:100090008400003085000E308831E5208031E53065
:1000A0008400003085000A308831E520803122004C
:1000B000E801E901A0308400013085001D3088315D
:1000C000E5208031203084000230850044308831C2
:1000D000E5207E1020008D31792D2000C501C6015C
:1000E000C701C801C101C201C301C4010530240018
:1000F000610203187D2800300800213061020318D6
:1001000047296108031947292000CD01CE018C2819
:100110000130CD070030CE3D4E08803AAF00803030
:100120002F02031D97282400610820004D020318A8
:10013000E22820004D08203E8600023087000B3068
:100140000102031C88284D08303E860002308700DB
:100150000B300102031C88284D08403E8600023007
:1001600087000B300102031C88284D08503E860092
:10017000023087000B300102031C88284D08203E06
:100180008600023087000108AF002F08C5004D0827
:10019000303E8600023087000108AF002F08C600FD
:1001A0004D08403E8600023087000108AF002F084E
:1001B000C7004D08503E8600023087000108AF009E
:1001C0002F08C8002000450803197B28460803199A
:1001D0007B28470803197B28480803197B2824003B
:1001E0006108FF3E2000CD00FF3003180030CE0034
:1001F000FD28FF30CD07FF30CE3DCE1B47294D08EF
:10020000203E8600023087000B300102031CF928D3
:100210004D08303E8600023087000B300102031C7F
:10022000F9284D08403E8600023087000B3001025D
:10023000031CF9284D08503E8600023087000B3021
:100240000102031CF9284D08203E86000230870079
:100250000108AF002F08C1004D08303E8600023073
:1002600087000108AF002F08C2004D08403E8600FD
:10027000023087000108AF002F08C3004D08503E30
:100280008600023087000108AF002F08C40020005C
:1002900045084607A600A701A70D46084502A0008D
:1002A000A101031CA1036430A2000030A3008A3125
:1002B0009622803120002108A9002008A8008E3154
:1002C000F026803120002708B2002608B100470838
:1002D0004807A600A701A70D48084702A000A101F2
:1002E000031CA1036430A2000030A3008A319622CF
:1002F000803120002108A9002008A8008E31F026B6
:10030000803120002708B4002608B30041084207C6
:10031000A600A701A70D42084102A000A101031CED
:10032000A1036430A2000030A3008A3196228031FC
:1003300020002108A9002008A8008E31F026803175
:1003400020002708B6002608B50043084407A60089
:10035000A701A70D44084302A000A101031CA103AB
:100360006430A2000030A3008A3196228031200040
:100370002108A9002008A8008E31F0268031200035
:100380002708B8002608B70031083502C90032082E
:10039000363BCA0033083702CB003408383BCC0068
:1003A0004908E7074A08E83D4B08E5074C08E63DE1
:1003B0006808803AAF0080302F02031DE1293230F7
:1003C0006702031CE82901302000E3000030F8290F
:1003D00020006808803AAF007F302F02031DF22909
:1003E000CF3067020318FA29FF302000E300FF3006
:1003F000E400FD292000E301E4016608803AAF0033
:1004000080302F02031D062A32306502031C0D2A9C
:1004100001302000E10000301D2A20006608803AEB
:10042000AF007F302F02031D172ACF30650203185B
:100430001F2AFF302000E100FF30E200222A2000C6
:10044000E101E20163086404031DCA2A6108620431
:10045000031DCA2A4A08803AAF0080302F02031DCC
:10046000332A013049020318422A20004909AF000B
:100470004A09B000AF0A0319B00A2F08B9003008C2
:10048000BA00472A20004A08BA004908B9003A08C9
:10049000803AAF0080302F02031D502A14303902F9
:1004A00003187B2820004C08803AAF0080302F02D0
:1004B000031D5C2A01304B0203186B2A20004B09F4
:1004C000AF004C09B000AF0A0319B00A2F08BB00F7
:1004D0003008BC00702A20004C08BC004B08BB0050
:1004E0003C08803AAF0080302F02031D792A143077
:1004F0003B0203187B28200049084A04031D892A6F
:100500004B084C04031D892A0130DF070030E03D11
:10051000962A49084A04031D912A4B084C040319E2
:10052000962A01302100E9070030EA3D20006008EA
:10053000803AAF0080302F02031DA02A0A305F02EC
:10054000031C7B2821006A08803A2000AF0080301D
:100550002F02031DAE2A023021006902031C7B28F2
:10056000200049084A04031DBB2A4B084C04031D04
:10057000BB2A0130C42A49084A040319C82A4B0877
:100580004C040319C82A02302100E7000030E800BB
:10059000013008004A08803AAF0080302F02031D66
:1005A000D32A013049020318E22A20004909AF008A
:1005B0004A09B000AF0A0319B00A2F08BD0030087D
:1005C000BE00E72A20004A08BE004908BD003E08D8
:1005D000803AAF0080302F02031DF02A14303D0214
:1005E00003187B2820004C08803AAF0080302F028F
:1005F000031DFC2A01304B0203180B2B20004B0972
:10060000AF004C09B000AF0A0319B00A2F08BF00B1
:100610003008C000102B20004C08C0004B08BF0061
:100620004008803AAF0080302F02031D192B143090
:100630003F0203187B28200049084A04031D282B89
:100640004B084C04031D282B0130DF070030E03D30
:100650006008803AAF0080302F02031D312B0A3032
:100660005F02031C7B282000E301E401E101E201B9
:10067000E701E801E501E6017B2821006703680442
:10068000031D492B05302200E8000030E90001304D
:100690000800023067066804031D552B063022004F
:1006A000E8000030E900013008002000630A031D63
:1006B000622B640A031D622B61086204031D622B16
:1006C0000330812B63036404031D6C2B61086204F7
:1006D000031D6C2B0430812B63086404031D762BEF
:1006E00061036204031D762B0230812B63086404CE
:1006F000031D862B610A031D862B620A031D862BB0
:1007000001302200E8000030E900CC2C630A031D10
:10071000D72B640A031DD72B61036204031DD72B5B
:100720006808803AA00080302002031D992B013018
:1007300067020318A82B20006709A0006809A10020
:10074000A00A0319A10A2008A2002108A300AD2BCA
:1007500020006808A3006708A2006608803AA0008D
:1007600080302002031DB62B013065020318C52B13
:1007700020006509A0006609A100A00A0319A10ACA
:100780002008A4002108A500CA2B20006608A500A7
:100790006508A4002508803AA0002308803A2002BA
:1007A000031DD42B22082402031C602B742B63032B
:1007B0006404031D282C610A031D282C620A031DF2
:1007C000282C6808803AA00080302002031DEA2B04
:1007D000013067020318F92B20006709A00068099F
:1007E000A100A00A0319A10A2008A6002108A70059
:1007F000FE2B20006808A7006708A6006608803A5C
:10080000A00080302002031D072C01306502031870
:10081000162C20006509A0006609A100A00A031992
:10082000A10A2008A8002108A9001B2C20006608A6
:10083000A9006508A8002908803AA0002708803A86
:100840002002031D252C26082802031C6A2B802B5E
:10085000630A031D7B2C640A031D7B2C610A031DA4
:100860007B2C620A031D7B2C6808803AA000803034
:100870002002031D3D2C0130670203184C2C200080
:100880006709A0006809A100A00A0319A10A2008AD
:10089000AA002108AB00512C20006808AB006708B3
:1008A000AA006608803AA00080302002031D5A2C5E
:1008B000013065020318692C20006509A000660953
:1008C000A100A00A0319A10A2008AC002108AD006C
:1008D0006E2C20006608AD006508AC002D08803A3B
:1008E000A0002B08803A2002031D782C2A082C0235
:1008F000031C602B802B63036404031DCA2C61035B
:100900006204031DCA2C6808803AA00080302002CF
:10091000031D8C2C0130670203189B2C20006709F3
:10092000A0006809A100A00A0319A10A2008AE00CE
:100930002108AF00A02C20006808AF006708AE00B7
:100940006608803AA00080302002031DA92C0130E7
:1009500065020318B82C20006509A0006609A100F3
:10096000A00A0319A10A2008B0002108B100BD2C7B
:1009700020006608B1006508B0003108803AA00088
:100980002F08803A2002031DC72C2E083002031CBA
:100990006A2B742B00300800013008008931552182
:1009A000843192308A31EE2284312000B000300848
:1009B000B100AB3031060319E32C9C30310603192A
:1009C000E32C00300800AB0107308E315126843112
:1009D000DB302000B0003008A60081308A315F2271
:1009E0008431F6302000B0003008A60083308A3110
:1009F0005F22843187302000B0003008A6008E309E
:100A00008A315F2284312000A6019D308A315F2225
:100A100084312000A6019E308A315F22843160300B
:100A20002000B0003008A6008D308A315F2284316A
:100A300000308B31D423843102308B31FD2384315B
:100A400001308A31D022843100308931F021843163
:100A5000003A0319E12C32308931DD218431003A2A
:100A60000319E12CFF302000AA00FF30AB008B31CE
:100A7000AD238431003A0319E12C00302000AA0094
:100A8000AB008B3186238431003A0319E12C1130FD
:100A90002000B0003008A6008C308A315F228431FB
:100AA0002000260827040319E12CA601A60A90308D
:100AB0008A315F2284312000260827040319E12CA3
:100AC000A6019F308A315F22843120002608270446
:100AD0000319E12C28308931B7218431003A0319F8
:100AE000E12C1E308931CA218431003A0319E12CEE
:100AF00040302000B0003008A600A2308A315F22CA
:100B000084312000260827040319E12C02308C319F
:100B1000DF248431003A0319E12C00308D31112596
:100B20008431003A0319E12C01308B315F23843189
:100B3000003A0319E12C2000A601A4308A315F227B
:100B400084312000260827040319E12CA601A530D2
:100B50008A315F2284312000260827040319E12C02
:100B6000A601A7308A315F2284312000260827049D
:100B70000319E12CA601A9308A315F2284312000BB
:100B8000260827040319E12CC930B0003008A6005C
:100B9000A6308A315F2284312000260827040319F9
:100BA000E12CA601AA308A315F2284312000260878
:100BB00027040319E12C00308C3151248431003A90
:100BC0000319E12C013008002000D601D70189313A
:100BD000A4218531003A0319F32D89314C21853147
:100BE0004139031DA82E2000CF01D0010800AE30EE
:100BF0008A31EE2285312000D1005108D8005808F2
:100C00000319A82E1130580203180A2E2030A6000E
:100C100001300D2EA030A6000030A7005808D100EA
:100C2000D201D135D20DD135D20D5108A8005208CC
:100C3000A900FC308D31B825853120002708D70068
:100C40002608D600560A031D2D2E570A031D2D2EE9
:100C5000FF30CF000030D00008005708803AD100A4
:100C600080305102031D362E04305602031CA82E7C
:100C70002000D901DA015A08803AD1005708803A99
:100C80005102031D452E5608590203189C2E2000C0
:100C90005908203E8600013087000108D100240059
:100CA0006008203E86000230870020005108810045
:100CB0005908013E203E8600013087000108D1001E
:100CC00024006008303E8600023087002000510872
:100CD00081005908023E203E86000130870001084D
:100CE000D10024006008403E8600023087002000CA
:100CF000510881005908033E203E860001308700DC
:100D00000108D10024006008503E860002308700B0
:100D10002000510881000130D10051082400E00773
:100D200001302000D10051082400E10704302000E8
:100D3000D9070030DA3D3B2E80316D208531003AF5
:100D40000319A52E83313D2385312400E001E10103
:100D500005302000D100DD30890BAC2ED10BAC2E3C
:100D60000032AF308A31EE2285312000D1005108A7
:100D7000D5005518F72D05302000D100DD30890B46
:100D8000BF2ED10BBF2E003283313D23853122008F
:100D900069082000D400220068082000D3008A31AE
:100DA000182220005408D0005308CF000800173044
:100DB0008A31B222863120002008AC002108AD0023
:100DC0000630AD36AC0C890BE12E2C08AE002E0897
:100DD000E9006908AC00AD012C08AF002D08B00097
:100DE0003008803AAC0080302C02031DF92E0A3006
:100DF0002F02031C072F20003008803AAC008030FF
:100E00002C02031D052F15302F02031CB42F2000C8
:100E10003008803AAC0080302C02031D112F5F3067
:100E20002F02031C1F2F20003008803AAC008030B6
:100E30002C02031D1D2F6A302F02031CB42F20002B
:100E40003008803AAC0080302C02031D292F73300B
:100E50002F02031C372F20003008803AAC0080306E
:100E60002C02031D352F80302F02031CB42F2000CD
:100E70003008803AAC0080302C02031D412F8230B4
:100E80002F02031C642F20003008803AAC00803011
:100E90002C02031D4D2F8D302F020318642F2000CC
:100EA000EA01FF30DD07FF30DE3DDE1F5B2F033040
:100EB000DD000030DE005D35603E860001308700D9
:100EC000403FA500413FB12F20003008803AAC00E0
:100ED00080302C02031D6E2F96302F02031C7C2FB6
:100EE00020003008803AAC0080302C02031D7A2F9D
:100EF0009E302F02031CB42F20003008803AAC0033
:100F000080302C02031D862FA0302F02031CB42F2B
:100F100020003008803AAC0080302C02031D922F54
:100F2000A6302F020318B42F2000EA010130DD079C
:100F30000030DE3D5E08803AAC0080302C02031D9C
:100F4000A32F04305D02031CA82F2000DD01DE0169
:100F500020005D35603E860001308700403FA500DF
:100F6000413FA6008E31A0262000E901080088310B
:100F700075208731F0002300220886008701700861
:100F800081000130F0007008A2070130A302003098
:100F9000A43B230824040319D12F88319F20053056
:100FA00008002015D92F8831BF2008008831BB20C8
:100FB00008003708F0007008F0000B30A03E8600F3
:100FC00001308700413F8A00403F0A008731F1002D
:100FD000F2017208003A0319EE2FD62F7108013A78
:100FE0000319D62F033A0319D32F013A0319D32F2C
:100FF000073A0319D62FD62F080088319C20080005
:1010CC000800080001340434013008002400961490
:1010DC0008002400161508002400961508002400AA
:1010EC00110808002000911508002000911108003B
:1010FC0020001111080088317E2008003D00A60157
:10110C000800240096140800883187200800240069
:10111C00110808002400961508008831CB2008001F
:10112C002400161408008831962008002400161597
:10113C00080024009612161608002400961616169F
:10114C00080088316C200130080088316C20023096
:10115C00080088316C200130080088316F20003085
:10116C00080088319F20053008008831A3200A3000
:10117C0008008831A320093008000C303D00A6007F
:10118C000800183021009700080024009616161647
:10119C000800F000700824009100080023002010C3
:1011AC00AA010E3008002300A011883172200430EF
:1011BC0008002000A0002008240091000800640012
:1011CC0080010131890BE6280034FE0012001E005C
:1011DC00FE0BEC2800348831672023002010AA0174
:1011EC000E3008002300A01521358831CF200330A4
:1011FC00080020008E1D0429013008000030080072
:10120C00803024009C0031309D009A01080024009D
:10121C00140801392000A000200C08002400160E30
:10122C00890C890C0139F000700C08002300A01502
:10123C000314210D8831CF20053008000130210026
:10124C009D009E019F019B019C01080061303200B2
:10125C0099009B019D019F019E01080032009101A4
:10126C00920193019401950196010800FF30200032
:10127C009E009D01911004309F0008003D34903475
:10128C0030349034203490344934903480308A3166
:10129C00EE222000A9002908AA002A080800240030
:1012AC00951A08009401283095009601033092009D
:1012BC00080088319020893189310D218931031C36
:1012CC00622988318D2008008F3025009300013071
:1012DC009200FF3091001F08FC3901389F00080074
:1012EC002000AB01AB0A00308E3151268931003A17
:1012FC00031D822900300800013008002000A000E6
:10130C0024009D13200020082400990024001C18A0
:10131C00912964008C2919080800FE308A310322B7
:10132C00893111302000A3003A30890B9B29A30B83
:10133C009B29000051308A3103220800AF308A31DA
:10134C00EE2289312000A9002908AA000130A90049
:10135C002908AA052A03031DB5290130080000300D
:10136C0008002000AB002B08AA002A08A600A03019
:10137C008A315F228931200026082704031DC829E1
:10138C0000300800013008002000AB002B08AA0038
:10139C002A08A600A1308A315F2289312000260854
:1013AC002704031DDB290030080001300800200051
:1013BC00AB002B08AA002A08A6008B308A315F22CA
:1013CC008931200026082704031DEE29003008006F
:1013DC00013008002000AB002B08AA002A08A60048
:1013EC0089308A315F228931200026082704031DA9
:1013FC00012A00300800013008002000A200220061
:10140C008E1020002208893184218A3122008E140A
:10141C0011302000A1003A30890B122AA10B122A9C
:10142C00000008002400E001E1012000E701E801D0
:10143C00E501E601E301E401E101E201DF01E00184
:10144C002100E901EA01E701E8012200E801E901D4
:10145C00080020002108A4002008A3002008840014
:10146C002108850012000319402A0130A007003022
:10147C00A13D342A23082002A0002408213BA1000E
:10148C000800893134218A318D3143258A318931E3
:10149C002C218A318831C7208A31893106218A3141
:1014AC0089316A218A31893124218A3189313C215F
:1014BC0008002000A900883199208A3172308A31C5
:1014CC007A228A31200029088A317A228A31200036
:1014DC0026088A317A228A318731FD270130200093
:1014EC00A6000030A70008002000A30023088831C4
:1014FC00DF208A312000A401A5012400161B832AB9
:10150C0020002508A2002408A100A40A0319A50A9A
:10151C000030220205300319210203180800862A24
:10152C002000A401A501201C9F2A2208A40723083F
:10153C00A53D0130A235A30D890BA02A0130A1369F
:10154C00A00C890BA52A20082104031D992A250823
:10155C00A1002408A00008002000A3002308A2007A
:10156C00A20DA20D21001D0820002206033922061F
:10157C0021009D001D1421009D1421009D1CC82AD2
:10158C006400C32A1C082000A10021001B082000B5
:10159C00A00008002000AB008F308A31EE228A3187
:1015AC002000AA002A08AC000330AA002A08AB05C8
:1015BC00FC30AA002A08AC052B08AA002A08AC04A7
:1015CC002C08AA002A08A6008F308A315F22080056
:1015DC002000A700883199208A3172308A317A2212
:1015EC008A31200027088A317A228A3188318A2070
:1015FC008A3173308A317A228A3189315F218A317A
:10160C002000A6002608A800883193208A31873153
:10161C00FD2720002808080088317B208B3123000F
:10162C00A01D222B893114218B31031C222B0F304E
:10163C00F30073082300A90023002908F300F40128
:10164C00F335F40D0030730784009030743D850041
:10165C00013F8A00003F0A008B31F500750823001A
:10166C00A90008002000AB00AB308A31EE228B3190
:10167C002000AA002A08AC000130AA002A08AB05F9
:10168C00FE30AA002A08AC052B08AA002A08AC04D4
:10169C002C08AA002A08A600AB308A315F228B31B5
:1016AC00200026082704031D5D2B003008000130A4
:1016BC0008002000AB00A3308A31EE228B312000D1
:1016CC00AA002A08AC000730AA002A08AB05F8309B
:1016DC00AA002A08AC052B08AA002A08AC042C087E
:1016EC00AA002A08A600A3308A315F228B31200081
:1016FC0026082704031D842B003008000130080045
:10170C0020002A08AC002C08AD002B08AC002C08DB
:10171C00AE002D08AC002C08A60086308A315F2262
:10172C008B31200026082704031D9E2B0030080057
:10173C002E08AC002C08A60087308A315F228B3132
:10174C0020002608270403199C2B013008002000D8
:10175C002A08AC002C08AD002B08AC002C08AE00FD
:10176C002D08AC002C08A60084308A315F228B3106
:10177C00200026082704031DC52B003008002E0866
:10178C00AC002C08A60085308A315F228B312000FA
:10179C00260827040319C32B013008002000AD00D4
:1017AC008F308A31EE228B312000AA002A08AC003F
:1017BC000330AA002A08AD052D08AA000530AA3569
:1017CC00FF3E031DE52B2A35AB002B08AD003F3047
:1017DC00AA002A08AC052D08AA002A08AC042C087B
:1017EC00AA002A08A6008F308A315F220800200048
:1017FC00AD008F308A31EE228B312000AA002A08EE
:10180C00AC000330AA002A08AD052D08AA0001304F
:10181C00AA35FF3E031D0E2C2A35AB002B08AD005C
:10182C00F330AA002A08AC052D08AA002A08AC043B
:10183C002C08AA002A08A6008F308A315F220800E3
:10184C002300A0110230F0007008AA00332C88315C
:10185C00AF2008008831B32008003908F000700868
:10186C00F0000F30A03E860001308700413F8A0017
:10187C00403F0A008C31F100F2017208003A031962
:10188C00482C302C7108023A03192D2C013A0319FB
:10189C002D2C302C08002000AC00AB308A31EE220D
:1018AC008C312000AA002A08AB000130AA002A08BB
:1018BC00AC052C35AA002A08AC00FD30AA002A0879
:1018CC00AB052C08AA002A08AB042B08AA002A088E
:1018DC00A600AB308A315F228C3120002608270409
:1018EC00031D7A2C0030080001300800230020155D
:1018FC00892C8831AF20080088317820033008000B
:10190C008831B32008003708F0007008F0000B3065
:10191C00A03E860001308700413F8A00403F0A000C
:10192C008C31F100F2017208003A03199E2C862CBE
:10193C007108013A0319862C033A03197F2C013ADA
:10194C0003197F2C073A0319822C862C08002000DF
:10195C00AD0090308A31EE228C312000AA002A088A
:10196C00AC000330AA002A08AD052D08AA000330EC
:10197C00AA35FF3E031DBE2C2A35AB002B08AD004B
:10198C00CF30AA002A08AC052D08AA002A08AC04FE
:10199C002C08AA002A08A60090308A315F228C31CC
:1019AC00200026082704031DDD2C00300800013020
:1019BC0008002000AD00A3308A31EE228C312000CB
:1019CC00AA002A08AC000330AA002A08AD052D088D
:1019DC00AA000430AA35FF3E031DF02C2A35AB00BB
:1019EC002B08AD009F30AA002A08AC052D08AA00D0
:1019FC002A08AC042C08AA002A08A600A3308A31B5
:101A0C005F228C31200026082704031D0F2D003087
:101A1C000800013008002000AD00A3308A31EE220E
:101A2C008D312000AA002A08AC000330AA002A0835
:101A3C00AD052D08AA000230AA35FF3E031D222D4C
:101A4C002A35AB002B08AD00E730AA002A08AC05FC
:101A5C002D08AA002A08AC042C08AA002A08A60003
:101A6C00A3308A315F228D31200026082704031D04
:101A7C00412D003008000130080022008C018D013E
:101A8C008E01373021008C00B0308D00B9308E00C3
:101A9C00F43023008E008D0111308C0024008D0158
:101AAC008C018E0125008C018D018E0137302600B2
:101ABC008C00F0308D00FF308E00210010160C30A1
:101ACC003C009E000F30A0001A303D009E001830E4
:101ADC009F0019309D001B30A2000D303C00A1006E
:101AEC000E309D0008008A3147228D318B170B1761
:101AFC00893193218D318831FF208D31003A0319C2
:101B0C008E2D8431CE248D3100308F319C278D3138
:101B1C008831FF208D312000DC005C082100E400BE
:101B2C00640803198E2D20006B03031DAB2D5D354E
:101B3C00603E860001308700403FA500413FA60073
:101B4C008E31A0268D312000EB018631D7268D31C8
:101B5C008931A4218D31003A03198E2D8F31422702
:101B6C008D318E2D2000AF00883199208D3172304F
:101B7C008A317A228D3120002F088A317A228D31D8
:101B8C002000B0013008AA00AB0129082B02031D6C
:101B9C00D12D28082A020318F72D88318A208D317F
:101BAC0073308A317A228D3189315F218D31200059
:101BBC00AA003008AB00AC012B082607AD002C089E
:101BCC00273DAE002D0886002E0887002A088100CC
:101BDC00883193208D3101302000AA002A08B007EB
:101BEC00C82D8731FD2720003008AA00AB012A0838
:101BFC00A6002B08A7000800893114218E31031888
:101C0C00112E352E8831A72008008831AB20080012
:101C1C008831B320080023003A08F0007008F00067
:101C2C001130A03E860001308700413F8A00403FC2
:101C3C000A008E31F100F2017208003A0319272EC6
:101C4C000E2E7108013A03190E2E033A0319082EB1
:101C5C00013A03190B2E073A03190E2E0E2E2300F0
:101C6C00A0110230A03E860001308700403F840066
:101C7C008501810A00088831CF208E310130230084
:101C8C00A3020030A43B23082404031D4F2E06306E
:101C9C000800033008002000AF0089314C218E3140
:101CAC002000AC002C08AE002E0A031D5F2E003065
:101CBC0008002B080139AC002C08AB0007302F02B0
:101CCC000318842E2B080319772E0130AC002F0A31
:101CDC00702EAC35890B6F2E2C08AD002D08AE0480
:101CEC00912E0130AC002F0A7C2EAC35890B7B2E4B
:101CFC002C08FF3AAD002D08AE05912E07302F06AB
:101D0C00031D912E2B080319902E7F30AC002C084C
:101D1C00AE00912EAE012E08AC002C08A60080302F
:101D2C008A315F228E3120002608270403195D2E8C
:101D3C00013008008831C3208E3121302000A700EB
:101D4C007630890BA72EA70BA72E00008831842094
:101D5C008E31FE308A3103228E3111302000A700E3
:101D6C003A30890BB72EA70BB72E000051308A31B1
:101D7C0003228E3120002608A1002508A0008A31FC
:101D8C002F228E3120002108A9002008A800AA01CA
:101D9C00AB012B08803AA7002908803A2702031DC3
:101DAC00D92E28082A020318EC2E200025082A0711
:101DBC00840026082B3D850000088A3103228E31D1
:101DCC0001302000AA070030AB3DCF2E2000EA01E5
:101DDC00EA0A08002000AC01A71FFB2EA609A709E0
:101DEC00A60A0319A70AAC01AC0AA91F062FA80959
:101DFC00A909A80A0319A90A0130AA002A08AC06E5
:101E0C00AD01AE01260827040319352FAB01AB0A2F
:101E1C00A71B1A2F0130A635A70D890B112F0130E6
:101E2C00AA002A08AB070E2F0130AD35AE0D890B79
:101E3C001B2F27082902031D252F26082802031C07
:101E4C002C2F2608A8022708A93B2D140130A736F1
:101E5C00A60C890B2D2F0130AB02031D1A2F2C0859
:101E6C0003193D2FAD09AE09AD0A0319AE0A2E08B0
:101E7C00A7002D08A60008007C2FEA010130DD0721
:101E8C000030DE3D5E08803ADB0080305B02031DD3
:101E9C00512F04305D02031C562F2000DD01DE01A2
:101EAC0020005D35603E860001308700403FA50074
:101EBC00413FA6008E31A0268F31992FEA01FF30C9
:101ECC00DD07FF30DE3DDE1F6F2F0330DD000030FD
:101EDC00DE005D35603E860001308700403FA50086
:101EEC00413FA6008E31A0268F31992F8531E425F4
:101EFC008F3120005008003A0319852F992F4F0875
:101F0C00013A0319432F033A0319642F013A0319B9
:101F1C00992F073A0319992F013A0319992F033A6C
:101F2C000319992F992F2000EA0108002000B10015
:101F3C008A3118228F31FF302000B0003008A60003
:101F4C0083308A315F228F31200026082704031941
:101F5C00B22FB42F0130CD2F003008008930B000E3
:101F6C003008A6008E308A315F228F31200026087F
:101F7C0027040319B22F03308C31AD248F31003A72
:101F8C000319B22F20003108031DB02F00308C3103
:101F9C0051248F31003A0319B22F01308B31382381
:101FAC008F31003A0319B22F893176218F31003AE3
:101FBC000319B22F2000AB01AB0A03308E3151262E
:101FCC008F31003A0319B22F2000AB01AB0A02305B
:101FDC008E3151268F31003A0319B22F2000AB01FC
:101FEC00AB0A06308E3151268F31003A0319B22FCD
:101FFC0001300800D43408341C340934F834083463
:10200C0002340E34B7340734D93408347C340C34ED
:10201C00A7340834AB340834AF340834B334083440
:10202C00B7340834BB340834BF340834F1340834C2
:10203C0026340C3441346C346534783461346E3469
:10204C006434723461342034463479346634663402
:10205C00653400344E346F3465346C346C34653410
:10206C0020344334723461346E34653400344A3471
:10207C0075347334743469346E34203443346834B6
:10208C0061346E3400344A3465346634663420343A
:0C209C0047346534693473347334003405
:020000040001F9
:08000E00ECFFF7FFFFFFFFFF0D
:00000001FF
