:020000040000FA
:1000000080312B28053008007E1480312100101E1D
:1000100010282000101E10288931852180312928C0
:100020000B1F29282100111D1E282000111D1E282C
:100030006D088A006C080A00803129282100911D72
:1000400029282000911D29286B088A006A080A00C7
:1000500080317E10090080312D288731FF278031C3
:10006000FB00893187218031EF005E3084008A30C7
:100070008500603086000130870008308A310C220C
:100080008031F601F701F801F901FA015C308400D2
:100090000030850013308A31062280312100E001D2
:1000A000E101E201E3012200E801E901A03084005E
:1000B000013085001D308A310622803120308400D5
:1000C0000230850044308A3106227E1020008D31B6
:1000D0005A2D2000C501C601C701C801C101C201D6
:1000E000C301C401053024006102031879280030DF
:1000F00008002130610203184329610803194329CC
:100100002000CD01CE0188280130CD070030CE3D42
:100110004E08803AAF0080302F02031D9328240040
:10012000610820004D020318DE2820004D08203E03
:100130008600023087000B300102031C84284D0822
:10014000303E8600023087000B300102031C8428F9
:100150004D08403E8600023087000B300102031C30
:1001600084284D08503E8600023087000B30010283
:10017000031C84284D08203E8600023087000108B9
:10018000AF002F08C5004D08303E860002308700C2
:100190000108AF002F08C6004D08403E860002301F
:1001A00087000108AF002F08C7004D08503E8600A9
:1001B000023087000108AF002F08C8002000450862
:1001C0000319772846080319772847080319772861
:1001D00048080319772824006108FF3E2000CD005D
:1001E000FF3003180030CE00F928FF30CD07FF3074
:1001F000CE3DCE1B43294D08203E860002308700AD
:100200000B300102031CF5284D08303E86000230F9
:1002100087000B300102031CF5284D08403E860084
:10022000023087000B300102031CF5284D08503EB8
:100230008600023087000B300102031CF5284D08B0
:10024000203E8600023087000108AF002F08C10061
:100250004D08303E8600023087000108AF002F08AD
:10026000C2004D08403E8600023087000108AF0002
:100270002F08C3004D08503E860002308700010859
:10028000AF002F08C400200045084607A600A701BC
:10029000A70D46084502A000A101031CA10364307C
:1002A000A2000030A3008B31B02380312000210850
:1002B000A9002008A80087318F2780312000270857
:1002C000B2002608B10047084807A600A701A70DFD
:1002D00048084702A000A101031CA1036430A2004A
:1002E0000030A3008B31B023803120002108A90009
:1002F0002008A80087318F27803120002708B4000C
:100300002608B30041084207A600A701A70D42082E
:100310004102A000A101031CA1036430A20000302F
:10032000A3008B31B023803120002108A9002008D0
:10033000A80087318F27803120002708B6002608C3
:10034000B50043084407A600A701A70D44084302CF
:10035000A000A101031CA1036430A2000030A3008F
:100360008B31B023803120002108A9002008A8008B
:1003700087318F27803120002708B8002608B70072
:1003800031083502C9003208363BCA00330837024B
:10039000CB003408383BCC004908E8074A08E93D5F
:1003A0004B08E6074C08E73D6908803AAF0080300B
:1003B0002F02031DDD2932306802031CE4290130BD
:1003C0002000E4000030F42920006908803AAF00E2
:1003D0007F302F02031DEE29CF3068020318F62963
:1003E000FF302000E400FF30E500F9292000E4019F
:1003F000E5016708803AAF0080302F02031D022A12
:1004000032306602031C092A01302000E20000306D
:10041000192A20006708803AAF007F302F02031DA1
:10042000132ACF30660203181B2AFF302000E20097
:10043000FF30E3001E2A2000E201E30164086504A6
:10044000031DC52A62086304031DC52A4A08803AB1
:10045000AF0080302F02031D2F2A013049020318FC
:100460003E2A20004909AF004A09B000AF0A03192B
:10047000B00A2F08B9003008BA00432A20004A0801
:10048000BA004908B9003A08803AAF0080302F021C
:10049000031D4C2A143039020318772820004C0819
:1004A000803AAF0080302F02031D582A01304B02E2
:1004B0000318672A20004B09AF004C09B000AF0AAF
:1004C0000319B00A2F08BB003008BC006C2A2000BA
:1004D0004C08BC004B08BB003C08803AAF008030A1
:1004E0002F02031D752A14303B02031877282000C1
:1004F00049084A04031D852A4B084C04031D852A1C
:100500000130E0070030E13D922A49084A04031D0A
:100510008D2A4B084C040319922A01302100E2076E
:100520000030E33D20006108803AAF0080302F02A8
:10053000031D9C2A0A306002031C772821006308EF
:10054000803A2000AF0080302F02031DAA2A02301B
:1005500021006202031C7728200049084A04031D79
:10056000B72A4B084C04031DB72A0130C02A49089A
:100570004A040319C32A4B084C040319C32A023046
:10058000DE000030DF00013008004A08803AAF008A
:1005900080302F02031DCE2A013049020318DD2AC4
:1005A00020004909AF004A09B000AF0A0319B00A98
:1005B0002F08BD003008BE00E22A20004A08BE0015
:1005C0004908BD003E08803AAF0080302F02031D6D
:1005D000EB2A14303D020318772820004C08803A9B
:1005E000AF0080302F02031DF72A01304B020318A1
:1005F000062B20004B09AF004C09B000AF0A0319CD
:10060000B00A2F08BF003008C0000B2B20004C0898
:10061000C0004B08BF004008803AAF0080302F0276
:10062000031D142B14303F020318772820004908BB
:100630004A04031D232B4B084C04031D232B0130BC
:10064000E0070030E13D6108803AAF0080302F02C2
:10065000031D2C2B0A306002031C77282000E401C4
:10066000E501E201E301E801E901E601E70177289C
:1006700020005E035F04031D442B05302200E800C8
:100680000030E9000130080002305E065F04031DFF
:10069000502B06302200E8000030E900013008004D
:1006A000640A031D5C2B650A031D5C2B620863044E
:1006B000031D5C2B03307B2B64036504031D662B39
:1006C00062086304031D662B04307B2B64086504F9
:1006D000031D702B62036304031D702B02307B2B00
:1006E00064086504031D802B620A031D802B630AC6
:1006F000031D802B01302200E8000030E900C62CE9
:10070000640A031DD12B650A031DD12B6203630408
:10071000031DD12B6908803AA00080302002031D00
:10072000932B013068020318A22B20006809A00057
:100730006909A100A00A0319A10A2008A200210842
:10074000A300A72B20006908A3006808A20067087F
:10075000803AA00080302002031DB02B01306602D9
:100760000318BF2B20006609A0006709A100A00A9A
:100770000319A10A2008A4002108A500C42B200009
:100780006708A5006608A4002508803AA000230891
:10079000803A2002031DCE2B22082402031C5A2B70
:1007A0006E2B64036504031D222C620A031D222C98
:1007B000630A031D222C6908803AA00080302002C1
:1007C000031DE42B013068020318F32B2000680995
:1007D000A0006909A100A00A0319A10A2008A60027
:1007E0002108A700F82B20006908A7006808A600C8
:1007F0006708803AA00080302002031D012C0130E0
:1008000066020318102C20006609A0006709A100E9
:10081000A00A0319A10A2008A8002108A900152C84
:1008200020006708A9006608A8002908803AA000EF
:100830002708803A2002031D1F2C26082802031CCB
:10084000642B7A2B640A031D752C650A031D752C15
:10085000620A031D752C630A031D752C6908803A12
:10086000A00080302002031D372C013068020318DD
:10087000462C20006809A0006909A100A00A0319FC
:10088000A10A2008AA002108AB004B2C200069080F
:10089000AB006808AA006708803AA00080302002F8
:1008A000031D542C013066020318632C20006609D6
:1008B000A0006709A100A00A0319A10A2008AC0042
:1008C0002108AD00682C20006708AD006608AC0068
:1008D0002D08803AA0002B08803A2002031D722CBC
:1008E0002A082C02031C5A2B7A2B64036504031D6F
:1008F000C42C62036304031DC42C6908803AA00061
:1009000080302002031D862C013068020318952CCC
:1009100020006809A0006909A100A00A0319A10A22
:100920002008AE002108AF009A2C20006908AF0013
:100930006808AE006708803AA00080302002031DDE
:10094000A32C013066020318B22C20006609A00017
:100950006709A100A00A0319A10A2008B000210814
:10096000B100B72C20006708B1006608B00031085C
:10097000803AA0002F08803A2002031DC12C2E08C7
:100980003002031C642B6E2B00300800013008007D
:100990008A316F22843192308B31CC238431200014
:1009A000B0003008B100AB3031060319DD2C9C30AB
:1009B00031060319DD2C00300800AB0107308F3100
:1009C00061278431DB302000B0003008A600813080
:1009D0008B3179238431F6302000B0003008A60036
:1009E00083308B317923843187302000B000300888
:1009F000A6008E308B31792384312000A6019D30F2
:100A00008B31792384312000A6019E308B317923EC
:100A1000843160302000B0003008A6008D308B316A
:100A20007923843100308C31B224843102308C310E
:100A3000DB24843101308731E127843100308B3170
:100A400009238431003A0319DB2C32308A31F62233
:100A50008431003A0319DB2CFF302000AA00FF305C
:100A6000AB008C318B248431003A0319DB2C00302D
:100A70002000AA00AB008C3164248431003A0319B1
:100A8000DB2C11302000B0003008A6008C308B31F8
:100A9000792384312000260827040319DB2CA601C2
:100AA000A60A90308B317923843120002608270450
:100AB0000319DB2CA6019F308B3179238431200070
:100AC000260827040319DB2C28308A31D0228431F0
:100AD000003A0319DB2C1E308A31E3228431003ABC
:100AE0000319DB2C40302000B0003008A600A230F3
:100AF0008B31792384312000260827040319DB2C4D
:100B000002308D31E8258431003A0319DB2C0030A6
:100B10008E311A268431003A0319DB2C01308C31D6
:100B20003D248431003A0319DB2C2000A601A430B7
:100B30008B31792384312000260827040319DB2C0C
:100B4000A601A5308B3179238431200026082704A3
:100B50000319DB2CA601A7308B31792384312000C7
:100B6000260827040319DB2CA601A9308B31792331
:100B700084312000260827040319DB2CC930B0007B
:100B80003008A600A6308B31792384312000260856
:100B900027040319DB2CA601AA308B317923843179
:100BA0002000260827040319DB2C00308D312F2567
:100BB0008431003A0319DB2C013008002000D601F3
:100BC000D7018A31BD228531003A0319ED2D8A31D2
:100BD000662285314139031DA22E2000CF01D001AC
:100BE0000800AE308B31CC2385312000D100510874
:100BF000D80058080319A22E113058020318042EE9
:100C00002030A6000130072EA030A6000030A7003B
:100C10005808D100D201D135D20DD135D20D5108AD
:100C2000A8005208A900FC308E31C826853120006A
:100C30002708D7002608D600560A031D272E570A74
:100C4000031D272EFF30CF000030D00008005708CA
:100C5000803AD10080305102031D302E04305602FC
:100C6000031CA22E2000D901DA015A08803AD100D3
:100C70005708803A5102031D3F2E560859020318A7
:100C8000962E20005908203E86000130870001087A
:100C9000D10024006008203E86000230870020003A
:100CA000510881005908013E203E8600013087002E
:100CB0000108D10024006008303E86000230870021
:100CC0002000510881005908023E203E8600013074
:100CD00087000108D10024006008403E86000230F1
:100CE00087002000510881005908033E203E8600FD
:100CF000013087000108D10024006008503E8600C2
:100D0000023087002000510881000130D1005108D5
:100D10002400E00701302000D10051082400E10741
:100D200004302000D9070030DA3D352E80316920AB
:100D30008531003A03199F2E8331382385312400F1
:100D4000E001E10105302000D100DD30890BA62E45
:100D5000D10BA62E0032AF308B31CC238531200051
:100D6000D1005108D5005518F12D05302000D100D3
:100D7000DD30890BB92ED10BB92E003283313823E7
:100D80008531220069082000D40022006808200074
:100D9000D3008B31492320005408D0005308CF00E2
:100DA00008002000B1008B3149238631FF3020003C
:100DB000B0003008A60083308B31792386312000C3
:100DC000260827040319E72EE92E0130022F0030F0
:100DD00008008930B0003008A6008E308B317923AE
:100DE00086312000260827040319E72E03308D31B1
:100DF000B6258631003A0319E72E20003108031D7D
:100E0000E52E00308D312F258631003A0319E72E6B
:100E100001308C3116248631003A0319E72E8A31CD
:100E20008F228631003A0319E72E2000AB01AB0A6E
:100E300003308F3161278631003A0319E72E2000F5
:100E4000AB01AB0A02308F3161278631003A0319BA
:100E5000E72E2000AB01AB0A06308F3161278631C7
:100E6000003A0319E72E013008006F2FEE01013020
:100E7000DC070030DD3D5D08803ADB0080305B023E
:100E8000031D442F04305C02031C492F2000DC01A9
:100E9000DD0120005C35603E860001308700403F68
:100EA000A500413FA6008F31B02787318C2FEE017E
:100EB000FF30DC07FF30DD3DDD1F622F0330DC003B
:100EC0000030DD005C35603E860001308700403F29
:100ED000A500413FA6008F31B02787318C2F853187
:100EE000DE25873120005008003A0319782F8C2F17
:100EF0004F08013A0319362F033A0319572F013AC5
:100F000003198C2F073A03198C2F013A03198C2FE0
:100F1000033A03198C2F8C2F2000EE0108002000CB
:100F2000AC01A71F9A2FA609A709A60A0319A70AA9
:100F3000AC01AC0AA91FA52FA809A909A80A031981
:100F4000A90A0130AA002A08AC06AD01AE012608A4
:100F500027040319D42FAB01AB0AA71BB92F01300B
:100F6000A635A70D890BB02F0130AA002A08AB07C0
:100F7000AD2F0130AD35AE0D890BBA2F27082902F0
:100F8000031DC42F26082802031CCB2F2608A80205
:100F90002708A93B2D140130A736A60C890BCC2FAE
:100FA0000130AB02031DB92F2C080319DC2FAD094A
:100FB000AE09AD0A0319AE0A2E08A7002D08A60037
:100FC00008002000AB008F308B31CC23873120000C
:100FD000AA002A08AC000330AA002A08AB05FC309E
:100FE000AA002A08AC052B08AA002A08AC042C0881
:100FF000AA002A08A6008F308B3179230800043418
:10130A00080008000134013008002400961408007F
:10131A002400161508002400961508002400110858
:10132A0008002000911508002000911108002000F3
:10133A001111080089319C21080024009614080024
:10134A008931A221080024001108080024009615FA
:10135A0008008931E82108002400161408008931A0
:10136A00B12108002400161508008931B7210800A8
:10137A003D00A60108002400961216160800240053
:10138A0096161616080089318A210130080089311B
:10139A008A210230080089318A2101300800893106
:1013AA008D21003008008931C021053008008931BB
:1013BA00C4210A3008008931C421093008001830D4
:1013CA0021009700080024009616161608000C3013
:1013DA003D00A6000800F0007008240091000800F3
:1013EA0023002010AA010E3008002300A011893121
:1013FA009021043008002000A00020082400910059
:10140A000800640080010131890B072A0034FE00BC
:10141A0012001E00FE0B0D2A00348931862123009A
:10142A002010AA010E3008002300A01521358931A9
:10143A00F02103300800803024009C0030309D00E9
:10144A009A0108002400140801392000A000200C89
:10145A0008002400160E890C890C0139F000700C62
:10146A0008002300A0150314210D8931F02105304D
:10147A000800013021009D009E019F019B019C01F3
:10148A0008006130320099009B019D019F019E0175
:10149A00080032009101920193019401950196018D
:1014AA0008007F3020009E009D01911004309F00AB
:1014BA0008003D3490343034903420349034493428
:1014CA00903480308B31CC232000A9002908AA004F
:1014DA002A0808002400951A08009401283095006B
:1014EA0096010330920008008F3025009300920184
:1014FA00FF3091001F08FC3901389F00080089312C
:10150A00AB218A318A3127228A31031C872A893101
:10151A00A82108002000AB01AB0A00308F316127F7
:10152A008A31003A031D9B2A003008000130080066
:10153A002000A00024009D13200020082400990008
:10154A0024001C18AA2A6400A52A19080800FE30DB
:10155A008B311C238A3109302000A3001C30890BEF
:10156A00B42AA30BB42A000051308B311C23080083
:10157A00AF308B31CC238A312000A9002908AA0078
:10158A000130A9002908AA052A03031DCE2A013021
:10159A000800003008002000AB002B08AA002A0827
:1015AA00A600A0308B3179238A312000260827042F
:1015BA00031DE12A00300800013008002000AB00BA
:1015CA002B08AA002A08A600A1308B3179238A3178
:1015DA00200026082704031DF42A003008000130E1
:1015EA0008002000AB002B08AA002A08A6008B30AE
:1015FA008B3179238A31200026082704031D072B03
:10160A0000300800013008002000AB002B08AA00B7
:10161A002A08A60089308B3179238B3120002608CD
:10162A002704031D1A2B003008000130080020008F
:10163A00A20022000E10200022088A319D228B313E
:10164A0022000E1409302000A1001C30890B2B2B1C
:10165A00A10B2B2B000008008A314E228B318E31D0
:10166A004C268B318A3146228B318931E4218B31E8
:10167A008A3120228B318A3179228B318A313E227A
:10168A008B318A31562208002400E001E101200052
:10169A00E801E901E601E701E401E501E201E3010C
:1016AA00E001E1012100E201E3012000DE01DF01A6
:1016BA002200E801E901080020002108A40020080E
:1016CA00A300200884002108850012000319722B48
:1016DA000130A0070030A13D662B23082002A0009C
:1016EA002408213BA10008002000A9008931B42167
:1016FA008B3172308B3194238B31200029088B3146
:10170A0094238B31200026088B3194238B31893125
:10171A00BA2101302000A6000030A70008002000EE
:10172A00A30023088A3100228B312000A401A501DD
:10173A002400161B9D2B20002508A2002408A100C6
:10174A00A40A0319A50A003022020530031921024E
:10175A0003180800A02B2000A401A501201CB92B06
:10176A002208A4072308A53D0130A235A30D890B41
:10177A00BA2B0130A136A00C890BBF2B20082104FB
:10178A00031DB32B2508A1002408A000080020008F
:10179A00A7008931B4218B3172308B3194238B317C
:1017AA00200027088B3194238B318931A5218B3175
:1017BA0073308B3194238B318A3184228B31200010
:1017CA00A6002608A8008931AE218B318931BA21B9
:1017DA00200028080800893199218B312300A01D97
:1017EA00002C8A312E228B31031C002C0F30F3007F
:1017FA0073082300A90023002908F300F401F33534
:10180A00F40D0030730784009030743D8500013F69
:10181A008A00003F0A008C31F50075082300A900F0
:10182A0008002000AB00AB308B31CC238C31200078
:10183A00AA002A08AC000130AA002A08AB05FE302B
:10184A00AA002A08AC052B08AA002A08AC042C080E
:10185A00AA002A08A600AB308B3179238C312000EC
:10186A0026082704031D3B2C00300800013008001D
:10187A002000AB00A3308B31CC238C312000AA008E
:10188A002A08AC000730AA002A08AB05F830AA00DB
:10189A002A08AC052B08AA002A08AC042C08AA00BE
:1018AA002A08A600A3308B3179238C312000260820
:1018BA002704031D622C00300800013008002000B4
:1018CA002A08AC002C08AD002B08AC002C08AE008E
:1018DA002D08AC002C08A60086308B3179238C3178
:1018EA00200026082704031D7C2C003008002E083F
:1018FA00AC002C08A60087308B3179238C3120006C
:10190A002608270403197A2C0130080020002A0827
:10191A00AC002C08AD002B08AC002C08AE002D083A
:10192A00AC002C08A60084308B3179238C3120003E
:10193A0026082704031DA32C003008002E08AC003B
:10194A002C08A60085308B3179238C31200026089B
:10195A0027040319A12C013008002000AD008F30A4
:10196A008B31CC238C312000AA002A08AC0003302A
:10197A00AA002A08AD052D08AA000530AA35FF3E9F
:10198A00031DC32C2A35AB002B08AD003F30AA003B
:10199A002A08AC052D08AA002A08AC042C08AA00BB
:1019AA002A08A6008F308B31792308002000AD0069
:1019BA008F308B31CC238C312000AA002A08AC004E
:1019CA000330AA002A08AD052D08AA000130AA355D
:1019DA00FF3E031DEC2C2A35AB002B08AD00F3307B
:1019EA00AA002A08AC052D08AA002A08AC042C086B
:1019FA00AA002A08A6008F308B3179230800230019
:101A0A00A0110230F0007008AA00112D8931D021EE
:101A1A0008008931D42108003908F0007008F00064
:101A2A000F30A03E860001308700413F8A00403FC8
:101A3A000A008D31F100F2017208003A0319262DCD
:101A4A000E2D7108023A03190B2D013A03190B2DB9
:101A5A000E2D08002000AC00AB308B31CC238D3129
:101A6A002000AA002A08AB000130AA002A08AC0507
:101A7A002C35AA002A08AC00FD30AA002A08AB05BA
:101A8A002C08AA002A08AB042B08AA002A08A600D8
:101A9A00AB308B3179238D31200026082704031DB2
:101AAA00582D00300800013008008B3131238D3168
:101ABA008B170B178A31AC228D318431C8248D31B2
:101ACA0000308631D1268D3120006F03031D7B2D16
:101ADA005C35603E860001308700403FA500413FEB
:101AEA00A6008F31B0278D312000EF018A31BD2247
:101AFA008D31003A0319692D873135278D31692DCA
:101B0A0023002015922D8931D02108008931962190
:101B1A00033008008931D42108003708F000700822
:101B2A00F0000B30A03E860001308700413F8A005A
:101B3A00403F0A008D31F100F2017208003A0319A0
:101B4A00A72D8F2D7108013A03198F2D033A031916
:101B5A00882D013A0319882D073A03198B2D8F2DE9
:101B6A0008002000AD0090308B31CC238D3120004D
:101B7A00AA002A08AC000330AA002A08AD052D08DD
:101B8A00AA000330AA35FF3E031DC72D2A35AB0034
:101B9A002B08AD00CF30AA002A08AC052D08AA00F0
:101BAA002A08AC042C08AA002A08A60090308B3117
:101BBA0079238D31200026082704031DE62D0030E5
:101BCA000800013008002000AD00A3308B31CC237F
:101BDA008D312000AA002A08AC000330AA002A0886
:101BEA00AD052D08AA000430AA35FF3E031DF92DC4
:101BFA002A35AB002B08AD009F30AA002A08AC0595
:101C0A002D08AA002A08AC042C08AA002A08A60053
:101C1A00A3308B3179238D31200026082704031D38
:101C2A00182E00300800013008002000AD00A33053
:101C3A008B31CC238E312000AA002A08AC00033055
:101C4A00AA002A08AD052D08AA000230AA35FF3ECF
:101C5A00031D2B2E2A35AB002B08AD00E730AA0056
:101C6A002A08AC052D08AA002A08AC042C08AA00E8
:101C7A002A08A600A3308B3179238E31200026084A
:101C8A002704031D4A2E00300800013008002200F4
:101C9A008C018D018E01373021008C00B0308D000F
:101CAA00BA308E00F43023008E008D0111308C0082
:101CBA0024008D018C018E0125008C018D018E017D
:101CCA00373026008C00F0308D00FF308E00210066
:101CDA0010160C303C009E000F30A0001A303D0058
:101CEA009E0018309F0019309D001B30A2000D3055
:101CFA003C00A1000E309D000800893193218E31ED
:101D0A00F000230022088600870170088100013054
:101D1A00F0007008A2070130A3020030A43B230898
:101D2A00240403199C2E8931C0210530080020158E
:101D3A00A42E8931E02108008931DC210800370806
:101D4A00F0007008F0000B30A03E860001308700DA
:101D5A00413F8A00403F0A008E31F100F2017208C9
:101D6A00003A0319B92EA12E7108013A0319A12EBE
:101D7A00033A03199E2E013A03199E2E073A0319B4
:101D8A00A12EA12E08002000AF008931B4218E3186
:101D9A0072308B3194238E3120002F088B3194239B
:101DAA008E312000B0013008AA00AB0129082B02AD
:101DBA00031DE12E28082A020318072F8931A521BD
:101DCA008E3173308B3194238E318A3184228E3155
:101DDA002000AA003008AB00AC012B082607AD0092
:101DEA002C08273DAE002D0886002E0887002A08F9
:101DFA0081008931AE218E3101302000AA002A08E3
:101E0A00B007D82E8931BA2120003008AA00AB01C8
:101E1A002A08A6002B08A70008008A312E228F3133
:101E2A000318212F452F8931C82108008931CC2177
:101E3A0008008931D421080023003A08F00070080C
:101E4A00F0001130A03E860001308700413F8A0031
:101E5A00403F0A008F31F100F2017208003A03197B
:101E6A00372F1E2F7108013A03191E2F033A03193F
:101E7A00182F013A03191B2F073A03191E2F1E2F79
:101E8A002300A0110230A03E860001308700403FA7
:101E9A0084008501810A00088931F0218F310130DF
:101EAA002300A3020030A43B23082404031D5F2F50
:101EBA0006300800033008002000AF008A3166228D
:101ECA008F312000AC002C08AE002E0A031D6F2FA4
:101EDA00003008002B080139AC002C08AB00073091
:101EEA002F020318942F2B080319872F0130AC00F7
:101EFA002F0A802FAC35890B7F2F2C08AD002D08B7
:101F0A00AE04A12F0130AC002F0A8C2FAC35890BFF
:101F1A008B2F2C08FF3AAD002D08AE05A12F0730F4
:101F2A002F06031DA12F2B080319A02F7F30AC0009
:101F3A002C08AE00A12FAE012E08AC002C08A6007A
:101F4A0080308B3179238F3120002608270403192A
:101F5A006D2F013008008931EC218F3111302000BA
:101F6A00A7003A30890BB72FA70BB72F000089318A
:101F7A00BD218F31FE308B311C238F310930200077
:101F8A00A7001C30890BC72FA70BC72F00005130A1
:101F9A008B311C238F3120002608A1002508A000C0
:101FAA008B3161238F3120002108A9002008A80065
:101FBA00AA01AB012B08803AA7002908803A270218
:101FCA00031DE92F28082A020318FC2F20002508E0
:101FDA002A07840026082B3D850000088B311C2324
:101FEA008F3101302000AA070030AB3DDF2F2000DF
:101FFA00EE01EE0A0800F534093436340A3419348D
:10200A000A3412340F3482340E34FA3409348534E3
:10201A000D34C8340934CC340934D0340934D434B6
:10202A000934D8340934DC340934E034093412343C
:10203A000A3404340D3441346C34653478346134F0
:10204A006E346434723461342034463479346634FC
:10205A006634653400344E346F3465346C346C3411
:10206A00653420344334723461346E346534003458
:10207A004A3475347334743469346E3420344334D6
:10208A00683461346E3400344A34653466346634F4
:0E209A002034473465346934733473340034B1
:020000040001F9
:08000E00ECFFF7FFFFFFFFFF0D
:00000001FF
