:020000040000FA
:08000000803102288731EE2F48
:100E1600FE344B34FE34613418302100970008004C
:100E26008030240094003030950092010800623032
:100E3600320099009B019D019F019E01080032002E
:100E46009101920193019401950196010800F00029
:100E5600240095137008910024001418342F6400A0
:100E66002F2F11080800873122278731873157270E
:100E7600873187311A27873187310F2787318731A5
:100E860013270800F20022000E10720887312A2765
:100E9600873122000E140930F1001C30890B512FC6
:100EA600F10B512F0032080022008C018D01013018
:100EB6008E00373021008C00B0308D00FA308E0065
:100EC600FF3023008E00A0308D0037308C002400C8
:100ED6008D018C018E0125008C018D018E0137302C
:100EE60026008C00F0308D00FF308E000E303C0066
:100EF600A00018303D009E001930A2000C303C00C6
:100F0600A10008008731362787317D08F5007C0867
:100F1600F40020002108F7002008F600FE30873193
:100F2600452787310930F3001C30890B982FF30BC6
:100F3600982F003251308731452787310030F8002D
:100F46008830F900FA01FB0178087A0784007908ED
:100F56007B3D850000088731452787310130FA0738
:100F66000030FB3D7B08803AF30080307302031D9E
:100F7600BE2F06307A02031CA72F5230F3002A3008
:100F8600890BC32FF30BC32F0730F8008830F90005
:100F9600FA01FB0178087A07840079087B3D850011
:100FA60000088731452787310130FA070030FB3DBD
:100FB6007B08803AF30080307302031DE42F06306D
:100FC6007A02031CCD2F5230F3002A30890BE92F09
:100FD600F30BE92F912F87310D278731FC008731DD
:100FE6000E278731FD0087310B278731A000873117
:100FF6000C27A10020008731852F483465346C34D6
:101006006C346F342034003457346F3472346C349B
:10101600643421340034483465346C346C346F34B1
:04102600213400343D
:020000040001F9
:08000E00ECFFF7FFFFFFFFFF0D
:00000001FF
